{
	"contracts/ContributionManagement.sol": {
		"ContributionManagement": {
			"abi": [
				{
					"anonymous": false,
					"inputs": [
						{
							"indexed": true,
							"internalType": "uint256",
							"name": "contributionID",
							"type": "uint256"
						}
					],
					"name": "ContributionApproved",
					"type": "event"
				},
				{
					"anonymous": false,
					"inputs": [
						{
							"indexed": true,
							"internalType": "uint256",
							"name": "contributionID",
							"type": "uint256"
						}
					],
					"name": "ContributionRejected",
					"type": "event"
				},
				{
					"anonymous": false,
					"inputs": [
						{
							"indexed": true,
							"internalType": "uint256",
							"name": "contributionID",
							"type": "uint256"
						},
						{
							"indexed": false,
							"internalType": "address",
							"name": "scientist",
							"type": "address"
						}
					],
					"name": "ContributionSubmitted",
					"type": "event"
				},
				{
					"anonymous": false,
					"inputs": [
						{
							"indexed": true,
							"internalType": "uint256",
							"name": "contributionID",
							"type": "uint256"
						},
						{
							"indexed": false,
							"internalType": "address",
							"name": "reviewer",
							"type": "address"
						}
					],
					"name": "ReviewRequested",
					"type": "event"
				},
				{
					"inputs": [
						{
							"internalType": "uint256",
							"name": "contributionID",
							"type": "uint256"
						},
						{
							"internalType": "bool",
							"name": "decision",
							"type": "bool"
						}
					],
					"name": "approveContribution",
					"outputs": [],
					"stateMutability": "nonpayable",
					"type": "function"
				},
				{
					"inputs": [],
					"name": "contributionCounter",
					"outputs": [
						{
							"internalType": "uint256",
							"name": "",
							"type": "uint256"
						}
					],
					"stateMutability": "view",
					"type": "function"
				},
				{
					"inputs": [
						{
							"internalType": "uint256",
							"name": "",
							"type": "uint256"
						}
					],
					"name": "contributions",
					"outputs": [
						{
							"internalType": "uint256",
							"name": "id",
							"type": "uint256"
						},
						{
							"internalType": "address",
							"name": "scientist",
							"type": "address"
						},
						{
							"internalType": "string",
							"name": "contentHash",
							"type": "string"
						},
						{
							"internalType": "enum ContributionManagement.Status",
							"name": "status",
							"type": "uint8"
						},
						{
							"internalType": "address",
							"name": "reviewer",
							"type": "address"
						},
						{
							"internalType": "uint256",
							"name": "timestamp",
							"type": "uint256"
						}
					],
					"stateMutability": "view",
					"type": "function"
				},
				{
					"inputs": [
						{
							"internalType": "uint256",
							"name": "contributionID",
							"type": "uint256"
						},
						{
							"internalType": "address",
							"name": "reviewer",
							"type": "address"
						}
					],
					"name": "requestReview",
					"outputs": [],
					"stateMutability": "nonpayable",
					"type": "function"
				},
				{
					"inputs": [
						{
							"internalType": "string",
							"name": "contentHash",
							"type": "string"
						}
					],
					"name": "submitContribution",
					"outputs": [],
					"stateMutability": "nonpayable",
					"type": "function"
				}
			],
			"devdoc": {
				"kind": "dev",
				"methods": {},
				"version": 1
			},
			"evm": {
				"assembly": "    /* \"contracts/ContributionManagement.sol\":60:1895  contract ContributionManagement {... */\n  mstore(0x40, 0x80)\n  callvalue\n  dup1\n  iszero\n  tag_1\n  jumpi\n  0x00\n  dup1\n  revert\ntag_1:\n  pop\n  dataSize(sub_0)\n  dup1\n  dataOffset(sub_0)\n  0x00\n  codecopy\n  0x00\n  return\nstop\n\nsub_0: assembly {\n        /* \"contracts/ContributionManagement.sol\":60:1895  contract ContributionManagement {... */\n      mstore(0x40, 0x80)\n      callvalue\n      dup1\n      iszero\n      tag_1\n      jumpi\n      0x00\n      dup1\n      revert\n    tag_1:\n      pop\n      jumpi(tag_2, lt(calldatasize, 0x04))\n      shr(0xe0, calldataload(0x00))\n      dup1\n      0x1a3bfd6c\n      eq\n      tag_3\n      jumpi\n      dup1\n      0x1cee0700\n      eq\n      tag_4\n      jumpi\n      dup1\n      0x45bead42\n      eq\n      tag_5\n      jumpi\n      dup1\n      0x9c2f0bd9\n      eq\n      tag_6\n      jumpi\n      dup1\n      0xfc746cde\n      eq\n      tag_7\n      jumpi\n    tag_2:\n      0x00\n      dup1\n      revert\n        /* \"contracts/ContributionManagement.sol\":1406:1892  function approveContribution(uint256 contributionID, bool decision) public {... */\n    tag_3:\n      tag_8\n      0x04\n      dup1\n      calldatasize\n      sub\n      dup2\n      add\n      swap1\n      tag_9\n      swap2\n      swap1\n      tag_10\n      jump\t// in\n    tag_9:\n      tag_11\n      jump\t// in\n    tag_8:\n      stop\n        /* \"contracts/ContributionManagement.sol\":343:396  mapping(uint256 => Contribution) public contributions */\n    tag_4:\n      tag_12\n      0x04\n      dup1\n      calldatasize\n      sub\n      dup2\n      add\n      swap1\n      tag_13\n      swap2\n      swap1\n      tag_14\n      jump\t// in\n    tag_13:\n      tag_15\n      jump\t// in\n    tag_12:\n      mload(0x40)\n      tag_16\n      swap7\n      swap6\n      swap5\n      swap4\n      swap3\n      swap2\n      swap1\n      tag_17\n      jump\t// in\n    tag_16:\n      mload(0x40)\n      dup1\n      swap2\n      sub\n      swap1\n      return\n        /* \"contracts/ContributionManagement.sol\":1098:1398  function requestReview(uint256 contributionID, address reviewer) public {... */\n    tag_5:\n      tag_18\n      0x04\n      dup1\n      calldatasize\n      sub\n      dup2\n      add\n      swap1\n      tag_19\n      swap2\n      swap1\n      tag_20\n      jump\t// in\n    tag_19:\n      tag_21\n      jump\t// in\n    tag_18:\n      stop\n        /* \"contracts/ContributionManagement.sol\":403:437  uint256 public contributionCounter */\n    tag_6:\n      tag_22\n      tag_23\n      jump\t// in\n    tag_22:\n      mload(0x40)\n      tag_24\n      swap2\n      swap1\n      tag_25\n      jump\t// in\n    tag_24:\n      mload(0x40)\n      dup1\n      swap2\n      sub\n      swap1\n      return\n        /* \"contracts/ContributionManagement.sol\":741:1090  function submitContribution(string memory contentHash) public {... */\n    tag_7:\n      tag_26\n      0x04\n      dup1\n      calldatasize\n      sub\n      dup2\n      add\n      swap1\n      tag_27\n      swap2\n      swap1\n      tag_28\n      jump\t// in\n    tag_27:\n      tag_29\n      jump\t// in\n    tag_26:\n      stop\n        /* \"contracts/ContributionManagement.sol\":1406:1892  function approveContribution(uint256 contributionID, bool decision) public {... */\n    tag_11:\n        /* \"contracts/ContributionManagement.sol\":1514:1527  contributions */\n      0x00\n        /* \"contracts/ContributionManagement.sol\":1514:1543  contributions[contributionID] */\n      dup1\n        /* \"contracts/ContributionManagement.sol\":1528:1542  contributionID */\n      dup4\n        /* \"contracts/ContributionManagement.sol\":1514:1543  contributions[contributionID] */\n      dup2\n      mstore\n      0x20\n      add\n      swap1\n      dup2\n      mstore\n      0x20\n      add\n      0x00\n      keccak256\n        /* \"contracts/ContributionManagement.sol\":1514:1552  contributions[contributionID].reviewer */\n      0x03\n      add\n      0x01\n      swap1\n      sload\n      swap1\n      0x0100\n      exp\n      swap1\n      div\n      0xffffffffffffffffffffffffffffffffffffffff\n      and\n        /* \"contracts/ContributionManagement.sol\":1500:1552  msg.sender == contributions[contributionID].reviewer */\n      0xffffffffffffffffffffffffffffffffffffffff\n      and\n        /* \"contracts/ContributionManagement.sol\":1500:1510  msg.sender */\n      caller\n        /* \"contracts/ContributionManagement.sol\":1500:1552  msg.sender == contributions[contributionID].reviewer */\n      0xffffffffffffffffffffffffffffffffffffffff\n      and\n      eq\n        /* \"contracts/ContributionManagement.sol\":1492:1578  require(msg.sender == contributions[contributionID].reviewer, \"Unauthorized reviewer\") */\n      tag_31\n      jumpi\n      mload(0x40)\n      0x08c379a000000000000000000000000000000000000000000000000000000000\n      dup2\n      mstore\n      0x04\n      add\n      tag_32\n      swap1\n      tag_33\n      jump\t// in\n    tag_32:\n      mload(0x40)\n      dup1\n      swap2\n      sub\n      swap1\n      revert\n    tag_31:\n        /* \"contracts/ContributionManagement.sol\":1595:1603  decision */\n      dup1\n        /* \"contracts/ContributionManagement.sol\":1591:1885  if (decision) {... */\n      iszero\n      tag_34\n      jumpi\n        /* \"contracts/ContributionManagement.sol\":1659:1674  Status.Approved */\n      0x01\n        /* \"contracts/ContributionManagement.sol\":1620:1633  contributions */\n      0x00\n        /* \"contracts/ContributionManagement.sol\":1620:1649  contributions[contributionID] */\n      dup1\n        /* \"contracts/ContributionManagement.sol\":1634:1648  contributionID */\n      dup5\n        /* \"contracts/ContributionManagement.sol\":1620:1649  contributions[contributionID] */\n      dup2\n      mstore\n      0x20\n      add\n      swap1\n      dup2\n      mstore\n      0x20\n      add\n      0x00\n      keccak256\n        /* \"contracts/ContributionManagement.sol\":1620:1656  contributions[contributionID].status */\n      0x03\n      add\n      0x00\n        /* \"contracts/ContributionManagement.sol\":1620:1674  contributions[contributionID].status = Status.Approved */\n      0x0100\n      exp\n      dup2\n      sload\n      dup2\n      0xff\n      mul\n      not\n      and\n      swap1\n      dup4\n      0x02\n      dup2\n      gt\n      iszero\n      tag_35\n      jumpi\n      tag_36\n      tag_37\n      jump\t// in\n    tag_36:\n    tag_35:\n      mul\n      or\n      swap1\n      sstore\n      pop\n        /* \"contracts/ContributionManagement.sol\":1715:1729  contributionID */\n      dup2\n        /* \"contracts/ContributionManagement.sol\":1694:1730  ContributionApproved(contributionID) */\n      0x67e3f306a4e9b799b258a57c1900826334c32acd432cceacaa4cda9b7f69b67c\n      mload(0x40)\n      mload(0x40)\n      dup1\n      swap2\n      sub\n      swap1\n      log2\n        /* \"contracts/ContributionManagement.sol\":1591:1885  if (decision) {... */\n      jump(tag_38)\n    tag_34:\n        /* \"contracts/ContributionManagement.sol\":1802:1817  Status.Rejected */\n      0x02\n        /* \"contracts/ContributionManagement.sol\":1763:1776  contributions */\n      0x00\n        /* \"contracts/ContributionManagement.sol\":1763:1792  contributions[contributionID] */\n      dup1\n        /* \"contracts/ContributionManagement.sol\":1777:1791  contributionID */\n      dup5\n        /* \"contracts/ContributionManagement.sol\":1763:1792  contributions[contributionID] */\n      dup2\n      mstore\n      0x20\n      add\n      swap1\n      dup2\n      mstore\n      0x20\n      add\n      0x00\n      keccak256\n        /* \"contracts/ContributionManagement.sol\":1763:1799  contributions[contributionID].status */\n      0x03\n      add\n      0x00\n        /* \"contracts/ContributionManagement.sol\":1763:1817  contributions[contributionID].status = Status.Rejected */\n      0x0100\n      exp\n      dup2\n      sload\n      dup2\n      0xff\n      mul\n      not\n      and\n      swap1\n      dup4\n      0x02\n      dup2\n      gt\n      iszero\n      tag_39\n      jumpi\n      tag_40\n      tag_37\n      jump\t// in\n    tag_40:\n    tag_39:\n      mul\n      or\n      swap1\n      sstore\n      pop\n        /* \"contracts/ContributionManagement.sol\":1858:1872  contributionID */\n      dup2\n        /* \"contracts/ContributionManagement.sol\":1837:1873  ContributionRejected(contributionID) */\n      0x3a97f8489ee122245ae2b2dbc749616b4f05bb5eb04a81d4a8702747a51c7169\n      mload(0x40)\n      mload(0x40)\n      dup1\n      swap2\n      sub\n      swap1\n      log2\n        /* \"contracts/ContributionManagement.sol\":1591:1885  if (decision) {... */\n    tag_38:\n        /* \"contracts/ContributionManagement.sol\":1406:1892  function approveContribution(uint256 contributionID, bool decision) public {... */\n      pop\n      pop\n      jump\t// out\n        /* \"contracts/ContributionManagement.sol\":343:396  mapping(uint256 => Contribution) public contributions */\n    tag_15:\n      mstore(0x20, 0x00)\n      dup1\n      0x00\n      mstore\n      keccak256(0x00, 0x40)\n      0x00\n      swap2\n      pop\n      swap1\n      pop\n      dup1\n      0x00\n      add\n      sload\n      swap1\n      dup1\n      0x01\n      add\n      0x00\n      swap1\n      sload\n      swap1\n      0x0100\n      exp\n      swap1\n      div\n      0xffffffffffffffffffffffffffffffffffffffff\n      and\n      swap1\n      dup1\n      0x02\n      add\n      dup1\n      sload\n      tag_41\n      swap1\n      tag_42\n      jump\t// in\n    tag_41:\n      dup1\n      0x1f\n      add\n      0x20\n      dup1\n      swap2\n      div\n      mul\n      0x20\n      add\n      mload(0x40)\n      swap1\n      dup2\n      add\n      0x40\n      mstore\n      dup1\n      swap3\n      swap2\n      swap1\n      dup2\n      dup2\n      mstore\n      0x20\n      add\n      dup3\n      dup1\n      sload\n      tag_43\n      swap1\n      tag_42\n      jump\t// in\n    tag_43:\n      dup1\n      iszero\n      tag_44\n      jumpi\n      dup1\n      0x1f\n      lt\n      tag_45\n      jumpi\n      0x0100\n      dup1\n      dup4\n      sload\n      div\n      mul\n      dup4\n      mstore\n      swap2\n      0x20\n      add\n      swap2\n      jump(tag_44)\n    tag_45:\n      dup3\n      add\n      swap2\n      swap1\n      0x00\n      mstore\n      keccak256(0x00, 0x20)\n      swap1\n    tag_46:\n      dup2\n      sload\n      dup2\n      mstore\n      swap1\n      0x01\n      add\n      swap1\n      0x20\n      add\n      dup1\n      dup4\n      gt\n      tag_46\n      jumpi\n      dup3\n      swap1\n      sub\n      0x1f\n      and\n      dup3\n      add\n      swap2\n    tag_44:\n      pop\n      pop\n      pop\n      pop\n      pop\n      swap1\n      dup1\n      0x03\n      add\n      0x00\n      swap1\n      sload\n      swap1\n      0x0100\n      exp\n      swap1\n      div\n      0xff\n      and\n      swap1\n      dup1\n      0x03\n      add\n      0x01\n      swap1\n      sload\n      swap1\n      0x0100\n      exp\n      swap1\n      div\n      0xffffffffffffffffffffffffffffffffffffffff\n      and\n      swap1\n      dup1\n      0x04\n      add\n      sload\n      swap1\n      pop\n      dup7\n      jump\t// out\n        /* \"contracts/ContributionManagement.sol\":1098:1398  function requestReview(uint256 contributionID, address reviewer) public {... */\n    tag_21:\n        /* \"contracts/ContributionManagement.sol\":1229:1243  Status.Pending */\n      0x00\n        /* \"contracts/ContributionManagement.sol\":1189:1243  contributions[contributionID].status == Status.Pending */\n      0x02\n      dup2\n      gt\n      iszero\n      tag_48\n      jumpi\n      tag_49\n      tag_37\n      jump\t// in\n    tag_49:\n    tag_48:\n        /* \"contracts/ContributionManagement.sol\":1189:1202  contributions */\n      0x00\n        /* \"contracts/ContributionManagement.sol\":1189:1218  contributions[contributionID] */\n      dup1\n        /* \"contracts/ContributionManagement.sol\":1203:1217  contributionID */\n      dup5\n        /* \"contracts/ContributionManagement.sol\":1189:1218  contributions[contributionID] */\n      dup2\n      mstore\n      0x20\n      add\n      swap1\n      dup2\n      mstore\n      0x20\n      add\n      0x00\n      keccak256\n        /* \"contracts/ContributionManagement.sol\":1189:1225  contributions[contributionID].status */\n      0x03\n      add\n      0x00\n      swap1\n      sload\n      swap1\n      0x0100\n      exp\n      swap1\n      div\n      0xff\n      and\n        /* \"contracts/ContributionManagement.sol\":1189:1243  contributions[contributionID].status == Status.Pending */\n      0x02\n      dup2\n      gt\n      iszero\n      tag_50\n      jumpi\n      tag_51\n      tag_37\n      jump\t// in\n    tag_51:\n    tag_50:\n      eq\n        /* \"contracts/ContributionManagement.sol\":1181:1271  require(contributions[contributionID].status == Status.Pending, \"Invalid contribution ID\") */\n      tag_52\n      jumpi\n      mload(0x40)\n      0x08c379a000000000000000000000000000000000000000000000000000000000\n      dup2\n      mstore\n      0x04\n      add\n      tag_53\n      swap1\n      tag_54\n      jump\t// in\n    tag_53:\n      mload(0x40)\n      dup1\n      swap2\n      sub\n      swap1\n      revert\n    tag_52:\n        /* \"contracts/ContributionManagement.sol\":1323:1331  reviewer */\n      dup1\n        /* \"contracts/ContributionManagement.sol\":1282:1295  contributions */\n      0x00\n        /* \"contracts/ContributionManagement.sol\":1282:1311  contributions[contributionID] */\n      dup1\n        /* \"contracts/ContributionManagement.sol\":1296:1310  contributionID */\n      dup5\n        /* \"contracts/ContributionManagement.sol\":1282:1311  contributions[contributionID] */\n      dup2\n      mstore\n      0x20\n      add\n      swap1\n      dup2\n      mstore\n      0x20\n      add\n      0x00\n      keccak256\n        /* \"contracts/ContributionManagement.sol\":1282:1320  contributions[contributionID].reviewer */\n      0x03\n      add\n      0x01\n        /* \"contracts/ContributionManagement.sol\":1282:1331  contributions[contributionID].reviewer = reviewer */\n      0x0100\n      exp\n      dup2\n      sload\n      dup2\n      0xffffffffffffffffffffffffffffffffffffffff\n      mul\n      not\n      and\n      swap1\n      dup4\n      0xffffffffffffffffffffffffffffffffffffffff\n      and\n      mul\n      or\n      swap1\n      sstore\n      pop\n        /* \"contracts/ContributionManagement.sol\":1365:1379  contributionID */\n      dup2\n        /* \"contracts/ContributionManagement.sol\":1349:1390  ReviewRequested(contributionID, reviewer) */\n      0x21d47e859f1599514906a2e7206eb97b919ddaf74e83d2b72d5b89f94dcfbe73\n        /* \"contracts/ContributionManagement.sol\":1381:1389  reviewer */\n      dup3\n        /* \"contracts/ContributionManagement.sol\":1349:1390  ReviewRequested(contributionID, reviewer) */\n      mload(0x40)\n      tag_55\n      swap2\n      swap1\n      tag_56\n      jump\t// in\n    tag_55:\n      mload(0x40)\n      dup1\n      swap2\n      sub\n      swap1\n      log2\n        /* \"contracts/ContributionManagement.sol\":1098:1398  function requestReview(uint256 contributionID, address reviewer) public {... */\n      pop\n      pop\n      jump\t// out\n        /* \"contracts/ContributionManagement.sol\":403:437  uint256 public contributionCounter */\n    tag_23:\n      sload(0x01)\n      dup2\n      jump\t// out\n        /* \"contracts/ContributionManagement.sol\":741:1090  function submitContribution(string memory contentHash) public {... */\n    tag_29:\n        /* \"contracts/ContributionManagement.sol\":814:833  contributionCounter */\n      0x01\n      0x00\n        /* \"contracts/ContributionManagement.sol\":814:835  contributionCounter++ */\n      dup2\n      sload\n      dup1\n      swap3\n      swap2\n      swap1\n      tag_58\n      swap1\n      tag_59\n      jump\t// in\n    tag_58:\n      swap2\n      swap1\n      pop\n      sstore\n      pop\n        /* \"contracts/ContributionManagement.sol\":883:1010  Contribution(... */\n      mload(0x40)\n      dup1\n      0xc0\n      add\n      0x40\n      mstore\n      dup1\n        /* \"contracts/ContributionManagement.sol\":910:929  contributionCounter */\n      sload(0x01)\n        /* \"contracts/ContributionManagement.sol\":883:1010  Contribution(... */\n      dup2\n      mstore\n      0x20\n      add\n        /* \"contracts/ContributionManagement.sol\":931:941  msg.sender */\n      caller\n        /* \"contracts/ContributionManagement.sol\":883:1010  Contribution(... */\n      0xffffffffffffffffffffffffffffffffffffffff\n      and\n      dup2\n      mstore\n      0x20\n      add\n        /* \"contracts/ContributionManagement.sol\":943:954  contentHash */\n      dup3\n        /* \"contracts/ContributionManagement.sol\":883:1010  Contribution(... */\n      dup2\n      mstore\n      0x20\n      add\n        /* \"contracts/ContributionManagement.sol\":956:970  Status.Pending */\n      0x00\n        /* \"contracts/ContributionManagement.sol\":883:1010  Contribution(... */\n      0x02\n      dup2\n      gt\n      iszero\n      tag_60\n      jumpi\n      tag_61\n      tag_37\n      jump\t// in\n    tag_61:\n    tag_60:\n      dup2\n      mstore\n      0x20\n      add\n        /* \"contracts/ContributionManagement.sol\":980:981  0 */\n      0x00\n        /* \"contracts/ContributionManagement.sol\":883:1010  Contribution(... */\n      0xffffffffffffffffffffffffffffffffffffffff\n      and\n      dup2\n      mstore\n      0x20\n      add\n        /* \"contracts/ContributionManagement.sol\":984:999  block.timestamp */\n      timestamp\n        /* \"contracts/ContributionManagement.sol\":883:1010  Contribution(... */\n      dup2\n      mstore\n      pop\n        /* \"contracts/ContributionManagement.sol\":846:859  contributions */\n      0x00\n        /* \"contracts/ContributionManagement.sol\":846:880  contributions[contributionCounter] */\n      dup1\n        /* \"contracts/ContributionManagement.sol\":860:879  contributionCounter */\n      sload(0x01)\n        /* \"contracts/ContributionManagement.sol\":846:880  contributions[contributionCounter] */\n      dup2\n      mstore\n      0x20\n      add\n      swap1\n      dup2\n      mstore\n      0x20\n      add\n      0x00\n      keccak256\n        /* \"contracts/ContributionManagement.sol\":846:1010  contributions[contributionCounter] = Contribution(... */\n      0x00\n      dup3\n      add\n      mload\n      dup2\n      0x00\n      add\n      sstore\n      0x20\n      dup3\n      add\n      mload\n      dup2\n      0x01\n      add\n      exp(0x0100, 0x00)\n      dup2\n      sload\n      dup2\n      0xffffffffffffffffffffffffffffffffffffffff\n      mul\n      not\n      and\n      swap1\n      dup4\n      0xffffffffffffffffffffffffffffffffffffffff\n      and\n      mul\n      or\n      swap1\n      sstore\n      pop\n      0x40\n      dup3\n      add\n      mload\n      dup2\n      0x02\n      add\n      swap1\n      dup2\n      tag_62\n      swap2\n      swap1\n      tag_63\n      jump\t// in\n    tag_62:\n      pop\n      0x60\n      dup3\n      add\n      mload\n      dup2\n      0x03\n      add\n      exp(0x0100, 0x00)\n      dup2\n      sload\n      dup2\n      0xff\n      mul\n      not\n      and\n      swap1\n      dup4\n      0x02\n      dup2\n      gt\n      iszero\n      tag_64\n      jumpi\n      tag_65\n      tag_37\n      jump\t// in\n    tag_65:\n    tag_64:\n      mul\n      or\n      swap1\n      sstore\n      pop\n      0x80\n      dup3\n      add\n      mload\n      dup2\n      0x03\n      add\n      exp(0x0100, 0x01)\n      dup2\n      sload\n      dup2\n      0xffffffffffffffffffffffffffffffffffffffff\n      mul\n      not\n      and\n      swap1\n      dup4\n      0xffffffffffffffffffffffffffffffffffffffff\n      and\n      mul\n      or\n      swap1\n      sstore\n      pop\n      0xa0\n      dup3\n      add\n      mload\n      dup2\n      0x04\n      add\n      sstore\n      swap1\n      pop\n      pop\n        /* \"contracts/ContributionManagement.sol\":1050:1069  contributionCounter */\n      sload(0x01)\n        /* \"contracts/ContributionManagement.sol\":1028:1082  ContributionSubmitted(contributionCounter, msg.sender) */\n      0xb0c99dd08ffba1468281ef4374edbccb9f01701627960a3c8a1128a32106c8dc\n        /* \"contracts/ContributionManagement.sol\":1071:1081  msg.sender */\n      caller\n        /* \"contracts/ContributionManagement.sol\":1028:1082  ContributionSubmitted(contributionCounter, msg.sender) */\n      mload(0x40)\n      tag_66\n      swap2\n      swap1\n      tag_56\n      jump\t// in\n    tag_66:\n      mload(0x40)\n      dup1\n      swap2\n      sub\n      swap1\n      log2\n        /* \"contracts/ContributionManagement.sol\":741:1090  function submitContribution(string memory contentHash) public {... */\n      pop\n      jump\t// out\n        /* \"#utility.yul\":7:82   */\n    tag_67:\n        /* \"#utility.yul\":40:46   */\n      0x00\n        /* \"#utility.yul\":73:75   */\n      0x40\n        /* \"#utility.yul\":67:76   */\n      mload\n        /* \"#utility.yul\":57:76   */\n      swap1\n      pop\n        /* \"#utility.yul\":7:82   */\n      swap1\n      jump\t// out\n        /* \"#utility.yul\":88:205   */\n    tag_68:\n        /* \"#utility.yul\":197:198   */\n      0x00\n        /* \"#utility.yul\":194:195   */\n      dup1\n        /* \"#utility.yul\":187:199   */\n      revert\n        /* \"#utility.yul\":211:328   */\n    tag_69:\n        /* \"#utility.yul\":320:321   */\n      0x00\n        /* \"#utility.yul\":317:318   */\n      dup1\n        /* \"#utility.yul\":310:322   */\n      revert\n        /* \"#utility.yul\":334:411   */\n    tag_70:\n        /* \"#utility.yul\":371:378   */\n      0x00\n        /* \"#utility.yul\":400:405   */\n      dup2\n        /* \"#utility.yul\":389:405   */\n      swap1\n      pop\n        /* \"#utility.yul\":334:411   */\n      swap2\n      swap1\n      pop\n      jump\t// out\n        /* \"#utility.yul\":417:539   */\n    tag_71:\n        /* \"#utility.yul\":490:514   */\n      tag_127\n        /* \"#utility.yul\":508:513   */\n      dup2\n        /* \"#utility.yul\":490:514   */\n      tag_70\n      jump\t// in\n    tag_127:\n        /* \"#utility.yul\":483:488   */\n      dup2\n        /* \"#utility.yul\":480:515   */\n      eq\n        /* \"#utility.yul\":470:533   */\n      tag_128\n      jumpi\n        /* \"#utility.yul\":529:530   */\n      0x00\n        /* \"#utility.yul\":526:527   */\n      dup1\n        /* \"#utility.yul\":519:531   */\n      revert\n        /* \"#utility.yul\":470:533   */\n    tag_128:\n        /* \"#utility.yul\":417:539   */\n      pop\n      jump\t// out\n        /* \"#utility.yul\":545:684   */\n    tag_72:\n        /* \"#utility.yul\":591:596   */\n      0x00\n        /* \"#utility.yul\":629:635   */\n      dup2\n        /* \"#utility.yul\":616:636   */\n      calldataload\n        /* \"#utility.yul\":607:636   */\n      swap1\n      pop\n        /* \"#utility.yul\":645:678   */\n      tag_130\n        /* \"#utility.yul\":672:677   */\n      dup2\n        /* \"#utility.yul\":645:678   */\n      tag_71\n      jump\t// in\n    tag_130:\n        /* \"#utility.yul\":545:684   */\n      swap3\n      swap2\n      pop\n      pop\n      jump\t// out\n        /* \"#utility.yul\":690:780   */\n    tag_73:\n        /* \"#utility.yul\":724:731   */\n      0x00\n        /* \"#utility.yul\":767:772   */\n      dup2\n        /* \"#utility.yul\":760:773   */\n      iszero\n        /* \"#utility.yul\":753:774   */\n      iszero\n        /* \"#utility.yul\":742:774   */\n      swap1\n      pop\n        /* \"#utility.yul\":690:780   */\n      swap2\n      swap1\n      pop\n      jump\t// out\n        /* \"#utility.yul\":786:902   */\n    tag_74:\n        /* \"#utility.yul\":856:877   */\n      tag_133\n        /* \"#utility.yul\":871:876   */\n      dup2\n        /* \"#utility.yul\":856:877   */\n      tag_73\n      jump\t// in\n    tag_133:\n        /* \"#utility.yul\":849:854   */\n      dup2\n        /* \"#utility.yul\":846:878   */\n      eq\n        /* \"#utility.yul\":836:896   */\n      tag_134\n      jumpi\n        /* \"#utility.yul\":892:893   */\n      0x00\n        /* \"#utility.yul\":889:890   */\n      dup1\n        /* \"#utility.yul\":882:894   */\n      revert\n        /* \"#utility.yul\":836:896   */\n    tag_134:\n        /* \"#utility.yul\":786:902   */\n      pop\n      jump\t// out\n        /* \"#utility.yul\":908:1041   */\n    tag_75:\n        /* \"#utility.yul\":951:956   */\n      0x00\n        /* \"#utility.yul\":989:995   */\n      dup2\n        /* \"#utility.yul\":976:996   */\n      calldataload\n        /* \"#utility.yul\":967:996   */\n      swap1\n      pop\n        /* \"#utility.yul\":1005:1035   */\n      tag_136\n        /* \"#utility.yul\":1029:1034   */\n      dup2\n        /* \"#utility.yul\":1005:1035   */\n      tag_74\n      jump\t// in\n    tag_136:\n        /* \"#utility.yul\":908:1041   */\n      swap3\n      swap2\n      pop\n      pop\n      jump\t// out\n        /* \"#utility.yul\":1047:1515   */\n    tag_10:\n        /* \"#utility.yul\":1112:1118   */\n      0x00\n        /* \"#utility.yul\":1120:1126   */\n      dup1\n        /* \"#utility.yul\":1169:1171   */\n      0x40\n        /* \"#utility.yul\":1157:1166   */\n      dup4\n        /* \"#utility.yul\":1148:1155   */\n      dup6\n        /* \"#utility.yul\":1144:1167   */\n      sub\n        /* \"#utility.yul\":1140:1172   */\n      slt\n        /* \"#utility.yul\":1137:1256   */\n      iszero\n      tag_138\n      jumpi\n        /* \"#utility.yul\":1175:1254   */\n      tag_139\n      tag_68\n      jump\t// in\n    tag_139:\n        /* \"#utility.yul\":1137:1256   */\n    tag_138:\n        /* \"#utility.yul\":1295:1296   */\n      0x00\n        /* \"#utility.yul\":1320:1373   */\n      tag_140\n        /* \"#utility.yul\":1365:1372   */\n      dup6\n        /* \"#utility.yul\":1356:1362   */\n      dup3\n        /* \"#utility.yul\":1345:1354   */\n      dup7\n        /* \"#utility.yul\":1341:1363   */\n      add\n        /* \"#utility.yul\":1320:1373   */\n      tag_72\n      jump\t// in\n    tag_140:\n        /* \"#utility.yul\":1310:1373   */\n      swap3\n      pop\n        /* \"#utility.yul\":1266:1383   */\n      pop\n        /* \"#utility.yul\":1422:1424   */\n      0x20\n        /* \"#utility.yul\":1448:1498   */\n      tag_141\n        /* \"#utility.yul\":1490:1497   */\n      dup6\n        /* \"#utility.yul\":1481:1487   */\n      dup3\n        /* \"#utility.yul\":1470:1479   */\n      dup7\n        /* \"#utility.yul\":1466:1488   */\n      add\n        /* \"#utility.yul\":1448:1498   */\n      tag_75\n      jump\t// in\n    tag_141:\n        /* \"#utility.yul\":1438:1498   */\n      swap2\n      pop\n        /* \"#utility.yul\":1393:1508   */\n      pop\n        /* \"#utility.yul\":1047:1515   */\n      swap3\n      pop\n      swap3\n      swap1\n      pop\n      jump\t// out\n        /* \"#utility.yul\":1521:1850   */\n    tag_14:\n        /* \"#utility.yul\":1580:1586   */\n      0x00\n        /* \"#utility.yul\":1629:1631   */\n      0x20\n        /* \"#utility.yul\":1617:1626   */\n      dup3\n        /* \"#utility.yul\":1608:1615   */\n      dup5\n        /* \"#utility.yul\":1604:1627   */\n      sub\n        /* \"#utility.yul\":1600:1632   */\n      slt\n        /* \"#utility.yul\":1597:1716   */\n      iszero\n      tag_143\n      jumpi\n        /* \"#utility.yul\":1635:1714   */\n      tag_144\n      tag_68\n      jump\t// in\n    tag_144:\n        /* \"#utility.yul\":1597:1716   */\n    tag_143:\n        /* \"#utility.yul\":1755:1756   */\n      0x00\n        /* \"#utility.yul\":1780:1833   */\n      tag_145\n        /* \"#utility.yul\":1825:1832   */\n      dup5\n        /* \"#utility.yul\":1816:1822   */\n      dup3\n        /* \"#utility.yul\":1805:1814   */\n      dup6\n        /* \"#utility.yul\":1801:1823   */\n      add\n        /* \"#utility.yul\":1780:1833   */\n      tag_72\n      jump\t// in\n    tag_145:\n        /* \"#utility.yul\":1770:1833   */\n      swap2\n      pop\n        /* \"#utility.yul\":1726:1843   */\n      pop\n        /* \"#utility.yul\":1521:1850   */\n      swap3\n      swap2\n      pop\n      pop\n      jump\t// out\n        /* \"#utility.yul\":1856:1974   */\n    tag_76:\n        /* \"#utility.yul\":1943:1967   */\n      tag_147\n        /* \"#utility.yul\":1961:1966   */\n      dup2\n        /* \"#utility.yul\":1943:1967   */\n      tag_70\n      jump\t// in\n    tag_147:\n        /* \"#utility.yul\":1938:1941   */\n      dup3\n        /* \"#utility.yul\":1931:1968   */\n      mstore\n        /* \"#utility.yul\":1856:1974   */\n      pop\n      pop\n      jump\t// out\n        /* \"#utility.yul\":1980:2106   */\n    tag_77:\n        /* \"#utility.yul\":2017:2024   */\n      0x00\n        /* \"#utility.yul\":2057:2099   */\n      0xffffffffffffffffffffffffffffffffffffffff\n        /* \"#utility.yul\":2050:2055   */\n      dup3\n        /* \"#utility.yul\":2046:2100   */\n      and\n        /* \"#utility.yul\":2035:2100   */\n      swap1\n      pop\n        /* \"#utility.yul\":1980:2106   */\n      swap2\n      swap1\n      pop\n      jump\t// out\n        /* \"#utility.yul\":2112:2208   */\n    tag_78:\n        /* \"#utility.yul\":2149:2156   */\n      0x00\n        /* \"#utility.yul\":2178:2202   */\n      tag_150\n        /* \"#utility.yul\":2196:2201   */\n      dup3\n        /* \"#utility.yul\":2178:2202   */\n      tag_77\n      jump\t// in\n    tag_150:\n        /* \"#utility.yul\":2167:2202   */\n      swap1\n      pop\n        /* \"#utility.yul\":2112:2208   */\n      swap2\n      swap1\n      pop\n      jump\t// out\n        /* \"#utility.yul\":2214:2332   */\n    tag_79:\n        /* \"#utility.yul\":2301:2325   */\n      tag_152\n        /* \"#utility.yul\":2319:2324   */\n      dup2\n        /* \"#utility.yul\":2301:2325   */\n      tag_78\n      jump\t// in\n    tag_152:\n        /* \"#utility.yul\":2296:2299   */\n      dup3\n        /* \"#utility.yul\":2289:2326   */\n      mstore\n        /* \"#utility.yul\":2214:2332   */\n      pop\n      pop\n      jump\t// out\n        /* \"#utility.yul\":2338:2437   */\n    tag_80:\n        /* \"#utility.yul\":2390:2396   */\n      0x00\n        /* \"#utility.yul\":2424:2429   */\n      dup2\n        /* \"#utility.yul\":2418:2430   */\n      mload\n        /* \"#utility.yul\":2408:2430   */\n      swap1\n      pop\n        /* \"#utility.yul\":2338:2437   */\n      swap2\n      swap1\n      pop\n      jump\t// out\n        /* \"#utility.yul\":2443:2612   */\n    tag_81:\n        /* \"#utility.yul\":2527:2538   */\n      0x00\n        /* \"#utility.yul\":2561:2567   */\n      dup3\n        /* \"#utility.yul\":2556:2559   */\n      dup3\n        /* \"#utility.yul\":2549:2568   */\n      mstore\n        /* \"#utility.yul\":2601:2605   */\n      0x20\n        /* \"#utility.yul\":2596:2599   */\n      dup3\n        /* \"#utility.yul\":2592:2606   */\n      add\n        /* \"#utility.yul\":2577:2606   */\n      swap1\n      pop\n        /* \"#utility.yul\":2443:2612   */\n      swap3\n      swap2\n      pop\n      pop\n      jump\t// out\n        /* \"#utility.yul\":2618:2757   */\n    tag_82:\n        /* \"#utility.yul\":2707:2713   */\n      dup3\n        /* \"#utility.yul\":2702:2705   */\n      dup2\n        /* \"#utility.yul\":2697:2700   */\n      dup4\n        /* \"#utility.yul\":2691:2714   */\n      mcopy\n        /* \"#utility.yul\":2748:2749   */\n      0x00\n        /* \"#utility.yul\":2739:2745   */\n      dup4\n        /* \"#utility.yul\":2734:2737   */\n      dup4\n        /* \"#utility.yul\":2730:2746   */\n      add\n        /* \"#utility.yul\":2723:2750   */\n      mstore\n        /* \"#utility.yul\":2618:2757   */\n      pop\n      pop\n      pop\n      jump\t// out\n        /* \"#utility.yul\":2763:2865   */\n    tag_83:\n        /* \"#utility.yul\":2804:2810   */\n      0x00\n        /* \"#utility.yul\":2855:2857   */\n      0x1f\n        /* \"#utility.yul\":2851:2858   */\n      not\n        /* \"#utility.yul\":2846:2848   */\n      0x1f\n        /* \"#utility.yul\":2839:2844   */\n      dup4\n        /* \"#utility.yul\":2835:2849   */\n      add\n        /* \"#utility.yul\":2831:2859   */\n      and\n        /* \"#utility.yul\":2821:2859   */\n      swap1\n      pop\n        /* \"#utility.yul\":2763:2865   */\n      swap2\n      swap1\n      pop\n      jump\t// out\n        /* \"#utility.yul\":2871:3248   */\n    tag_84:\n        /* \"#utility.yul\":2959:2962   */\n      0x00\n        /* \"#utility.yul\":2987:3026   */\n      tag_158\n        /* \"#utility.yul\":3020:3025   */\n      dup3\n        /* \"#utility.yul\":2987:3026   */\n      tag_80\n      jump\t// in\n    tag_158:\n        /* \"#utility.yul\":3042:3113   */\n      tag_159\n        /* \"#utility.yul\":3106:3112   */\n      dup2\n        /* \"#utility.yul\":3101:3104   */\n      dup6\n        /* \"#utility.yul\":3042:3113   */\n      tag_81\n      jump\t// in\n    tag_159:\n        /* \"#utility.yul\":3035:3113   */\n      swap4\n      pop\n        /* \"#utility.yul\":3122:3187   */\n      tag_160\n        /* \"#utility.yul\":3180:3186   */\n      dup2\n        /* \"#utility.yul\":3175:3178   */\n      dup6\n        /* \"#utility.yul\":3168:3172   */\n      0x20\n        /* \"#utility.yul\":3161:3166   */\n      dup7\n        /* \"#utility.yul\":3157:3173   */\n      add\n        /* \"#utility.yul\":3122:3187   */\n      tag_82\n      jump\t// in\n    tag_160:\n        /* \"#utility.yul\":3212:3241   */\n      tag_161\n        /* \"#utility.yul\":3234:3240   */\n      dup2\n        /* \"#utility.yul\":3212:3241   */\n      tag_83\n      jump\t// in\n    tag_161:\n        /* \"#utility.yul\":3207:3210   */\n      dup5\n        /* \"#utility.yul\":3203:3242   */\n      add\n        /* \"#utility.yul\":3196:3242   */\n      swap2\n      pop\n        /* \"#utility.yul\":2963:3248   */\n      pop\n        /* \"#utility.yul\":2871:3248   */\n      swap3\n      swap2\n      pop\n      pop\n      jump\t// out\n        /* \"#utility.yul\":3254:3434   */\n    tag_37:\n        /* \"#utility.yul\":3302:3379   */\n      0x4e487b7100000000000000000000000000000000000000000000000000000000\n        /* \"#utility.yul\":3299:3300   */\n      0x00\n        /* \"#utility.yul\":3292:3380   */\n      mstore\n        /* \"#utility.yul\":3399:3403   */\n      0x21\n        /* \"#utility.yul\":3396:3397   */\n      0x04\n        /* \"#utility.yul\":3389:3404   */\n      mstore\n        /* \"#utility.yul\":3423:3427   */\n      0x24\n        /* \"#utility.yul\":3420:3421   */\n      0x00\n        /* \"#utility.yul\":3413:3428   */\n      revert\n        /* \"#utility.yul\":3440:3553   */\n    tag_85:\n        /* \"#utility.yul\":3521:3522   */\n      0x03\n        /* \"#utility.yul\":3514:3519   */\n      dup2\n        /* \"#utility.yul\":3511:3523   */\n      lt\n        /* \"#utility.yul\":3501:3547   */\n      tag_164\n      jumpi\n        /* \"#utility.yul\":3527:3545   */\n      tag_165\n      tag_37\n      jump\t// in\n    tag_165:\n        /* \"#utility.yul\":3501:3547   */\n    tag_164:\n        /* \"#utility.yul\":3440:3553   */\n      pop\n      jump\t// out\n        /* \"#utility.yul\":3559:3686   */\n    tag_86:\n        /* \"#utility.yul\":3604:3611   */\n      0x00\n        /* \"#utility.yul\":3633:3638   */\n      dup2\n        /* \"#utility.yul\":3622:3638   */\n      swap1\n      pop\n        /* \"#utility.yul\":3639:3680   */\n      tag_167\n        /* \"#utility.yul\":3674:3679   */\n      dup3\n        /* \"#utility.yul\":3639:3680   */\n      tag_85\n      jump\t// in\n    tag_167:\n        /* \"#utility.yul\":3559:3686   */\n      swap2\n      swap1\n      pop\n      jump\t// out\n        /* \"#utility.yul\":3692:3819   */\n    tag_87:\n        /* \"#utility.yul\":3748:3757   */\n      0x00\n        /* \"#utility.yul\":3781:3813   */\n      tag_169\n        /* \"#utility.yul\":3807:3812   */\n      dup3\n        /* \"#utility.yul\":3781:3813   */\n      tag_86\n      jump\t// in\n    tag_169:\n        /* \"#utility.yul\":3768:3813   */\n      swap1\n      pop\n        /* \"#utility.yul\":3692:3819   */\n      swap2\n      swap1\n      pop\n      jump\t// out\n        /* \"#utility.yul\":3825:3968   */\n    tag_88:\n        /* \"#utility.yul\":3918:3961   */\n      tag_171\n        /* \"#utility.yul\":3955:3960   */\n      dup2\n        /* \"#utility.yul\":3918:3961   */\n      tag_87\n      jump\t// in\n    tag_171:\n        /* \"#utility.yul\":3913:3916   */\n      dup3\n        /* \"#utility.yul\":3906:3962   */\n      mstore\n        /* \"#utility.yul\":3825:3968   */\n      pop\n      pop\n      jump\t// out\n        /* \"#utility.yul\":3974:4852   */\n    tag_17:\n        /* \"#utility.yul\":4233:4237   */\n      0x00\n        /* \"#utility.yul\":4271:4274   */\n      0xc0\n        /* \"#utility.yul\":4260:4269   */\n      dup3\n        /* \"#utility.yul\":4256:4275   */\n      add\n        /* \"#utility.yul\":4248:4275   */\n      swap1\n      pop\n        /* \"#utility.yul\":4285:4356   */\n      tag_173\n        /* \"#utility.yul\":4353:4354   */\n      0x00\n        /* \"#utility.yul\":4342:4351   */\n      dup4\n        /* \"#utility.yul\":4338:4355   */\n      add\n        /* \"#utility.yul\":4329:4335   */\n      dup10\n        /* \"#utility.yul\":4285:4356   */\n      tag_76\n      jump\t// in\n    tag_173:\n        /* \"#utility.yul\":4366:4438   */\n      tag_174\n        /* \"#utility.yul\":4434:4436   */\n      0x20\n        /* \"#utility.yul\":4423:4432   */\n      dup4\n        /* \"#utility.yul\":4419:4437   */\n      add\n        /* \"#utility.yul\":4410:4416   */\n      dup9\n        /* \"#utility.yul\":4366:4438   */\n      tag_79\n      jump\t// in\n    tag_174:\n        /* \"#utility.yul\":4485:4494   */\n      dup2\n        /* \"#utility.yul\":4479:4483   */\n      dup2\n        /* \"#utility.yul\":4475:4495   */\n      sub\n        /* \"#utility.yul\":4470:4472   */\n      0x40\n        /* \"#utility.yul\":4459:4468   */\n      dup4\n        /* \"#utility.yul\":4455:4473   */\n      add\n        /* \"#utility.yul\":4448:4496   */\n      mstore\n        /* \"#utility.yul\":4513:4591   */\n      tag_175\n        /* \"#utility.yul\":4586:4590   */\n      dup2\n        /* \"#utility.yul\":4577:4583   */\n      dup8\n        /* \"#utility.yul\":4513:4591   */\n      tag_84\n      jump\t// in\n    tag_175:\n        /* \"#utility.yul\":4505:4591   */\n      swap1\n      pop\n        /* \"#utility.yul\":4601:4679   */\n      tag_176\n        /* \"#utility.yul\":4675:4677   */\n      0x60\n        /* \"#utility.yul\":4664:4673   */\n      dup4\n        /* \"#utility.yul\":4660:4678   */\n      add\n        /* \"#utility.yul\":4651:4657   */\n      dup7\n        /* \"#utility.yul\":4601:4679   */\n      tag_88\n      jump\t// in\n    tag_176:\n        /* \"#utility.yul\":4689:4762   */\n      tag_177\n        /* \"#utility.yul\":4757:4760   */\n      0x80\n        /* \"#utility.yul\":4746:4755   */\n      dup4\n        /* \"#utility.yul\":4742:4761   */\n      add\n        /* \"#utility.yul\":4733:4739   */\n      dup6\n        /* \"#utility.yul\":4689:4762   */\n      tag_79\n      jump\t// in\n    tag_177:\n        /* \"#utility.yul\":4772:4845   */\n      tag_178\n        /* \"#utility.yul\":4840:4843   */\n      0xa0\n        /* \"#utility.yul\":4829:4838   */\n      dup4\n        /* \"#utility.yul\":4825:4844   */\n      add\n        /* \"#utility.yul\":4816:4822   */\n      dup5\n        /* \"#utility.yul\":4772:4845   */\n      tag_76\n      jump\t// in\n    tag_178:\n        /* \"#utility.yul\":3974:4852   */\n      swap8\n      swap7\n      pop\n      pop\n      pop\n      pop\n      pop\n      pop\n      pop\n      jump\t// out\n        /* \"#utility.yul\":4858:4980   */\n    tag_89:\n        /* \"#utility.yul\":4931:4955   */\n      tag_180\n        /* \"#utility.yul\":4949:4954   */\n      dup2\n        /* \"#utility.yul\":4931:4955   */\n      tag_78\n      jump\t// in\n    tag_180:\n        /* \"#utility.yul\":4924:4929   */\n      dup2\n        /* \"#utility.yul\":4921:4956   */\n      eq\n        /* \"#utility.yul\":4911:4974   */\n      tag_181\n      jumpi\n        /* \"#utility.yul\":4970:4971   */\n      0x00\n        /* \"#utility.yul\":4967:4968   */\n      dup1\n        /* \"#utility.yul\":4960:4972   */\n      revert\n        /* \"#utility.yul\":4911:4974   */\n    tag_181:\n        /* \"#utility.yul\":4858:4980   */\n      pop\n      jump\t// out\n        /* \"#utility.yul\":4986:5125   */\n    tag_90:\n        /* \"#utility.yul\":5032:5037   */\n      0x00\n        /* \"#utility.yul\":5070:5076   */\n      dup2\n        /* \"#utility.yul\":5057:5077   */\n      calldataload\n        /* \"#utility.yul\":5048:5077   */\n      swap1\n      pop\n        /* \"#utility.yul\":5086:5119   */\n      tag_183\n        /* \"#utility.yul\":5113:5118   */\n      dup2\n        /* \"#utility.yul\":5086:5119   */\n      tag_89\n      jump\t// in\n    tag_183:\n        /* \"#utility.yul\":4986:5125   */\n      swap3\n      swap2\n      pop\n      pop\n      jump\t// out\n        /* \"#utility.yul\":5131:5605   */\n    tag_20:\n        /* \"#utility.yul\":5199:5205   */\n      0x00\n        /* \"#utility.yul\":5207:5213   */\n      dup1\n        /* \"#utility.yul\":5256:5258   */\n      0x40\n        /* \"#utility.yul\":5244:5253   */\n      dup4\n        /* \"#utility.yul\":5235:5242   */\n      dup6\n        /* \"#utility.yul\":5231:5254   */\n      sub\n        /* \"#utility.yul\":5227:5259   */\n      slt\n        /* \"#utility.yul\":5224:5343   */\n      iszero\n      tag_185\n      jumpi\n        /* \"#utility.yul\":5262:5341   */\n      tag_186\n      tag_68\n      jump\t// in\n    tag_186:\n        /* \"#utility.yul\":5224:5343   */\n    tag_185:\n        /* \"#utility.yul\":5382:5383   */\n      0x00\n        /* \"#utility.yul\":5407:5460   */\n      tag_187\n        /* \"#utility.yul\":5452:5459   */\n      dup6\n        /* \"#utility.yul\":5443:5449   */\n      dup3\n        /* \"#utility.yul\":5432:5441   */\n      dup7\n        /* \"#utility.yul\":5428:5450   */\n      add\n        /* \"#utility.yul\":5407:5460   */\n      tag_72\n      jump\t// in\n    tag_187:\n        /* \"#utility.yul\":5397:5460   */\n      swap3\n      pop\n        /* \"#utility.yul\":5353:5470   */\n      pop\n        /* \"#utility.yul\":5509:5511   */\n      0x20\n        /* \"#utility.yul\":5535:5588   */\n      tag_188\n        /* \"#utility.yul\":5580:5587   */\n      dup6\n        /* \"#utility.yul\":5571:5577   */\n      dup3\n        /* \"#utility.yul\":5560:5569   */\n      dup7\n        /* \"#utility.yul\":5556:5578   */\n      add\n        /* \"#utility.yul\":5535:5588   */\n      tag_90\n      jump\t// in\n    tag_188:\n        /* \"#utility.yul\":5525:5588   */\n      swap2\n      pop\n        /* \"#utility.yul\":5480:5598   */\n      pop\n        /* \"#utility.yul\":5131:5605   */\n      swap3\n      pop\n      swap3\n      swap1\n      pop\n      jump\t// out\n        /* \"#utility.yul\":5611:5833   */\n    tag_25:\n        /* \"#utility.yul\":5704:5708   */\n      0x00\n        /* \"#utility.yul\":5742:5744   */\n      0x20\n        /* \"#utility.yul\":5731:5740   */\n      dup3\n        /* \"#utility.yul\":5727:5745   */\n      add\n        /* \"#utility.yul\":5719:5745   */\n      swap1\n      pop\n        /* \"#utility.yul\":5755:5826   */\n      tag_190\n        /* \"#utility.yul\":5823:5824   */\n      0x00\n        /* \"#utility.yul\":5812:5821   */\n      dup4\n        /* \"#utility.yul\":5808:5825   */\n      add\n        /* \"#utility.yul\":5799:5805   */\n      dup5\n        /* \"#utility.yul\":5755:5826   */\n      tag_76\n      jump\t// in\n    tag_190:\n        /* \"#utility.yul\":5611:5833   */\n      swap3\n      swap2\n      pop\n      pop\n      jump\t// out\n        /* \"#utility.yul\":5839:5956   */\n    tag_91:\n        /* \"#utility.yul\":5948:5949   */\n      0x00\n        /* \"#utility.yul\":5945:5946   */\n      dup1\n        /* \"#utility.yul\":5938:5950   */\n      revert\n        /* \"#utility.yul\":5962:6079   */\n    tag_92:\n        /* \"#utility.yul\":6071:6072   */\n      0x00\n        /* \"#utility.yul\":6068:6069   */\n      dup1\n        /* \"#utility.yul\":6061:6073   */\n      revert\n        /* \"#utility.yul\":6085:6265   */\n    tag_93:\n        /* \"#utility.yul\":6133:6210   */\n      0x4e487b7100000000000000000000000000000000000000000000000000000000\n        /* \"#utility.yul\":6130:6131   */\n      0x00\n        /* \"#utility.yul\":6123:6211   */\n      mstore\n        /* \"#utility.yul\":6230:6234   */\n      0x41\n        /* \"#utility.yul\":6227:6228   */\n      0x04\n        /* \"#utility.yul\":6220:6235   */\n      mstore\n        /* \"#utility.yul\":6254:6258   */\n      0x24\n        /* \"#utility.yul\":6251:6252   */\n      0x00\n        /* \"#utility.yul\":6244:6259   */\n      revert\n        /* \"#utility.yul\":6271:6552   */\n    tag_94:\n        /* \"#utility.yul\":6354:6381   */\n      tag_195\n        /* \"#utility.yul\":6376:6380   */\n      dup3\n        /* \"#utility.yul\":6354:6381   */\n      tag_83\n      jump\t// in\n    tag_195:\n        /* \"#utility.yul\":6346:6352   */\n      dup2\n        /* \"#utility.yul\":6342:6382   */\n      add\n        /* \"#utility.yul\":6484:6490   */\n      dup2\n        /* \"#utility.yul\":6472:6482   */\n      dup2\n        /* \"#utility.yul\":6469:6491   */\n      lt\n        /* \"#utility.yul\":6448:6466   */\n      0xffffffffffffffff\n        /* \"#utility.yul\":6436:6446   */\n      dup3\n        /* \"#utility.yul\":6433:6467   */\n      gt\n        /* \"#utility.yul\":6430:6492   */\n      or\n        /* \"#utility.yul\":6427:6515   */\n      iszero\n      tag_196\n      jumpi\n        /* \"#utility.yul\":6495:6513   */\n      tag_197\n      tag_93\n      jump\t// in\n    tag_197:\n        /* \"#utility.yul\":6427:6515   */\n    tag_196:\n        /* \"#utility.yul\":6535:6545   */\n      dup1\n        /* \"#utility.yul\":6531:6533   */\n      0x40\n        /* \"#utility.yul\":6524:6546   */\n      mstore\n        /* \"#utility.yul\":6314:6552   */\n      pop\n        /* \"#utility.yul\":6271:6552   */\n      pop\n      pop\n      jump\t// out\n        /* \"#utility.yul\":6558:6687   */\n    tag_95:\n        /* \"#utility.yul\":6592:6598   */\n      0x00\n        /* \"#utility.yul\":6619:6639   */\n      tag_199\n      tag_67\n      jump\t// in\n    tag_199:\n        /* \"#utility.yul\":6609:6639   */\n      swap1\n      pop\n        /* \"#utility.yul\":6648:6681   */\n      tag_200\n        /* \"#utility.yul\":6676:6680   */\n      dup3\n        /* \"#utility.yul\":6668:6674   */\n      dup3\n        /* \"#utility.yul\":6648:6681   */\n      tag_94\n      jump\t// in\n    tag_200:\n        /* \"#utility.yul\":6558:6687   */\n      swap2\n      swap1\n      pop\n      jump\t// out\n        /* \"#utility.yul\":6693:7001   */\n    tag_96:\n        /* \"#utility.yul\":6755:6759   */\n      0x00\n        /* \"#utility.yul\":6845:6863   */\n      0xffffffffffffffff\n        /* \"#utility.yul\":6837:6843   */\n      dup3\n        /* \"#utility.yul\":6834:6864   */\n      gt\n        /* \"#utility.yul\":6831:6887   */\n      iszero\n      tag_202\n      jumpi\n        /* \"#utility.yul\":6867:6885   */\n      tag_203\n      tag_93\n      jump\t// in\n    tag_203:\n        /* \"#utility.yul\":6831:6887   */\n    tag_202:\n        /* \"#utility.yul\":6905:6934   */\n      tag_204\n        /* \"#utility.yul\":6927:6933   */\n      dup3\n        /* \"#utility.yul\":6905:6934   */\n      tag_83\n      jump\t// in\n    tag_204:\n        /* \"#utility.yul\":6897:6934   */\n      swap1\n      pop\n        /* \"#utility.yul\":6989:6993   */\n      0x20\n        /* \"#utility.yul\":6983:6987   */\n      dup2\n        /* \"#utility.yul\":6979:6994   */\n      add\n        /* \"#utility.yul\":6971:6994   */\n      swap1\n      pop\n        /* \"#utility.yul\":6693:7001   */\n      swap2\n      swap1\n      pop\n      jump\t// out\n        /* \"#utility.yul\":7007:7155   */\n    tag_97:\n        /* \"#utility.yul\":7105:7111   */\n      dup3\n        /* \"#utility.yul\":7100:7103   */\n      dup2\n        /* \"#utility.yul\":7095:7098   */\n      dup4\n        /* \"#utility.yul\":7082:7112   */\n      calldatacopy\n        /* \"#utility.yul\":7146:7147   */\n      0x00\n        /* \"#utility.yul\":7137:7143   */\n      dup4\n        /* \"#utility.yul\":7132:7135   */\n      dup4\n        /* \"#utility.yul\":7128:7144   */\n      add\n        /* \"#utility.yul\":7121:7148   */\n      mstore\n        /* \"#utility.yul\":7007:7155   */\n      pop\n      pop\n      pop\n      jump\t// out\n        /* \"#utility.yul\":7161:7586   */\n    tag_98:\n        /* \"#utility.yul\":7239:7244   */\n      0x00\n        /* \"#utility.yul\":7264:7330   */\n      tag_207\n        /* \"#utility.yul\":7280:7329   */\n      tag_208\n        /* \"#utility.yul\":7322:7328   */\n      dup5\n        /* \"#utility.yul\":7280:7329   */\n      tag_96\n      jump\t// in\n    tag_208:\n        /* \"#utility.yul\":7264:7330   */\n      tag_95\n      jump\t// in\n    tag_207:\n        /* \"#utility.yul\":7255:7330   */\n      swap1\n      pop\n        /* \"#utility.yul\":7353:7359   */\n      dup3\n        /* \"#utility.yul\":7346:7351   */\n      dup2\n        /* \"#utility.yul\":7339:7360   */\n      mstore\n        /* \"#utility.yul\":7391:7395   */\n      0x20\n        /* \"#utility.yul\":7384:7389   */\n      dup2\n        /* \"#utility.yul\":7380:7396   */\n      add\n        /* \"#utility.yul\":7429:7432   */\n      dup5\n        /* \"#utility.yul\":7420:7426   */\n      dup5\n        /* \"#utility.yul\":7415:7418   */\n      dup5\n        /* \"#utility.yul\":7411:7427   */\n      add\n        /* \"#utility.yul\":7408:7433   */\n      gt\n        /* \"#utility.yul\":7405:7517   */\n      iszero\n      tag_209\n      jumpi\n        /* \"#utility.yul\":7436:7515   */\n      tag_210\n      tag_92\n      jump\t// in\n    tag_210:\n        /* \"#utility.yul\":7405:7517   */\n    tag_209:\n        /* \"#utility.yul\":7526:7580   */\n      tag_211\n        /* \"#utility.yul\":7573:7579   */\n      dup5\n        /* \"#utility.yul\":7568:7571   */\n      dup3\n        /* \"#utility.yul\":7563:7566   */\n      dup6\n        /* \"#utility.yul\":7526:7580   */\n      tag_97\n      jump\t// in\n    tag_211:\n        /* \"#utility.yul\":7245:7586   */\n      pop\n        /* \"#utility.yul\":7161:7586   */\n      swap4\n      swap3\n      pop\n      pop\n      pop\n      jump\t// out\n        /* \"#utility.yul\":7606:7946   */\n    tag_99:\n        /* \"#utility.yul\":7662:7667   */\n      0x00\n        /* \"#utility.yul\":7711:7714   */\n      dup3\n        /* \"#utility.yul\":7704:7708   */\n      0x1f\n        /* \"#utility.yul\":7696:7702   */\n      dup4\n        /* \"#utility.yul\":7692:7709   */\n      add\n        /* \"#utility.yul\":7688:7715   */\n      slt\n        /* \"#utility.yul\":7678:7800   */\n      tag_213\n      jumpi\n        /* \"#utility.yul\":7719:7798   */\n      tag_214\n      tag_91\n      jump\t// in\n    tag_214:\n        /* \"#utility.yul\":7678:7800   */\n    tag_213:\n        /* \"#utility.yul\":7836:7842   */\n      dup2\n        /* \"#utility.yul\":7823:7843   */\n      calldataload\n        /* \"#utility.yul\":7861:7940   */\n      tag_215\n        /* \"#utility.yul\":7936:7939   */\n      dup5\n        /* \"#utility.yul\":7928:7934   */\n      dup3\n        /* \"#utility.yul\":7921:7925   */\n      0x20\n        /* \"#utility.yul\":7913:7919   */\n      dup7\n        /* \"#utility.yul\":7909:7926   */\n      add\n        /* \"#utility.yul\":7861:7940   */\n      tag_98\n      jump\t// in\n    tag_215:\n        /* \"#utility.yul\":7852:7940   */\n      swap2\n      pop\n        /* \"#utility.yul\":7668:7946   */\n      pop\n        /* \"#utility.yul\":7606:7946   */\n      swap3\n      swap2\n      pop\n      pop\n      jump\t// out\n        /* \"#utility.yul\":7952:8461   */\n    tag_28:\n        /* \"#utility.yul\":8021:8027   */\n      0x00\n        /* \"#utility.yul\":8070:8072   */\n      0x20\n        /* \"#utility.yul\":8058:8067   */\n      dup3\n        /* \"#utility.yul\":8049:8056   */\n      dup5\n        /* \"#utility.yul\":8045:8068   */\n      sub\n        /* \"#utility.yul\":8041:8073   */\n      slt\n        /* \"#utility.yul\":8038:8157   */\n      iszero\n      tag_217\n      jumpi\n        /* \"#utility.yul\":8076:8155   */\n      tag_218\n      tag_68\n      jump\t// in\n    tag_218:\n        /* \"#utility.yul\":8038:8157   */\n    tag_217:\n        /* \"#utility.yul\":8224:8225   */\n      0x00\n        /* \"#utility.yul\":8213:8222   */\n      dup3\n        /* \"#utility.yul\":8209:8226   */\n      add\n        /* \"#utility.yul\":8196:8227   */\n      calldataload\n        /* \"#utility.yul\":8254:8272   */\n      0xffffffffffffffff\n        /* \"#utility.yul\":8246:8252   */\n      dup2\n        /* \"#utility.yul\":8243:8273   */\n      gt\n        /* \"#utility.yul\":8240:8357   */\n      iszero\n      tag_219\n      jumpi\n        /* \"#utility.yul\":8276:8355   */\n      tag_220\n      tag_69\n      jump\t// in\n    tag_220:\n        /* \"#utility.yul\":8240:8357   */\n    tag_219:\n        /* \"#utility.yul\":8381:8444   */\n      tag_221\n        /* \"#utility.yul\":8436:8443   */\n      dup5\n        /* \"#utility.yul\":8427:8433   */\n      dup3\n        /* \"#utility.yul\":8416:8425   */\n      dup6\n        /* \"#utility.yul\":8412:8434   */\n      add\n        /* \"#utility.yul\":8381:8444   */\n      tag_99\n      jump\t// in\n    tag_221:\n        /* \"#utility.yul\":8371:8444   */\n      swap2\n      pop\n        /* \"#utility.yul\":8167:8454   */\n      pop\n        /* \"#utility.yul\":7952:8461   */\n      swap3\n      swap2\n      pop\n      pop\n      jump\t// out\n        /* \"#utility.yul\":8467:8638   */\n    tag_100:\n        /* \"#utility.yul\":8607:8630   */\n      0x556e617574686f72697a65642072657669657765720000000000000000000000\n        /* \"#utility.yul\":8603:8604   */\n      0x00\n        /* \"#utility.yul\":8595:8601   */\n      dup3\n        /* \"#utility.yul\":8591:8605   */\n      add\n        /* \"#utility.yul\":8584:8631   */\n      mstore\n        /* \"#utility.yul\":8467:8638   */\n      pop\n      jump\t// out\n        /* \"#utility.yul\":8644:9010   */\n    tag_101:\n        /* \"#utility.yul\":8786:8789   */\n      0x00\n        /* \"#utility.yul\":8807:8874   */\n      tag_224\n        /* \"#utility.yul\":8871:8873   */\n      0x15\n        /* \"#utility.yul\":8866:8869   */\n      dup4\n        /* \"#utility.yul\":8807:8874   */\n      tag_81\n      jump\t// in\n    tag_224:\n        /* \"#utility.yul\":8800:8874   */\n      swap2\n      pop\n        /* \"#utility.yul\":8883:8976   */\n      tag_225\n        /* \"#utility.yul\":8972:8975   */\n      dup3\n        /* \"#utility.yul\":8883:8976   */\n      tag_100\n      jump\t// in\n    tag_225:\n        /* \"#utility.yul\":9001:9003   */\n      0x20\n        /* \"#utility.yul\":8996:8999   */\n      dup3\n        /* \"#utility.yul\":8992:9004   */\n      add\n        /* \"#utility.yul\":8985:9004   */\n      swap1\n      pop\n        /* \"#utility.yul\":8644:9010   */\n      swap2\n      swap1\n      pop\n      jump\t// out\n        /* \"#utility.yul\":9016:9435   */\n    tag_33:\n        /* \"#utility.yul\":9182:9186   */\n      0x00\n        /* \"#utility.yul\":9220:9222   */\n      0x20\n        /* \"#utility.yul\":9209:9218   */\n      dup3\n        /* \"#utility.yul\":9205:9223   */\n      add\n        /* \"#utility.yul\":9197:9223   */\n      swap1\n      pop\n        /* \"#utility.yul\":9269:9278   */\n      dup2\n        /* \"#utility.yul\":9263:9267   */\n      dup2\n        /* \"#utility.yul\":9259:9279   */\n      sub\n        /* \"#utility.yul\":9255:9256   */\n      0x00\n        /* \"#utility.yul\":9244:9253   */\n      dup4\n        /* \"#utility.yul\":9240:9257   */\n      add\n        /* \"#utility.yul\":9233:9280   */\n      mstore\n        /* \"#utility.yul\":9297:9428   */\n      tag_227\n        /* \"#utility.yul\":9423:9427   */\n      dup2\n        /* \"#utility.yul\":9297:9428   */\n      tag_101\n      jump\t// in\n    tag_227:\n        /* \"#utility.yul\":9289:9428   */\n      swap1\n      pop\n        /* \"#utility.yul\":9016:9435   */\n      swap2\n      swap1\n      pop\n      jump\t// out\n        /* \"#utility.yul\":9441:9621   */\n    tag_102:\n        /* \"#utility.yul\":9489:9566   */\n      0x4e487b7100000000000000000000000000000000000000000000000000000000\n        /* \"#utility.yul\":9486:9487   */\n      0x00\n        /* \"#utility.yul\":9479:9567   */\n      mstore\n        /* \"#utility.yul\":9586:9590   */\n      0x22\n        /* \"#utility.yul\":9583:9584   */\n      0x04\n        /* \"#utility.yul\":9576:9591   */\n      mstore\n        /* \"#utility.yul\":9610:9614   */\n      0x24\n        /* \"#utility.yul\":9607:9608   */\n      0x00\n        /* \"#utility.yul\":9600:9615   */\n      revert\n        /* \"#utility.yul\":9627:9947   */\n    tag_42:\n        /* \"#utility.yul\":9671:9677   */\n      0x00\n        /* \"#utility.yul\":9708:9709   */\n      0x02\n        /* \"#utility.yul\":9702:9706   */\n      dup3\n        /* \"#utility.yul\":9698:9710   */\n      div\n        /* \"#utility.yul\":9688:9710   */\n      swap1\n      pop\n        /* \"#utility.yul\":9755:9756   */\n      0x01\n        /* \"#utility.yul\":9749:9753   */\n      dup3\n        /* \"#utility.yul\":9745:9757   */\n      and\n        /* \"#utility.yul\":9776:9794   */\n      dup1\n        /* \"#utility.yul\":9766:9847   */\n      tag_230\n      jumpi\n        /* \"#utility.yul\":9832:9836   */\n      0x7f\n        /* \"#utility.yul\":9824:9830   */\n      dup3\n        /* \"#utility.yul\":9820:9837   */\n      and\n        /* \"#utility.yul\":9810:9837   */\n      swap2\n      pop\n        /* \"#utility.yul\":9766:9847   */\n    tag_230:\n        /* \"#utility.yul\":9894:9896   */\n      0x20\n        /* \"#utility.yul\":9886:9892   */\n      dup3\n        /* \"#utility.yul\":9883:9897   */\n      lt\n        /* \"#utility.yul\":9863:9881   */\n      dup2\n        /* \"#utility.yul\":9860:9898   */\n      sub\n        /* \"#utility.yul\":9857:9941   */\n      tag_231\n      jumpi\n        /* \"#utility.yul\":9913:9931   */\n      tag_232\n      tag_102\n      jump\t// in\n    tag_232:\n        /* \"#utility.yul\":9857:9941   */\n    tag_231:\n        /* \"#utility.yul\":9678:9947   */\n      pop\n        /* \"#utility.yul\":9627:9947   */\n      swap2\n      swap1\n      pop\n      jump\t// out\n        /* \"#utility.yul\":9953:10126   */\n    tag_103:\n        /* \"#utility.yul\":10093:10118   */\n      0x496e76616c696420636f6e747269627574696f6e204944000000000000000000\n        /* \"#utility.yul\":10089:10090   */\n      0x00\n        /* \"#utility.yul\":10081:10087   */\n      dup3\n        /* \"#utility.yul\":10077:10091   */\n      add\n        /* \"#utility.yul\":10070:10119   */\n      mstore\n        /* \"#utility.yul\":9953:10126   */\n      pop\n      jump\t// out\n        /* \"#utility.yul\":10132:10498   */\n    tag_104:\n        /* \"#utility.yul\":10274:10277   */\n      0x00\n        /* \"#utility.yul\":10295:10362   */\n      tag_235\n        /* \"#utility.yul\":10359:10361   */\n      0x17\n        /* \"#utility.yul\":10354:10357   */\n      dup4\n        /* \"#utility.yul\":10295:10362   */\n      tag_81\n      jump\t// in\n    tag_235:\n        /* \"#utility.yul\":10288:10362   */\n      swap2\n      pop\n        /* \"#utility.yul\":10371:10464   */\n      tag_236\n        /* \"#utility.yul\":10460:10463   */\n      dup3\n        /* \"#utility.yul\":10371:10464   */\n      tag_103\n      jump\t// in\n    tag_236:\n        /* \"#utility.yul\":10489:10491   */\n      0x20\n        /* \"#utility.yul\":10484:10487   */\n      dup3\n        /* \"#utility.yul\":10480:10492   */\n      add\n        /* \"#utility.yul\":10473:10492   */\n      swap1\n      pop\n        /* \"#utility.yul\":10132:10498   */\n      swap2\n      swap1\n      pop\n      jump\t// out\n        /* \"#utility.yul\":10504:10923   */\n    tag_54:\n        /* \"#utility.yul\":10670:10674   */\n      0x00\n        /* \"#utility.yul\":10708:10710   */\n      0x20\n        /* \"#utility.yul\":10697:10706   */\n      dup3\n        /* \"#utility.yul\":10693:10711   */\n      add\n        /* \"#utility.yul\":10685:10711   */\n      swap1\n      pop\n        /* \"#utility.yul\":10757:10766   */\n      dup2\n        /* \"#utility.yul\":10751:10755   */\n      dup2\n        /* \"#utility.yul\":10747:10767   */\n      sub\n        /* \"#utility.yul\":10743:10744   */\n      0x00\n        /* \"#utility.yul\":10732:10741   */\n      dup4\n        /* \"#utility.yul\":10728:10745   */\n      add\n        /* \"#utility.yul\":10721:10768   */\n      mstore\n        /* \"#utility.yul\":10785:10916   */\n      tag_238\n        /* \"#utility.yul\":10911:10915   */\n      dup2\n        /* \"#utility.yul\":10785:10916   */\n      tag_104\n      jump\t// in\n    tag_238:\n        /* \"#utility.yul\":10777:10916   */\n      swap1\n      pop\n        /* \"#utility.yul\":10504:10923   */\n      swap2\n      swap1\n      pop\n      jump\t// out\n        /* \"#utility.yul\":10929:11151   */\n    tag_56:\n        /* \"#utility.yul\":11022:11026   */\n      0x00\n        /* \"#utility.yul\":11060:11062   */\n      0x20\n        /* \"#utility.yul\":11049:11058   */\n      dup3\n        /* \"#utility.yul\":11045:11063   */\n      add\n        /* \"#utility.yul\":11037:11063   */\n      swap1\n      pop\n        /* \"#utility.yul\":11073:11144   */\n      tag_240\n        /* \"#utility.yul\":11141:11142   */\n      0x00\n        /* \"#utility.yul\":11130:11139   */\n      dup4\n        /* \"#utility.yul\":11126:11143   */\n      add\n        /* \"#utility.yul\":11117:11123   */\n      dup5\n        /* \"#utility.yul\":11073:11144   */\n      tag_79\n      jump\t// in\n    tag_240:\n        /* \"#utility.yul\":10929:11151   */\n      swap3\n      swap2\n      pop\n      pop\n      jump\t// out\n        /* \"#utility.yul\":11157:11337   */\n    tag_105:\n        /* \"#utility.yul\":11205:11282   */\n      0x4e487b7100000000000000000000000000000000000000000000000000000000\n        /* \"#utility.yul\":11202:11203   */\n      0x00\n        /* \"#utility.yul\":11195:11283   */\n      mstore\n        /* \"#utility.yul\":11302:11306   */\n      0x11\n        /* \"#utility.yul\":11299:11300   */\n      0x04\n        /* \"#utility.yul\":11292:11307   */\n      mstore\n        /* \"#utility.yul\":11326:11330   */\n      0x24\n        /* \"#utility.yul\":11323:11324   */\n      0x00\n        /* \"#utility.yul\":11316:11331   */\n      revert\n        /* \"#utility.yul\":11343:11576   */\n    tag_59:\n        /* \"#utility.yul\":11382:11385   */\n      0x00\n        /* \"#utility.yul\":11405:11429   */\n      tag_243\n        /* \"#utility.yul\":11423:11428   */\n      dup3\n        /* \"#utility.yul\":11405:11429   */\n      tag_70\n      jump\t// in\n    tag_243:\n        /* \"#utility.yul\":11396:11429   */\n      swap2\n      pop\n        /* \"#utility.yul\":11451:11517   */\n      0xffffffffffffffffffffffffffffffffffffffffffffffffffffffffffffffff\n        /* \"#utility.yul\":11444:11449   */\n      dup3\n        /* \"#utility.yul\":11441:11518   */\n      sub\n        /* \"#utility.yul\":11438:11541   */\n      tag_244\n      jumpi\n        /* \"#utility.yul\":11521:11539   */\n      tag_245\n      tag_105\n      jump\t// in\n    tag_245:\n        /* \"#utility.yul\":11438:11541   */\n    tag_244:\n        /* \"#utility.yul\":11568:11569   */\n      0x01\n        /* \"#utility.yul\":11561:11566   */\n      dup3\n        /* \"#utility.yul\":11557:11570   */\n      add\n        /* \"#utility.yul\":11550:11570   */\n      swap1\n      pop\n        /* \"#utility.yul\":11343:11576   */\n      swap2\n      swap1\n      pop\n      jump\t// out\n        /* \"#utility.yul\":11582:11723   */\n    tag_106:\n        /* \"#utility.yul\":11631:11635   */\n      0x00\n        /* \"#utility.yul\":11654:11657   */\n      dup2\n        /* \"#utility.yul\":11646:11657   */\n      swap1\n      pop\n        /* \"#utility.yul\":11677:11680   */\n      dup2\n        /* \"#utility.yul\":11674:11675   */\n      0x00\n        /* \"#utility.yul\":11667:11681   */\n      mstore\n        /* \"#utility.yul\":11711:11715   */\n      0x20\n        /* \"#utility.yul\":11708:11709   */\n      0x00\n        /* \"#utility.yul\":11698:11716   */\n      keccak256\n        /* \"#utility.yul\":11690:11716   */\n      swap1\n      pop\n        /* \"#utility.yul\":11582:11723   */\n      swap2\n      swap1\n      pop\n      jump\t// out\n        /* \"#utility.yul\":11729:11822   */\n    tag_107:\n        /* \"#utility.yul\":11766:11772   */\n      0x00\n        /* \"#utility.yul\":11813:11815   */\n      0x20\n        /* \"#utility.yul\":11808:11810   */\n      0x1f\n        /* \"#utility.yul\":11801:11806   */\n      dup4\n        /* \"#utility.yul\":11797:11811   */\n      add\n        /* \"#utility.yul\":11793:11816   */\n      div\n        /* \"#utility.yul\":11783:11816   */\n      swap1\n      pop\n        /* \"#utility.yul\":11729:11822   */\n      swap2\n      swap1\n      pop\n      jump\t// out\n        /* \"#utility.yul\":11828:11935   */\n    tag_108:\n        /* \"#utility.yul\":11872:11880   */\n      0x00\n        /* \"#utility.yul\":11922:11927   */\n      dup3\n        /* \"#utility.yul\":11916:11920   */\n      dup3\n        /* \"#utility.yul\":11912:11928   */\n      shl\n        /* \"#utility.yul\":11891:11928   */\n      swap1\n      pop\n        /* \"#utility.yul\":11828:11935   */\n      swap3\n      swap2\n      pop\n      pop\n      jump\t// out\n        /* \"#utility.yul\":11941:12334   */\n    tag_109:\n        /* \"#utility.yul\":12010:12016   */\n      0x00\n        /* \"#utility.yul\":12060:12061   */\n      0x08\n        /* \"#utility.yul\":12048:12058   */\n      dup4\n        /* \"#utility.yul\":12044:12062   */\n      mul\n        /* \"#utility.yul\":12083:12180   */\n      tag_250\n        /* \"#utility.yul\":12113:12179   */\n      0xffffffffffffffffffffffffffffffffffffffffffffffffffffffffffffffff\n        /* \"#utility.yul\":12102:12111   */\n      dup3\n        /* \"#utility.yul\":12083:12180   */\n      tag_108\n      jump\t// in\n    tag_250:\n        /* \"#utility.yul\":12201:12240   */\n      tag_251\n        /* \"#utility.yul\":12231:12239   */\n      dup7\n        /* \"#utility.yul\":12220:12229   */\n      dup4\n        /* \"#utility.yul\":12201:12240   */\n      tag_108\n      jump\t// in\n    tag_251:\n        /* \"#utility.yul\":12189:12240   */\n      swap6\n      pop\n        /* \"#utility.yul\":12273:12277   */\n      dup1\n        /* \"#utility.yul\":12269:12278   */\n      not\n        /* \"#utility.yul\":12262:12267   */\n      dup5\n        /* \"#utility.yul\":12258:12279   */\n      and\n        /* \"#utility.yul\":12249:12279   */\n      swap4\n      pop\n        /* \"#utility.yul\":12322:12326   */\n      dup1\n        /* \"#utility.yul\":12312:12320   */\n      dup7\n        /* \"#utility.yul\":12308:12327   */\n      and\n        /* \"#utility.yul\":12301:12306   */\n      dup5\n        /* \"#utility.yul\":12298:12328   */\n      or\n        /* \"#utility.yul\":12288:12328   */\n      swap3\n      pop\n        /* \"#utility.yul\":12017:12334   */\n      pop\n      pop\n        /* \"#utility.yul\":11941:12334   */\n      swap4\n      swap3\n      pop\n      pop\n      pop\n      jump\t// out\n        /* \"#utility.yul\":12340:12400   */\n    tag_110:\n        /* \"#utility.yul\":12368:12371   */\n      0x00\n        /* \"#utility.yul\":12389:12394   */\n      dup2\n        /* \"#utility.yul\":12382:12394   */\n      swap1\n      pop\n        /* \"#utility.yul\":12340:12400   */\n      swap2\n      swap1\n      pop\n      jump\t// out\n        /* \"#utility.yul\":12406:12548   */\n    tag_111:\n        /* \"#utility.yul\":12456:12465   */\n      0x00\n        /* \"#utility.yul\":12489:12542   */\n      tag_254\n        /* \"#utility.yul\":12507:12541   */\n      tag_255\n        /* \"#utility.yul\":12516:12540   */\n      tag_256\n        /* \"#utility.yul\":12534:12539   */\n      dup5\n        /* \"#utility.yul\":12516:12540   */\n      tag_70\n      jump\t// in\n    tag_256:\n        /* \"#utility.yul\":12507:12541   */\n      tag_110\n      jump\t// in\n    tag_255:\n        /* \"#utility.yul\":12489:12542   */\n      tag_70\n      jump\t// in\n    tag_254:\n        /* \"#utility.yul\":12476:12542   */\n      swap1\n      pop\n        /* \"#utility.yul\":12406:12548   */\n      swap2\n      swap1\n      pop\n      jump\t// out\n        /* \"#utility.yul\":12554:12629   */\n    tag_112:\n        /* \"#utility.yul\":12597:12600   */\n      0x00\n        /* \"#utility.yul\":12618:12623   */\n      dup2\n        /* \"#utility.yul\":12611:12623   */\n      swap1\n      pop\n        /* \"#utility.yul\":12554:12629   */\n      swap2\n      swap1\n      pop\n      jump\t// out\n        /* \"#utility.yul\":12635:12904   */\n    tag_113:\n        /* \"#utility.yul\":12745:12784   */\n      tag_259\n        /* \"#utility.yul\":12776:12783   */\n      dup4\n        /* \"#utility.yul\":12745:12784   */\n      tag_111\n      jump\t// in\n    tag_259:\n        /* \"#utility.yul\":12806:12897   */\n      tag_260\n        /* \"#utility.yul\":12855:12896   */\n      tag_261\n        /* \"#utility.yul\":12879:12895   */\n      dup3\n        /* \"#utility.yul\":12855:12896   */\n      tag_112\n      jump\t// in\n    tag_261:\n        /* \"#utility.yul\":12847:12853   */\n      dup5\n        /* \"#utility.yul\":12840:12844   */\n      dup5\n        /* \"#utility.yul\":12834:12845   */\n      sload\n        /* \"#utility.yul\":12806:12897   */\n      tag_109\n      jump\t// in\n    tag_260:\n        /* \"#utility.yul\":12800:12804   */\n      dup3\n        /* \"#utility.yul\":12793:12898   */\n      sstore\n        /* \"#utility.yul\":12711:12904   */\n      pop\n        /* \"#utility.yul\":12635:12904   */\n      pop\n      pop\n      pop\n      jump\t// out\n        /* \"#utility.yul\":12910:12983   */\n    tag_114:\n        /* \"#utility.yul\":12955:12958   */\n      0x00\n        /* \"#utility.yul\":12910:12983   */\n      swap1\n      jump\t// out\n        /* \"#utility.yul\":12989:13178   */\n    tag_115:\n        /* \"#utility.yul\":13066:13098   */\n      tag_264\n      tag_114\n      jump\t// in\n    tag_264:\n        /* \"#utility.yul\":13107:13172   */\n      tag_265\n        /* \"#utility.yul\":13165:13171   */\n      dup2\n        /* \"#utility.yul\":13157:13163   */\n      dup5\n        /* \"#utility.yul\":13151:13155   */\n      dup5\n        /* \"#utility.yul\":13107:13172   */\n      tag_113\n      jump\t// in\n    tag_265:\n        /* \"#utility.yul\":13042:13178   */\n      pop\n        /* \"#utility.yul\":12989:13178   */\n      pop\n      pop\n      jump\t// out\n        /* \"#utility.yul\":13184:13370   */\n    tag_116:\n        /* \"#utility.yul\":13244:13364   */\n    tag_267:\n        /* \"#utility.yul\":13261:13264   */\n      dup2\n        /* \"#utility.yul\":13254:13259   */\n      dup2\n        /* \"#utility.yul\":13251:13265   */\n      lt\n        /* \"#utility.yul\":13244:13364   */\n      iszero\n      tag_269\n      jumpi\n        /* \"#utility.yul\":13315:13354   */\n      tag_270\n        /* \"#utility.yul\":13352:13353   */\n      0x00\n        /* \"#utility.yul\":13345:13350   */\n      dup3\n        /* \"#utility.yul\":13315:13354   */\n      tag_115\n      jump\t// in\n    tag_270:\n        /* \"#utility.yul\":13288:13289   */\n      0x01\n        /* \"#utility.yul\":13281:13286   */\n      dup2\n        /* \"#utility.yul\":13277:13290   */\n      add\n        /* \"#utility.yul\":13268:13290   */\n      swap1\n      pop\n        /* \"#utility.yul\":13244:13364   */\n      jump(tag_267)\n    tag_269:\n        /* \"#utility.yul\":13184:13370   */\n      pop\n      pop\n      jump\t// out\n        /* \"#utility.yul\":13376:13919   */\n    tag_117:\n        /* \"#utility.yul\":13477:13479   */\n      0x1f\n        /* \"#utility.yul\":13472:13475   */\n      dup3\n        /* \"#utility.yul\":13469:13480   */\n      gt\n        /* \"#utility.yul\":13466:13912   */\n      iszero\n      tag_272\n      jumpi\n        /* \"#utility.yul\":13511:13549   */\n      tag_273\n        /* \"#utility.yul\":13543:13548   */\n      dup2\n        /* \"#utility.yul\":13511:13549   */\n      tag_106\n      jump\t// in\n    tag_273:\n        /* \"#utility.yul\":13595:13624   */\n      tag_274\n        /* \"#utility.yul\":13613:13623   */\n      dup5\n        /* \"#utility.yul\":13595:13624   */\n      tag_107\n      jump\t// in\n    tag_274:\n        /* \"#utility.yul\":13585:13593   */\n      dup2\n        /* \"#utility.yul\":13581:13625   */\n      add\n        /* \"#utility.yul\":13778:13780   */\n      0x20\n        /* \"#utility.yul\":13766:13776   */\n      dup6\n        /* \"#utility.yul\":13763:13781   */\n      lt\n        /* \"#utility.yul\":13760:13809   */\n      iszero\n      tag_275\n      jumpi\n        /* \"#utility.yul\":13799:13807   */\n      dup2\n        /* \"#utility.yul\":13784:13807   */\n      swap1\n      pop\n        /* \"#utility.yul\":13760:13809   */\n    tag_275:\n        /* \"#utility.yul\":13822:13902   */\n      tag_276\n        /* \"#utility.yul\":13878:13900   */\n      tag_277\n        /* \"#utility.yul\":13896:13899   */\n      dup6\n        /* \"#utility.yul\":13878:13900   */\n      tag_107\n      jump\t// in\n    tag_277:\n        /* \"#utility.yul\":13868:13876   */\n      dup4\n        /* \"#utility.yul\":13864:13901   */\n      add\n        /* \"#utility.yul\":13851:13862   */\n      dup3\n        /* \"#utility.yul\":13822:13902   */\n      tag_116\n      jump\t// in\n    tag_276:\n        /* \"#utility.yul\":13481:13912   */\n      pop\n      pop\n        /* \"#utility.yul\":13466:13912   */\n    tag_272:\n        /* \"#utility.yul\":13376:13919   */\n      pop\n      pop\n      pop\n      jump\t// out\n        /* \"#utility.yul\":13925:14042   */\n    tag_118:\n        /* \"#utility.yul\":13979:13987   */\n      0x00\n        /* \"#utility.yul\":14029:14034   */\n      dup3\n        /* \"#utility.yul\":14023:14027   */\n      dup3\n        /* \"#utility.yul\":14019:14035   */\n      shr\n        /* \"#utility.yul\":13998:14035   */\n      swap1\n      pop\n        /* \"#utility.yul\":13925:14042   */\n      swap3\n      swap2\n      pop\n      pop\n      jump\t// out\n        /* \"#utility.yul\":14048:14217   */\n    tag_119:\n        /* \"#utility.yul\":14092:14098   */\n      0x00\n        /* \"#utility.yul\":14125:14176   */\n      tag_280\n        /* \"#utility.yul\":14173:14174   */\n      0x00\n        /* \"#utility.yul\":14169:14175   */\n      not\n        /* \"#utility.yul\":14161:14166   */\n      dup5\n        /* \"#utility.yul\":14158:14159   */\n      0x08\n        /* \"#utility.yul\":14154:14167   */\n      mul\n        /* \"#utility.yul\":14125:14176   */\n      tag_118\n      jump\t// in\n    tag_280:\n        /* \"#utility.yul\":14121:14177   */\n      not\n        /* \"#utility.yul\":14206:14210   */\n      dup1\n        /* \"#utility.yul\":14200:14204   */\n      dup4\n        /* \"#utility.yul\":14196:14211   */\n      and\n        /* \"#utility.yul\":14186:14211   */\n      swap2\n      pop\n        /* \"#utility.yul\":14099:14217   */\n      pop\n        /* \"#utility.yul\":14048:14217   */\n      swap3\n      swap2\n      pop\n      pop\n      jump\t// out\n        /* \"#utility.yul\":14222:14517   */\n    tag_120:\n        /* \"#utility.yul\":14298:14302   */\n      0x00\n        /* \"#utility.yul\":14444:14473   */\n      tag_282\n        /* \"#utility.yul\":14469:14472   */\n      dup4\n        /* \"#utility.yul\":14463:14467   */\n      dup4\n        /* \"#utility.yul\":14444:14473   */\n      tag_119\n      jump\t// in\n    tag_282:\n        /* \"#utility.yul\":14436:14473   */\n      swap2\n      pop\n        /* \"#utility.yul\":14506:14509   */\n      dup3\n        /* \"#utility.yul\":14503:14504   */\n      0x02\n        /* \"#utility.yul\":14499:14510   */\n      mul\n        /* \"#utility.yul\":14493:14497   */\n      dup3\n        /* \"#utility.yul\":14490:14511   */\n      or\n        /* \"#utility.yul\":14482:14511   */\n      swap1\n      pop\n        /* \"#utility.yul\":14222:14517   */\n      swap3\n      swap2\n      pop\n      pop\n      jump\t// out\n        /* \"#utility.yul\":14522:15917   */\n    tag_63:\n        /* \"#utility.yul\":14639:14676   */\n      tag_284\n        /* \"#utility.yul\":14672:14675   */\n      dup3\n        /* \"#utility.yul\":14639:14676   */\n      tag_80\n      jump\t// in\n    tag_284:\n        /* \"#utility.yul\":14741:14759   */\n      0xffffffffffffffff\n        /* \"#utility.yul\":14733:14739   */\n      dup2\n        /* \"#utility.yul\":14730:14760   */\n      gt\n        /* \"#utility.yul\":14727:14783   */\n      iszero\n      tag_285\n      jumpi\n        /* \"#utility.yul\":14763:14781   */\n      tag_286\n      tag_93\n      jump\t// in\n    tag_286:\n        /* \"#utility.yul\":14727:14783   */\n    tag_285:\n        /* \"#utility.yul\":14807:14845   */\n      tag_287\n        /* \"#utility.yul\":14839:14843   */\n      dup3\n        /* \"#utility.yul\":14833:14844   */\n      sload\n        /* \"#utility.yul\":14807:14845   */\n      tag_42\n      jump\t// in\n    tag_287:\n        /* \"#utility.yul\":14892:14959   */\n      tag_288\n        /* \"#utility.yul\":14952:14958   */\n      dup3\n        /* \"#utility.yul\":14944:14950   */\n      dup3\n        /* \"#utility.yul\":14938:14942   */\n      dup6\n        /* \"#utility.yul\":14892:14959   */\n      tag_117\n      jump\t// in\n    tag_288:\n        /* \"#utility.yul\":14986:14987   */\n      0x00\n        /* \"#utility.yul\":15010:15014   */\n      0x20\n        /* \"#utility.yul\":14997:15014   */\n      swap1\n      pop\n        /* \"#utility.yul\":15042:15044   */\n      0x1f\n        /* \"#utility.yul\":15034:15040   */\n      dup4\n        /* \"#utility.yul\":15031:15045   */\n      gt\n        /* \"#utility.yul\":15059:15060   */\n      0x01\n        /* \"#utility.yul\":15054:15672   */\n      dup2\n      eq\n      tag_290\n      jumpi\n        /* \"#utility.yul\":15716:15717   */\n      0x00\n        /* \"#utility.yul\":15733:15739   */\n      dup5\n        /* \"#utility.yul\":15730:15807   */\n      iszero\n      tag_291\n      jumpi\n        /* \"#utility.yul\":15782:15791   */\n      dup3\n        /* \"#utility.yul\":15777:15780   */\n      dup8\n        /* \"#utility.yul\":15773:15792   */\n      add\n        /* \"#utility.yul\":15767:15793   */\n      mload\n        /* \"#utility.yul\":15758:15793   */\n      swap1\n      pop\n        /* \"#utility.yul\":15730:15807   */\n    tag_291:\n        /* \"#utility.yul\":15833:15900   */\n      tag_292\n        /* \"#utility.yul\":15893:15899   */\n      dup6\n        /* \"#utility.yul\":15886:15891   */\n      dup3\n        /* \"#utility.yul\":15833:15900   */\n      tag_120\n      jump\t// in\n    tag_292:\n        /* \"#utility.yul\":15827:15831   */\n      dup7\n        /* \"#utility.yul\":15820:15901   */\n      sstore\n        /* \"#utility.yul\":15689:15911   */\n      pop\n        /* \"#utility.yul\":15024:15911   */\n      jump(tag_289)\n        /* \"#utility.yul\":15054:15672   */\n    tag_290:\n        /* \"#utility.yul\":15106:15110   */\n      0x1f\n        /* \"#utility.yul\":15102:15111   */\n      not\n        /* \"#utility.yul\":15094:15100   */\n      dup5\n        /* \"#utility.yul\":15090:15112   */\n      and\n        /* \"#utility.yul\":15140:15177   */\n      tag_293\n        /* \"#utility.yul\":15172:15176   */\n      dup7\n        /* \"#utility.yul\":15140:15177   */\n      tag_106\n      jump\t// in\n    tag_293:\n        /* \"#utility.yul\":15199:15200   */\n      0x00\n        /* \"#utility.yul\":15213:15421   */\n    tag_294:\n        /* \"#utility.yul\":15227:15234   */\n      dup3\n        /* \"#utility.yul\":15224:15225   */\n      dup2\n        /* \"#utility.yul\":15221:15235   */\n      lt\n        /* \"#utility.yul\":15213:15421   */\n      iszero\n      tag_296\n      jumpi\n        /* \"#utility.yul\":15306:15315   */\n      dup5\n        /* \"#utility.yul\":15301:15304   */\n      dup10\n        /* \"#utility.yul\":15297:15316   */\n      add\n        /* \"#utility.yul\":15291:15317   */\n      mload\n        /* \"#utility.yul\":15283:15289   */\n      dup3\n        /* \"#utility.yul\":15276:15318   */\n      sstore\n        /* \"#utility.yul\":15357:15358   */\n      0x01\n        /* \"#utility.yul\":15349:15355   */\n      dup3\n        /* \"#utility.yul\":15345:15359   */\n      add\n        /* \"#utility.yul\":15335:15359   */\n      swap2\n      pop\n        /* \"#utility.yul\":15404:15406   */\n      0x20\n        /* \"#utility.yul\":15393:15402   */\n      dup6\n        /* \"#utility.yul\":15389:15407   */\n      add\n        /* \"#utility.yul\":15376:15407   */\n      swap5\n      pop\n        /* \"#utility.yul\":15250:15254   */\n      0x20\n        /* \"#utility.yul\":15247:15248   */\n      dup2\n        /* \"#utility.yul\":15243:15255   */\n      add\n        /* \"#utility.yul\":15238:15255   */\n      swap1\n      pop\n        /* \"#utility.yul\":15213:15421   */\n      jump(tag_294)\n    tag_296:\n        /* \"#utility.yul\":15449:15455   */\n      dup7\n        /* \"#utility.yul\":15440:15447   */\n      dup4\n        /* \"#utility.yul\":15437:15456   */\n      lt\n        /* \"#utility.yul\":15434:15613   */\n      iszero\n      tag_297\n      jumpi\n        /* \"#utility.yul\":15507:15516   */\n      dup5\n        /* \"#utility.yul\":15502:15505   */\n      dup10\n        /* \"#utility.yul\":15498:15517   */\n      add\n        /* \"#utility.yul\":15492:15518   */\n      mload\n        /* \"#utility.yul\":15550:15598   */\n      tag_298\n        /* \"#utility.yul\":15592:15596   */\n      0x1f\n        /* \"#utility.yul\":15584:15590   */\n      dup10\n        /* \"#utility.yul\":15580:15597   */\n      and\n        /* \"#utility.yul\":15569:15578   */\n      dup3\n        /* \"#utility.yul\":15550:15598   */\n      tag_119\n      jump\t// in\n    tag_298:\n        /* \"#utility.yul\":15542:15548   */\n      dup4\n        /* \"#utility.yul\":15535:15599   */\n      sstore\n        /* \"#utility.yul\":15457:15613   */\n      pop\n        /* \"#utility.yul\":15434:15613   */\n    tag_297:\n        /* \"#utility.yul\":15659:15660   */\n      0x01\n        /* \"#utility.yul\":15655:15656   */\n      0x02\n        /* \"#utility.yul\":15647:15653   */\n      dup9\n        /* \"#utility.yul\":15643:15657   */\n      mul\n        /* \"#utility.yul\":15639:15661   */\n      add\n        /* \"#utility.yul\":15633:15637   */\n      dup9\n        /* \"#utility.yul\":15626:15662   */\n      sstore\n        /* \"#utility.yul\":15061:15672   */\n      pop\n      pop\n      pop\n        /* \"#utility.yul\":15024:15911   */\n    tag_289:\n      pop\n        /* \"#utility.yul\":14614:15917   */\n      pop\n      pop\n      pop\n        /* \"#utility.yul\":14522:15917   */\n      pop\n      pop\n      jump\t// out\n\n    auxdata: 0xa2646970667358221220033d940656b92707b37bce231007a05ade3a8b7498cdab6fa6a3a7601b29704164736f6c634300081a0033\n}\n",
				"bytecode": {
					"linkReferences": {},
					"object": "6080604052348015600e575f80fd5b50610f258061001c5f395ff3fe608060405234801561000f575f80fd5b5060043610610055575f3560e01c80631a3bfd6c146100595780631cee07001461007557806345bead42146100aa5780639c2f0bd9146100c6578063fc746cde146100e4575b5f80fd5b610073600480360381019061006e91906106d5565b610100565b005b61008f600480360381019061008a9190610713565b610281565b6040516100a19695949392919061086f565b60405180910390f35b6100c460048036038101906100bf91906108ff565b610389565b005b6100ce61049c565b6040516100db919061093d565b60405180910390f35b6100fe60048036038101906100f99190610a82565b6104a2565b005b5f808381526020019081526020015f2060030160019054906101000a900473ffffffffffffffffffffffffffffffffffffffff1673ffffffffffffffffffffffffffffffffffffffff163373ffffffffffffffffffffffffffffffffffffffff16146101a1576040517f08c379a000000000000000000000000000000000000000000000000000000000815260040161019890610b13565b60405180910390fd5b80156102145760015f808481526020019081526020015f206003015f6101000a81548160ff021916908360028111156101dd576101dc6107fc565b5b0217905550817f67e3f306a4e9b799b258a57c1900826334c32acd432cceacaa4cda9b7f69b67c60405160405180910390a261027d565b60025f808481526020019081526020015f206003015f6101000a81548160ff0219169083600281111561024a576102496107fc565b5b0217905550817f3a97f8489ee122245ae2b2dbc749616b4f05bb5eb04a81d4a8702747a51c716960405160405180910390a25b5050565b5f602052805f5260405f205f91509050805f015490806001015f9054906101000a900473ffffffffffffffffffffffffffffffffffffffff16908060020180546102ca90610b5e565b80601f01602080910402602001604051908101604052809291908181526020018280546102f690610b5e565b80156103415780601f1061031857610100808354040283529160200191610341565b820191905f5260205f20905b81548152906001019060200180831161032457829003601f168201915b505050505090806003015f9054906101000a900460ff16908060030160019054906101000a900473ffffffffffffffffffffffffffffffffffffffff16908060040154905086565b5f600281111561039c5761039b6107fc565b5b5f808481526020019081526020015f206003015f9054906101000a900460ff1660028111156103ce576103cd6107fc565b5b1461040e576040517f08c379a000000000000000000000000000000000000000000000000000000000815260040161040590610bd8565b60405180910390fd5b805f808481526020019081526020015f2060030160016101000a81548173ffffffffffffffffffffffffffffffffffffffff021916908373ffffffffffffffffffffffffffffffffffffffff160217905550817f21d47e859f1599514906a2e7206eb97b919ddaf74e83d2b72d5b89f94dcfbe73826040516104909190610bf6565b60405180910390a25050565b60015481565b60015f8154809291906104b490610c3c565b91905055506040518060c0016040528060015481526020013373ffffffffffffffffffffffffffffffffffffffff1681526020018281526020015f6002811115610501576105006107fc565b5b81526020015f73ffffffffffffffffffffffffffffffffffffffff168152602001428152505f8060015481526020019081526020015f205f820151815f01556020820151816001015f6101000a81548173ffffffffffffffffffffffffffffffffffffffff021916908373ffffffffffffffffffffffffffffffffffffffff160217905550604082015181600201908161059b9190610e20565b506060820151816003015f6101000a81548160ff021916908360028111156105c6576105c56107fc565b5b021790555060808201518160030160016101000a81548173ffffffffffffffffffffffffffffffffffffffff021916908373ffffffffffffffffffffffffffffffffffffffff16021790555060a082015181600401559050506001547fb0c99dd08ffba1468281ef4374edbccb9f01701627960a3c8a1128a32106c8dc336040516106519190610bf6565b60405180910390a250565b5f604051905090565b5f80fd5b5f80fd5b5f819050919050565b61067f8161066d565b8114610689575f80fd5b50565b5f8135905061069a81610676565b92915050565b5f8115159050919050565b6106b4816106a0565b81146106be575f80fd5b50565b5f813590506106cf816106ab565b92915050565b5f80604083850312156106eb576106ea610665565b5b5f6106f88582860161068c565b9250506020610709858286016106c1565b9150509250929050565b5f6020828403121561072857610727610665565b5b5f6107358482850161068c565b91505092915050565b6107478161066d565b82525050565b5f73ffffffffffffffffffffffffffffffffffffffff82169050919050565b5f6107768261074d565b9050919050565b6107868161076c565b82525050565b5f81519050919050565b5f82825260208201905092915050565b8281835e5f83830152505050565b5f601f19601f8301169050919050565b5f6107ce8261078c565b6107d88185610796565b93506107e88185602086016107a6565b6107f1816107b4565b840191505092915050565b7f4e487b71000000000000000000000000000000000000000000000000000000005f52602160045260245ffd5b6003811061083a576108396107fc565b5b50565b5f81905061084a82610829565b919050565b5f6108598261083d565b9050919050565b6108698161084f565b82525050565b5f60c0820190506108825f83018961073e565b61088f602083018861077d565b81810360408301526108a181876107c4565b90506108b06060830186610860565b6108bd608083018561077d565b6108ca60a083018461073e565b979650505050505050565b6108de8161076c565b81146108e8575f80fd5b50565b5f813590506108f9816108d5565b92915050565b5f806040838503121561091557610914610665565b5b5f6109228582860161068c565b9250506020610933858286016108eb565b9150509250929050565b5f6020820190506109505f83018461073e565b92915050565b5f80fd5b5f80fd5b7f4e487b71000000000000000000000000000000000000000000000000000000005f52604160045260245ffd5b610994826107b4565b810181811067ffffffffffffffff821117156109b3576109b261095e565b5b80604052505050565b5f6109c561065c565b90506109d1828261098b565b919050565b5f67ffffffffffffffff8211156109f0576109ef61095e565b5b6109f9826107b4565b9050602081019050919050565b828183375f83830152505050565b5f610a26610a21846109d6565b6109bc565b905082815260208101848484011115610a4257610a4161095a565b5b610a4d848285610a06565b509392505050565b5f82601f830112610a6957610a68610956565b5b8135610a79848260208601610a14565b91505092915050565b5f60208284031215610a9757610a96610665565b5b5f82013567ffffffffffffffff811115610ab457610ab3610669565b5b610ac084828501610a55565b91505092915050565b7f556e617574686f72697a656420726576696577657200000000000000000000005f82015250565b5f610afd601583610796565b9150610b0882610ac9565b602082019050919050565b5f6020820190508181035f830152610b2a81610af1565b9050919050565b7f4e487b71000000000000000000000000000000000000000000000000000000005f52602260045260245ffd5b5f6002820490506001821680610b7557607f821691505b602082108103610b8857610b87610b31565b5b50919050565b7f496e76616c696420636f6e747269627574696f6e2049440000000000000000005f82015250565b5f610bc2601783610796565b9150610bcd82610b8e565b602082019050919050565b5f6020820190508181035f830152610bef81610bb6565b9050919050565b5f602082019050610c095f83018461077d565b92915050565b7f4e487b71000000000000000000000000000000000000000000000000000000005f52601160045260245ffd5b5f610c468261066d565b91507fffffffffffffffffffffffffffffffffffffffffffffffffffffffffffffffff8203610c7857610c77610c0f565b5b600182019050919050565b5f819050815f5260205f209050919050565b5f6020601f8301049050919050565b5f82821b905092915050565b5f60088302610cdf7fffffffffffffffffffffffffffffffffffffffffffffffffffffffffffffffff82610ca4565b610ce98683610ca4565b95508019841693508086168417925050509392505050565b5f819050919050565b5f610d24610d1f610d1a8461066d565b610d01565b61066d565b9050919050565b5f819050919050565b610d3d83610d0a565b610d51610d4982610d2b565b848454610cb0565b825550505050565b5f90565b610d65610d59565b610d70818484610d34565b505050565b5b81811015610d9357610d885f82610d5d565b600181019050610d76565b5050565b601f821115610dd857610da981610c83565b610db284610c95565b81016020851015610dc1578190505b610dd5610dcd85610c95565b830182610d75565b50505b505050565b5f82821c905092915050565b5f610df85f1984600802610ddd565b1980831691505092915050565b5f610e108383610de9565b9150826002028217905092915050565b610e298261078c565b67ffffffffffffffff811115610e4257610e4161095e565b5b610e4c8254610b5e565b610e57828285610d97565b5f60209050601f831160018114610e88575f8415610e76578287015190505b610e808582610e05565b865550610ee7565b601f198416610e9686610c83565b5f5b82811015610ebd57848901518255600182019150602085019450602081019050610e98565b86831015610eda5784890151610ed6601f891682610de9565b8355505b6001600288020188555050505b50505050505056fea2646970667358221220033d940656b92707b37bce231007a05ade3a8b7498cdab6fa6a3a7601b29704164736f6c634300081a0033",
					"opcodes": "PUSH1 0x80 PUSH1 0x40 MSTORE CALLVALUE DUP1 ISZERO PUSH1 0xE JUMPI PUSH0 DUP1 REVERT JUMPDEST POP PUSH2 0xF25 DUP1 PUSH2 0x1C PUSH0 CODECOPY PUSH0 RETURN INVALID PUSH1 0x80 PUSH1 0x40 MSTORE CALLVALUE DUP1 ISZERO PUSH2 0xF JUMPI PUSH0 DUP1 REVERT JUMPDEST POP PUSH1 0x4 CALLDATASIZE LT PUSH2 0x55 JUMPI PUSH0 CALLDATALOAD PUSH1 0xE0 SHR DUP1 PUSH4 0x1A3BFD6C EQ PUSH2 0x59 JUMPI DUP1 PUSH4 0x1CEE0700 EQ PUSH2 0x75 JUMPI DUP1 PUSH4 0x45BEAD42 EQ PUSH2 0xAA JUMPI DUP1 PUSH4 0x9C2F0BD9 EQ PUSH2 0xC6 JUMPI DUP1 PUSH4 0xFC746CDE EQ PUSH2 0xE4 JUMPI JUMPDEST PUSH0 DUP1 REVERT JUMPDEST PUSH2 0x73 PUSH1 0x4 DUP1 CALLDATASIZE SUB DUP2 ADD SWAP1 PUSH2 0x6E SWAP2 SWAP1 PUSH2 0x6D5 JUMP JUMPDEST PUSH2 0x100 JUMP JUMPDEST STOP JUMPDEST PUSH2 0x8F PUSH1 0x4 DUP1 CALLDATASIZE SUB DUP2 ADD SWAP1 PUSH2 0x8A SWAP2 SWAP1 PUSH2 0x713 JUMP JUMPDEST PUSH2 0x281 JUMP JUMPDEST PUSH1 0x40 MLOAD PUSH2 0xA1 SWAP7 SWAP6 SWAP5 SWAP4 SWAP3 SWAP2 SWAP1 PUSH2 0x86F JUMP JUMPDEST PUSH1 0x40 MLOAD DUP1 SWAP2 SUB SWAP1 RETURN JUMPDEST PUSH2 0xC4 PUSH1 0x4 DUP1 CALLDATASIZE SUB DUP2 ADD SWAP1 PUSH2 0xBF SWAP2 SWAP1 PUSH2 0x8FF JUMP JUMPDEST PUSH2 0x389 JUMP JUMPDEST STOP JUMPDEST PUSH2 0xCE PUSH2 0x49C JUMP JUMPDEST PUSH1 0x40 MLOAD PUSH2 0xDB SWAP2 SWAP1 PUSH2 0x93D JUMP JUMPDEST PUSH1 0x40 MLOAD DUP1 SWAP2 SUB SWAP1 RETURN JUMPDEST PUSH2 0xFE PUSH1 0x4 DUP1 CALLDATASIZE SUB DUP2 ADD SWAP1 PUSH2 0xF9 SWAP2 SWAP1 PUSH2 0xA82 JUMP JUMPDEST PUSH2 0x4A2 JUMP JUMPDEST STOP JUMPDEST PUSH0 DUP1 DUP4 DUP2 MSTORE PUSH1 0x20 ADD SWAP1 DUP2 MSTORE PUSH1 0x20 ADD PUSH0 KECCAK256 PUSH1 0x3 ADD PUSH1 0x1 SWAP1 SLOAD SWAP1 PUSH2 0x100 EXP SWAP1 DIV PUSH20 0xFFFFFFFFFFFFFFFFFFFFFFFFFFFFFFFFFFFFFFFF AND PUSH20 0xFFFFFFFFFFFFFFFFFFFFFFFFFFFFFFFFFFFFFFFF AND CALLER PUSH20 0xFFFFFFFFFFFFFFFFFFFFFFFFFFFFFFFFFFFFFFFF AND EQ PUSH2 0x1A1 JUMPI PUSH1 0x40 MLOAD PUSH32 0x8C379A000000000000000000000000000000000000000000000000000000000 DUP2 MSTORE PUSH1 0x4 ADD PUSH2 0x198 SWAP1 PUSH2 0xB13 JUMP JUMPDEST PUSH1 0x40 MLOAD DUP1 SWAP2 SUB SWAP1 REVERT JUMPDEST DUP1 ISZERO PUSH2 0x214 JUMPI PUSH1 0x1 PUSH0 DUP1 DUP5 DUP2 MSTORE PUSH1 0x20 ADD SWAP1 DUP2 MSTORE PUSH1 0x20 ADD PUSH0 KECCAK256 PUSH1 0x3 ADD PUSH0 PUSH2 0x100 EXP DUP2 SLOAD DUP2 PUSH1 0xFF MUL NOT AND SWAP1 DUP4 PUSH1 0x2 DUP2 GT ISZERO PUSH2 0x1DD JUMPI PUSH2 0x1DC PUSH2 0x7FC JUMP JUMPDEST JUMPDEST MUL OR SWAP1 SSTORE POP DUP2 PUSH32 0x67E3F306A4E9B799B258A57C1900826334C32ACD432CCEACAA4CDA9B7F69B67C PUSH1 0x40 MLOAD PUSH1 0x40 MLOAD DUP1 SWAP2 SUB SWAP1 LOG2 PUSH2 0x27D JUMP JUMPDEST PUSH1 0x2 PUSH0 DUP1 DUP5 DUP2 MSTORE PUSH1 0x20 ADD SWAP1 DUP2 MSTORE PUSH1 0x20 ADD PUSH0 KECCAK256 PUSH1 0x3 ADD PUSH0 PUSH2 0x100 EXP DUP2 SLOAD DUP2 PUSH1 0xFF MUL NOT AND SWAP1 DUP4 PUSH1 0x2 DUP2 GT ISZERO PUSH2 0x24A JUMPI PUSH2 0x249 PUSH2 0x7FC JUMP JUMPDEST JUMPDEST MUL OR SWAP1 SSTORE POP DUP2 PUSH32 0x3A97F8489EE122245AE2B2DBC749616B4F05BB5EB04A81D4A8702747A51C7169 PUSH1 0x40 MLOAD PUSH1 0x40 MLOAD DUP1 SWAP2 SUB SWAP1 LOG2 JUMPDEST POP POP JUMP JUMPDEST PUSH0 PUSH1 0x20 MSTORE DUP1 PUSH0 MSTORE PUSH1 0x40 PUSH0 KECCAK256 PUSH0 SWAP2 POP SWAP1 POP DUP1 PUSH0 ADD SLOAD SWAP1 DUP1 PUSH1 0x1 ADD PUSH0 SWAP1 SLOAD SWAP1 PUSH2 0x100 EXP SWAP1 DIV PUSH20 0xFFFFFFFFFFFFFFFFFFFFFFFFFFFFFFFFFFFFFFFF AND SWAP1 DUP1 PUSH1 0x2 ADD DUP1 SLOAD PUSH2 0x2CA SWAP1 PUSH2 0xB5E JUMP JUMPDEST DUP1 PUSH1 0x1F ADD PUSH1 0x20 DUP1 SWAP2 DIV MUL PUSH1 0x20 ADD PUSH1 0x40 MLOAD SWAP1 DUP2 ADD PUSH1 0x40 MSTORE DUP1 SWAP3 SWAP2 SWAP1 DUP2 DUP2 MSTORE PUSH1 0x20 ADD DUP3 DUP1 SLOAD PUSH2 0x2F6 SWAP1 PUSH2 0xB5E JUMP JUMPDEST DUP1 ISZERO PUSH2 0x341 JUMPI DUP1 PUSH1 0x1F LT PUSH2 0x318 JUMPI PUSH2 0x100 DUP1 DUP4 SLOAD DIV MUL DUP4 MSTORE SWAP2 PUSH1 0x20 ADD SWAP2 PUSH2 0x341 JUMP JUMPDEST DUP3 ADD SWAP2 SWAP1 PUSH0 MSTORE PUSH1 0x20 PUSH0 KECCAK256 SWAP1 JUMPDEST DUP2 SLOAD DUP2 MSTORE SWAP1 PUSH1 0x1 ADD SWAP1 PUSH1 0x20 ADD DUP1 DUP4 GT PUSH2 0x324 JUMPI DUP3 SWAP1 SUB PUSH1 0x1F AND DUP3 ADD SWAP2 JUMPDEST POP POP POP POP POP SWAP1 DUP1 PUSH1 0x3 ADD PUSH0 SWAP1 SLOAD SWAP1 PUSH2 0x100 EXP SWAP1 DIV PUSH1 0xFF AND SWAP1 DUP1 PUSH1 0x3 ADD PUSH1 0x1 SWAP1 SLOAD SWAP1 PUSH2 0x100 EXP SWAP1 DIV PUSH20 0xFFFFFFFFFFFFFFFFFFFFFFFFFFFFFFFFFFFFFFFF AND SWAP1 DUP1 PUSH1 0x4 ADD SLOAD SWAP1 POP DUP7 JUMP JUMPDEST PUSH0 PUSH1 0x2 DUP2 GT ISZERO PUSH2 0x39C JUMPI PUSH2 0x39B PUSH2 0x7FC JUMP JUMPDEST JUMPDEST PUSH0 DUP1 DUP5 DUP2 MSTORE PUSH1 0x20 ADD SWAP1 DUP2 MSTORE PUSH1 0x20 ADD PUSH0 KECCAK256 PUSH1 0x3 ADD PUSH0 SWAP1 SLOAD SWAP1 PUSH2 0x100 EXP SWAP1 DIV PUSH1 0xFF AND PUSH1 0x2 DUP2 GT ISZERO PUSH2 0x3CE JUMPI PUSH2 0x3CD PUSH2 0x7FC JUMP JUMPDEST JUMPDEST EQ PUSH2 0x40E JUMPI PUSH1 0x40 MLOAD PUSH32 0x8C379A000000000000000000000000000000000000000000000000000000000 DUP2 MSTORE PUSH1 0x4 ADD PUSH2 0x405 SWAP1 PUSH2 0xBD8 JUMP JUMPDEST PUSH1 0x40 MLOAD DUP1 SWAP2 SUB SWAP1 REVERT JUMPDEST DUP1 PUSH0 DUP1 DUP5 DUP2 MSTORE PUSH1 0x20 ADD SWAP1 DUP2 MSTORE PUSH1 0x20 ADD PUSH0 KECCAK256 PUSH1 0x3 ADD PUSH1 0x1 PUSH2 0x100 EXP DUP2 SLOAD DUP2 PUSH20 0xFFFFFFFFFFFFFFFFFFFFFFFFFFFFFFFFFFFFFFFF MUL NOT AND SWAP1 DUP4 PUSH20 0xFFFFFFFFFFFFFFFFFFFFFFFFFFFFFFFFFFFFFFFF AND MUL OR SWAP1 SSTORE POP DUP2 PUSH32 0x21D47E859F1599514906A2E7206EB97B919DDAF74E83D2B72D5B89F94DCFBE73 DUP3 PUSH1 0x40 MLOAD PUSH2 0x490 SWAP2 SWAP1 PUSH2 0xBF6 JUMP JUMPDEST PUSH1 0x40 MLOAD DUP1 SWAP2 SUB SWAP1 LOG2 POP POP JUMP JUMPDEST PUSH1 0x1 SLOAD DUP2 JUMP JUMPDEST PUSH1 0x1 PUSH0 DUP2 SLOAD DUP1 SWAP3 SWAP2 SWAP1 PUSH2 0x4B4 SWAP1 PUSH2 0xC3C JUMP JUMPDEST SWAP2 SWAP1 POP SSTORE POP PUSH1 0x40 MLOAD DUP1 PUSH1 0xC0 ADD PUSH1 0x40 MSTORE DUP1 PUSH1 0x1 SLOAD DUP2 MSTORE PUSH1 0x20 ADD CALLER PUSH20 0xFFFFFFFFFFFFFFFFFFFFFFFFFFFFFFFFFFFFFFFF AND DUP2 MSTORE PUSH1 0x20 ADD DUP3 DUP2 MSTORE PUSH1 0x20 ADD PUSH0 PUSH1 0x2 DUP2 GT ISZERO PUSH2 0x501 JUMPI PUSH2 0x500 PUSH2 0x7FC JUMP JUMPDEST JUMPDEST DUP2 MSTORE PUSH1 0x20 ADD PUSH0 PUSH20 0xFFFFFFFFFFFFFFFFFFFFFFFFFFFFFFFFFFFFFFFF AND DUP2 MSTORE PUSH1 0x20 ADD TIMESTAMP DUP2 MSTORE POP PUSH0 DUP1 PUSH1 0x1 SLOAD DUP2 MSTORE PUSH1 0x20 ADD SWAP1 DUP2 MSTORE PUSH1 0x20 ADD PUSH0 KECCAK256 PUSH0 DUP3 ADD MLOAD DUP2 PUSH0 ADD SSTORE PUSH1 0x20 DUP3 ADD MLOAD DUP2 PUSH1 0x1 ADD PUSH0 PUSH2 0x100 EXP DUP2 SLOAD DUP2 PUSH20 0xFFFFFFFFFFFFFFFFFFFFFFFFFFFFFFFFFFFFFFFF MUL NOT AND SWAP1 DUP4 PUSH20 0xFFFFFFFFFFFFFFFFFFFFFFFFFFFFFFFFFFFFFFFF AND MUL OR SWAP1 SSTORE POP PUSH1 0x40 DUP3 ADD MLOAD DUP2 PUSH1 0x2 ADD SWAP1 DUP2 PUSH2 0x59B SWAP2 SWAP1 PUSH2 0xE20 JUMP JUMPDEST POP PUSH1 0x60 DUP3 ADD MLOAD DUP2 PUSH1 0x3 ADD PUSH0 PUSH2 0x100 EXP DUP2 SLOAD DUP2 PUSH1 0xFF MUL NOT AND SWAP1 DUP4 PUSH1 0x2 DUP2 GT ISZERO PUSH2 0x5C6 JUMPI PUSH2 0x5C5 PUSH2 0x7FC JUMP JUMPDEST JUMPDEST MUL OR SWAP1 SSTORE POP PUSH1 0x80 DUP3 ADD MLOAD DUP2 PUSH1 0x3 ADD PUSH1 0x1 PUSH2 0x100 EXP DUP2 SLOAD DUP2 PUSH20 0xFFFFFFFFFFFFFFFFFFFFFFFFFFFFFFFFFFFFFFFF MUL NOT AND SWAP1 DUP4 PUSH20 0xFFFFFFFFFFFFFFFFFFFFFFFFFFFFFFFFFFFFFFFF AND MUL OR SWAP1 SSTORE POP PUSH1 0xA0 DUP3 ADD MLOAD DUP2 PUSH1 0x4 ADD SSTORE SWAP1 POP POP PUSH1 0x1 SLOAD PUSH32 0xB0C99DD08FFBA1468281EF4374EDBCCB9F01701627960A3C8A1128A32106C8DC CALLER PUSH1 0x40 MLOAD PUSH2 0x651 SWAP2 SWAP1 PUSH2 0xBF6 JUMP JUMPDEST PUSH1 0x40 MLOAD DUP1 SWAP2 SUB SWAP1 LOG2 POP JUMP JUMPDEST PUSH0 PUSH1 0x40 MLOAD SWAP1 POP SWAP1 JUMP JUMPDEST PUSH0 DUP1 REVERT JUMPDEST PUSH0 DUP1 REVERT JUMPDEST PUSH0 DUP2 SWAP1 POP SWAP2 SWAP1 POP JUMP JUMPDEST PUSH2 0x67F DUP2 PUSH2 0x66D JUMP JUMPDEST DUP2 EQ PUSH2 0x689 JUMPI PUSH0 DUP1 REVERT JUMPDEST POP JUMP JUMPDEST PUSH0 DUP2 CALLDATALOAD SWAP1 POP PUSH2 0x69A DUP2 PUSH2 0x676 JUMP JUMPDEST SWAP3 SWAP2 POP POP JUMP JUMPDEST PUSH0 DUP2 ISZERO ISZERO SWAP1 POP SWAP2 SWAP1 POP JUMP JUMPDEST PUSH2 0x6B4 DUP2 PUSH2 0x6A0 JUMP JUMPDEST DUP2 EQ PUSH2 0x6BE JUMPI PUSH0 DUP1 REVERT JUMPDEST POP JUMP JUMPDEST PUSH0 DUP2 CALLDATALOAD SWAP1 POP PUSH2 0x6CF DUP2 PUSH2 0x6AB JUMP JUMPDEST SWAP3 SWAP2 POP POP JUMP JUMPDEST PUSH0 DUP1 PUSH1 0x40 DUP4 DUP6 SUB SLT ISZERO PUSH2 0x6EB JUMPI PUSH2 0x6EA PUSH2 0x665 JUMP JUMPDEST JUMPDEST PUSH0 PUSH2 0x6F8 DUP6 DUP3 DUP7 ADD PUSH2 0x68C JUMP JUMPDEST SWAP3 POP POP PUSH1 0x20 PUSH2 0x709 DUP6 DUP3 DUP7 ADD PUSH2 0x6C1 JUMP JUMPDEST SWAP2 POP POP SWAP3 POP SWAP3 SWAP1 POP JUMP JUMPDEST PUSH0 PUSH1 0x20 DUP3 DUP5 SUB SLT ISZERO PUSH2 0x728 JUMPI PUSH2 0x727 PUSH2 0x665 JUMP JUMPDEST JUMPDEST PUSH0 PUSH2 0x735 DUP5 DUP3 DUP6 ADD PUSH2 0x68C JUMP JUMPDEST SWAP2 POP POP SWAP3 SWAP2 POP POP JUMP JUMPDEST PUSH2 0x747 DUP2 PUSH2 0x66D JUMP JUMPDEST DUP3 MSTORE POP POP JUMP JUMPDEST PUSH0 PUSH20 0xFFFFFFFFFFFFFFFFFFFFFFFFFFFFFFFFFFFFFFFF DUP3 AND SWAP1 POP SWAP2 SWAP1 POP JUMP JUMPDEST PUSH0 PUSH2 0x776 DUP3 PUSH2 0x74D JUMP JUMPDEST SWAP1 POP SWAP2 SWAP1 POP JUMP JUMPDEST PUSH2 0x786 DUP2 PUSH2 0x76C JUMP JUMPDEST DUP3 MSTORE POP POP JUMP JUMPDEST PUSH0 DUP2 MLOAD SWAP1 POP SWAP2 SWAP1 POP JUMP JUMPDEST PUSH0 DUP3 DUP3 MSTORE PUSH1 0x20 DUP3 ADD SWAP1 POP SWAP3 SWAP2 POP POP JUMP JUMPDEST DUP3 DUP2 DUP4 MCOPY PUSH0 DUP4 DUP4 ADD MSTORE POP POP POP JUMP JUMPDEST PUSH0 PUSH1 0x1F NOT PUSH1 0x1F DUP4 ADD AND SWAP1 POP SWAP2 SWAP1 POP JUMP JUMPDEST PUSH0 PUSH2 0x7CE DUP3 PUSH2 0x78C JUMP JUMPDEST PUSH2 0x7D8 DUP2 DUP6 PUSH2 0x796 JUMP JUMPDEST SWAP4 POP PUSH2 0x7E8 DUP2 DUP6 PUSH1 0x20 DUP7 ADD PUSH2 0x7A6 JUMP JUMPDEST PUSH2 0x7F1 DUP2 PUSH2 0x7B4 JUMP JUMPDEST DUP5 ADD SWAP2 POP POP SWAP3 SWAP2 POP POP JUMP JUMPDEST PUSH32 0x4E487B7100000000000000000000000000000000000000000000000000000000 PUSH0 MSTORE PUSH1 0x21 PUSH1 0x4 MSTORE PUSH1 0x24 PUSH0 REVERT JUMPDEST PUSH1 0x3 DUP2 LT PUSH2 0x83A JUMPI PUSH2 0x839 PUSH2 0x7FC JUMP JUMPDEST JUMPDEST POP JUMP JUMPDEST PUSH0 DUP2 SWAP1 POP PUSH2 0x84A DUP3 PUSH2 0x829 JUMP JUMPDEST SWAP2 SWAP1 POP JUMP JUMPDEST PUSH0 PUSH2 0x859 DUP3 PUSH2 0x83D JUMP JUMPDEST SWAP1 POP SWAP2 SWAP1 POP JUMP JUMPDEST PUSH2 0x869 DUP2 PUSH2 0x84F JUMP JUMPDEST DUP3 MSTORE POP POP JUMP JUMPDEST PUSH0 PUSH1 0xC0 DUP3 ADD SWAP1 POP PUSH2 0x882 PUSH0 DUP4 ADD DUP10 PUSH2 0x73E JUMP JUMPDEST PUSH2 0x88F PUSH1 0x20 DUP4 ADD DUP9 PUSH2 0x77D JUMP JUMPDEST DUP2 DUP2 SUB PUSH1 0x40 DUP4 ADD MSTORE PUSH2 0x8A1 DUP2 DUP8 PUSH2 0x7C4 JUMP JUMPDEST SWAP1 POP PUSH2 0x8B0 PUSH1 0x60 DUP4 ADD DUP7 PUSH2 0x860 JUMP JUMPDEST PUSH2 0x8BD PUSH1 0x80 DUP4 ADD DUP6 PUSH2 0x77D JUMP JUMPDEST PUSH2 0x8CA PUSH1 0xA0 DUP4 ADD DUP5 PUSH2 0x73E JUMP JUMPDEST SWAP8 SWAP7 POP POP POP POP POP POP POP JUMP JUMPDEST PUSH2 0x8DE DUP2 PUSH2 0x76C JUMP JUMPDEST DUP2 EQ PUSH2 0x8E8 JUMPI PUSH0 DUP1 REVERT JUMPDEST POP JUMP JUMPDEST PUSH0 DUP2 CALLDATALOAD SWAP1 POP PUSH2 0x8F9 DUP2 PUSH2 0x8D5 JUMP JUMPDEST SWAP3 SWAP2 POP POP JUMP JUMPDEST PUSH0 DUP1 PUSH1 0x40 DUP4 DUP6 SUB SLT ISZERO PUSH2 0x915 JUMPI PUSH2 0x914 PUSH2 0x665 JUMP JUMPDEST JUMPDEST PUSH0 PUSH2 0x922 DUP6 DUP3 DUP7 ADD PUSH2 0x68C JUMP JUMPDEST SWAP3 POP POP PUSH1 0x20 PUSH2 0x933 DUP6 DUP3 DUP7 ADD PUSH2 0x8EB JUMP JUMPDEST SWAP2 POP POP SWAP3 POP SWAP3 SWAP1 POP JUMP JUMPDEST PUSH0 PUSH1 0x20 DUP3 ADD SWAP1 POP PUSH2 0x950 PUSH0 DUP4 ADD DUP5 PUSH2 0x73E JUMP JUMPDEST SWAP3 SWAP2 POP POP JUMP JUMPDEST PUSH0 DUP1 REVERT JUMPDEST PUSH0 DUP1 REVERT JUMPDEST PUSH32 0x4E487B7100000000000000000000000000000000000000000000000000000000 PUSH0 MSTORE PUSH1 0x41 PUSH1 0x4 MSTORE PUSH1 0x24 PUSH0 REVERT JUMPDEST PUSH2 0x994 DUP3 PUSH2 0x7B4 JUMP JUMPDEST DUP2 ADD DUP2 DUP2 LT PUSH8 0xFFFFFFFFFFFFFFFF DUP3 GT OR ISZERO PUSH2 0x9B3 JUMPI PUSH2 0x9B2 PUSH2 0x95E JUMP JUMPDEST JUMPDEST DUP1 PUSH1 0x40 MSTORE POP POP POP JUMP JUMPDEST PUSH0 PUSH2 0x9C5 PUSH2 0x65C JUMP JUMPDEST SWAP1 POP PUSH2 0x9D1 DUP3 DUP3 PUSH2 0x98B JUMP JUMPDEST SWAP2 SWAP1 POP JUMP JUMPDEST PUSH0 PUSH8 0xFFFFFFFFFFFFFFFF DUP3 GT ISZERO PUSH2 0x9F0 JUMPI PUSH2 0x9EF PUSH2 0x95E JUMP JUMPDEST JUMPDEST PUSH2 0x9F9 DUP3 PUSH2 0x7B4 JUMP JUMPDEST SWAP1 POP PUSH1 0x20 DUP2 ADD SWAP1 POP SWAP2 SWAP1 POP JUMP JUMPDEST DUP3 DUP2 DUP4 CALLDATACOPY PUSH0 DUP4 DUP4 ADD MSTORE POP POP POP JUMP JUMPDEST PUSH0 PUSH2 0xA26 PUSH2 0xA21 DUP5 PUSH2 0x9D6 JUMP JUMPDEST PUSH2 0x9BC JUMP JUMPDEST SWAP1 POP DUP3 DUP2 MSTORE PUSH1 0x20 DUP2 ADD DUP5 DUP5 DUP5 ADD GT ISZERO PUSH2 0xA42 JUMPI PUSH2 0xA41 PUSH2 0x95A JUMP JUMPDEST JUMPDEST PUSH2 0xA4D DUP5 DUP3 DUP6 PUSH2 0xA06 JUMP JUMPDEST POP SWAP4 SWAP3 POP POP POP JUMP JUMPDEST PUSH0 DUP3 PUSH1 0x1F DUP4 ADD SLT PUSH2 0xA69 JUMPI PUSH2 0xA68 PUSH2 0x956 JUMP JUMPDEST JUMPDEST DUP2 CALLDATALOAD PUSH2 0xA79 DUP5 DUP3 PUSH1 0x20 DUP7 ADD PUSH2 0xA14 JUMP JUMPDEST SWAP2 POP POP SWAP3 SWAP2 POP POP JUMP JUMPDEST PUSH0 PUSH1 0x20 DUP3 DUP5 SUB SLT ISZERO PUSH2 0xA97 JUMPI PUSH2 0xA96 PUSH2 0x665 JUMP JUMPDEST JUMPDEST PUSH0 DUP3 ADD CALLDATALOAD PUSH8 0xFFFFFFFFFFFFFFFF DUP2 GT ISZERO PUSH2 0xAB4 JUMPI PUSH2 0xAB3 PUSH2 0x669 JUMP JUMPDEST JUMPDEST PUSH2 0xAC0 DUP5 DUP3 DUP6 ADD PUSH2 0xA55 JUMP JUMPDEST SWAP2 POP POP SWAP3 SWAP2 POP POP JUMP JUMPDEST PUSH32 0x556E617574686F72697A65642072657669657765720000000000000000000000 PUSH0 DUP3 ADD MSTORE POP JUMP JUMPDEST PUSH0 PUSH2 0xAFD PUSH1 0x15 DUP4 PUSH2 0x796 JUMP JUMPDEST SWAP2 POP PUSH2 0xB08 DUP3 PUSH2 0xAC9 JUMP JUMPDEST PUSH1 0x20 DUP3 ADD SWAP1 POP SWAP2 SWAP1 POP JUMP JUMPDEST PUSH0 PUSH1 0x20 DUP3 ADD SWAP1 POP DUP2 DUP2 SUB PUSH0 DUP4 ADD MSTORE PUSH2 0xB2A DUP2 PUSH2 0xAF1 JUMP JUMPDEST SWAP1 POP SWAP2 SWAP1 POP JUMP JUMPDEST PUSH32 0x4E487B7100000000000000000000000000000000000000000000000000000000 PUSH0 MSTORE PUSH1 0x22 PUSH1 0x4 MSTORE PUSH1 0x24 PUSH0 REVERT JUMPDEST PUSH0 PUSH1 0x2 DUP3 DIV SWAP1 POP PUSH1 0x1 DUP3 AND DUP1 PUSH2 0xB75 JUMPI PUSH1 0x7F DUP3 AND SWAP2 POP JUMPDEST PUSH1 0x20 DUP3 LT DUP2 SUB PUSH2 0xB88 JUMPI PUSH2 0xB87 PUSH2 0xB31 JUMP JUMPDEST JUMPDEST POP SWAP2 SWAP1 POP JUMP JUMPDEST PUSH32 0x496E76616C696420636F6E747269627574696F6E204944000000000000000000 PUSH0 DUP3 ADD MSTORE POP JUMP JUMPDEST PUSH0 PUSH2 0xBC2 PUSH1 0x17 DUP4 PUSH2 0x796 JUMP JUMPDEST SWAP2 POP PUSH2 0xBCD DUP3 PUSH2 0xB8E JUMP JUMPDEST PUSH1 0x20 DUP3 ADD SWAP1 POP SWAP2 SWAP1 POP JUMP JUMPDEST PUSH0 PUSH1 0x20 DUP3 ADD SWAP1 POP DUP2 DUP2 SUB PUSH0 DUP4 ADD MSTORE PUSH2 0xBEF DUP2 PUSH2 0xBB6 JUMP JUMPDEST SWAP1 POP SWAP2 SWAP1 POP JUMP JUMPDEST PUSH0 PUSH1 0x20 DUP3 ADD SWAP1 POP PUSH2 0xC09 PUSH0 DUP4 ADD DUP5 PUSH2 0x77D JUMP JUMPDEST SWAP3 SWAP2 POP POP JUMP JUMPDEST PUSH32 0x4E487B7100000000000000000000000000000000000000000000000000000000 PUSH0 MSTORE PUSH1 0x11 PUSH1 0x4 MSTORE PUSH1 0x24 PUSH0 REVERT JUMPDEST PUSH0 PUSH2 0xC46 DUP3 PUSH2 0x66D JUMP JUMPDEST SWAP2 POP PUSH32 0xFFFFFFFFFFFFFFFFFFFFFFFFFFFFFFFFFFFFFFFFFFFFFFFFFFFFFFFFFFFFFFFF DUP3 SUB PUSH2 0xC78 JUMPI PUSH2 0xC77 PUSH2 0xC0F JUMP JUMPDEST JUMPDEST PUSH1 0x1 DUP3 ADD SWAP1 POP SWAP2 SWAP1 POP JUMP JUMPDEST PUSH0 DUP2 SWAP1 POP DUP2 PUSH0 MSTORE PUSH1 0x20 PUSH0 KECCAK256 SWAP1 POP SWAP2 SWAP1 POP JUMP JUMPDEST PUSH0 PUSH1 0x20 PUSH1 0x1F DUP4 ADD DIV SWAP1 POP SWAP2 SWAP1 POP JUMP JUMPDEST PUSH0 DUP3 DUP3 SHL SWAP1 POP SWAP3 SWAP2 POP POP JUMP JUMPDEST PUSH0 PUSH1 0x8 DUP4 MUL PUSH2 0xCDF PUSH32 0xFFFFFFFFFFFFFFFFFFFFFFFFFFFFFFFFFFFFFFFFFFFFFFFFFFFFFFFFFFFFFFFF DUP3 PUSH2 0xCA4 JUMP JUMPDEST PUSH2 0xCE9 DUP7 DUP4 PUSH2 0xCA4 JUMP JUMPDEST SWAP6 POP DUP1 NOT DUP5 AND SWAP4 POP DUP1 DUP7 AND DUP5 OR SWAP3 POP POP POP SWAP4 SWAP3 POP POP POP JUMP JUMPDEST PUSH0 DUP2 SWAP1 POP SWAP2 SWAP1 POP JUMP JUMPDEST PUSH0 PUSH2 0xD24 PUSH2 0xD1F PUSH2 0xD1A DUP5 PUSH2 0x66D JUMP JUMPDEST PUSH2 0xD01 JUMP JUMPDEST PUSH2 0x66D JUMP JUMPDEST SWAP1 POP SWAP2 SWAP1 POP JUMP JUMPDEST PUSH0 DUP2 SWAP1 POP SWAP2 SWAP1 POP JUMP JUMPDEST PUSH2 0xD3D DUP4 PUSH2 0xD0A JUMP JUMPDEST PUSH2 0xD51 PUSH2 0xD49 DUP3 PUSH2 0xD2B JUMP JUMPDEST DUP5 DUP5 SLOAD PUSH2 0xCB0 JUMP JUMPDEST DUP3 SSTORE POP POP POP POP JUMP JUMPDEST PUSH0 SWAP1 JUMP JUMPDEST PUSH2 0xD65 PUSH2 0xD59 JUMP JUMPDEST PUSH2 0xD70 DUP2 DUP5 DUP5 PUSH2 0xD34 JUMP JUMPDEST POP POP POP JUMP JUMPDEST JUMPDEST DUP2 DUP2 LT ISZERO PUSH2 0xD93 JUMPI PUSH2 0xD88 PUSH0 DUP3 PUSH2 0xD5D JUMP JUMPDEST PUSH1 0x1 DUP2 ADD SWAP1 POP PUSH2 0xD76 JUMP JUMPDEST POP POP JUMP JUMPDEST PUSH1 0x1F DUP3 GT ISZERO PUSH2 0xDD8 JUMPI PUSH2 0xDA9 DUP2 PUSH2 0xC83 JUMP JUMPDEST PUSH2 0xDB2 DUP5 PUSH2 0xC95 JUMP JUMPDEST DUP2 ADD PUSH1 0x20 DUP6 LT ISZERO PUSH2 0xDC1 JUMPI DUP2 SWAP1 POP JUMPDEST PUSH2 0xDD5 PUSH2 0xDCD DUP6 PUSH2 0xC95 JUMP JUMPDEST DUP4 ADD DUP3 PUSH2 0xD75 JUMP JUMPDEST POP POP JUMPDEST POP POP POP JUMP JUMPDEST PUSH0 DUP3 DUP3 SHR SWAP1 POP SWAP3 SWAP2 POP POP JUMP JUMPDEST PUSH0 PUSH2 0xDF8 PUSH0 NOT DUP5 PUSH1 0x8 MUL PUSH2 0xDDD JUMP JUMPDEST NOT DUP1 DUP4 AND SWAP2 POP POP SWAP3 SWAP2 POP POP JUMP JUMPDEST PUSH0 PUSH2 0xE10 DUP4 DUP4 PUSH2 0xDE9 JUMP JUMPDEST SWAP2 POP DUP3 PUSH1 0x2 MUL DUP3 OR SWAP1 POP SWAP3 SWAP2 POP POP JUMP JUMPDEST PUSH2 0xE29 DUP3 PUSH2 0x78C JUMP JUMPDEST PUSH8 0xFFFFFFFFFFFFFFFF DUP2 GT ISZERO PUSH2 0xE42 JUMPI PUSH2 0xE41 PUSH2 0x95E JUMP JUMPDEST JUMPDEST PUSH2 0xE4C DUP3 SLOAD PUSH2 0xB5E JUMP JUMPDEST PUSH2 0xE57 DUP3 DUP3 DUP6 PUSH2 0xD97 JUMP JUMPDEST PUSH0 PUSH1 0x20 SWAP1 POP PUSH1 0x1F DUP4 GT PUSH1 0x1 DUP2 EQ PUSH2 0xE88 JUMPI PUSH0 DUP5 ISZERO PUSH2 0xE76 JUMPI DUP3 DUP8 ADD MLOAD SWAP1 POP JUMPDEST PUSH2 0xE80 DUP6 DUP3 PUSH2 0xE05 JUMP JUMPDEST DUP7 SSTORE POP PUSH2 0xEE7 JUMP JUMPDEST PUSH1 0x1F NOT DUP5 AND PUSH2 0xE96 DUP7 PUSH2 0xC83 JUMP JUMPDEST PUSH0 JUMPDEST DUP3 DUP2 LT ISZERO PUSH2 0xEBD JUMPI DUP5 DUP10 ADD MLOAD DUP3 SSTORE PUSH1 0x1 DUP3 ADD SWAP2 POP PUSH1 0x20 DUP6 ADD SWAP5 POP PUSH1 0x20 DUP2 ADD SWAP1 POP PUSH2 0xE98 JUMP JUMPDEST DUP7 DUP4 LT ISZERO PUSH2 0xEDA JUMPI DUP5 DUP10 ADD MLOAD PUSH2 0xED6 PUSH1 0x1F DUP10 AND DUP3 PUSH2 0xDE9 JUMP JUMPDEST DUP4 SSTORE POP JUMPDEST PUSH1 0x1 PUSH1 0x2 DUP9 MUL ADD DUP9 SSTORE POP POP POP JUMPDEST POP POP POP POP POP POP JUMP INVALID LOG2 PUSH5 0x6970667358 0x22 SLT KECCAK256 SUB RETURNDATASIZE SWAP5 MOD JUMP 0xB9 0x27 SMOD 0xB3 PUSH28 0xCE231007A05ADE3A8B7498CDAB6FA6A3A7601B29704164736F6C6343 STOP ADDMOD BYTE STOP CALLER "
				},
				"gasEstimates": {
					"creation": {
						"codeDepositCost": "775400",
						"executionCost": "810",
						"totalCost": "776210"
					},
					"external": {
						"approveContribution(uint256,bool)": "28412",
						"contributionCounter()": "2469",
						"contributions(uint256)": "infinite",
						"requestReview(uint256,address)": "infinite",
						"submitContribution(string)": "infinite"
					}
				},
				"methodIdentifiers": {
					"approveContribution(uint256,bool)": "1a3bfd6c",
					"contributionCounter()": "9c2f0bd9",
					"contributions(uint256)": "1cee0700",
					"requestReview(uint256,address)": "45bead42",
					"submitContribution(string)": "fc746cde"
				}
			},
			"storageLayout": {
				"storage": [
					{
						"astId": 24,
						"contract": "contracts/ContributionManagement.sol:ContributionManagement",
						"label": "contributions",
						"offset": 0,
						"slot": "0",
						"type": "t_mapping(t_uint256,t_struct(Contribution)19_storage)"
					},
					{
						"astId": 26,
						"contract": "contracts/ContributionManagement.sol:ContributionManagement",
						"label": "contributionCounter",
						"offset": 0,
						"slot": "1",
						"type": "t_uint256"
					}
				],
				"types": {
					"t_address": {
						"encoding": "inplace",
						"label": "address",
						"numberOfBytes": "20"
					},
					"t_enum(Status)5": {
						"encoding": "inplace",
						"label": "enum ContributionManagement.Status",
						"numberOfBytes": "1"
					},
					"t_mapping(t_uint256,t_struct(Contribution)19_storage)": {
						"encoding": "mapping",
						"key": "t_uint256",
						"label": "mapping(uint256 => struct ContributionManagement.Contribution)",
						"numberOfBytes": "32",
						"value": "t_struct(Contribution)19_storage"
					},
					"t_string_storage": {
						"encoding": "bytes",
						"label": "string",
						"numberOfBytes": "32"
					},
					"t_struct(Contribution)19_storage": {
						"encoding": "inplace",
						"label": "struct ContributionManagement.Contribution",
						"members": [
							{
								"astId": 7,
								"contract": "contracts/ContributionManagement.sol:ContributionManagement",
								"label": "id",
								"offset": 0,
								"slot": "0",
								"type": "t_uint256"
							},
							{
								"astId": 9,
								"contract": "contracts/ContributionManagement.sol:ContributionManagement",
								"label": "scientist",
								"offset": 0,
								"slot": "1",
								"type": "t_address"
							},
							{
								"astId": 11,
								"contract": "contracts/ContributionManagement.sol:ContributionManagement",
								"label": "contentHash",
								"offset": 0,
								"slot": "2",
								"type": "t_string_storage"
							},
							{
								"astId": 14,
								"contract": "contracts/ContributionManagement.sol:ContributionManagement",
								"label": "status",
								"offset": 0,
								"slot": "3",
								"type": "t_enum(Status)5"
							},
							{
								"astId": 16,
								"contract": "contracts/ContributionManagement.sol:ContributionManagement",
								"label": "reviewer",
								"offset": 1,
								"slot": "3",
								"type": "t_address"
							},
							{
								"astId": 18,
								"contract": "contracts/ContributionManagement.sol:ContributionManagement",
								"label": "timestamp",
								"offset": 0,
								"slot": "4",
								"type": "t_uint256"
							}
						],
						"numberOfBytes": "160"
					},
					"t_uint256": {
						"encoding": "inplace",
						"label": "uint256",
						"numberOfBytes": "32"
					}
				}
			},
			"userdoc": {
				"kind": "user",
				"methods": {},
				"version": 1
			}
		}
	}
}