{
	"contracts/ReputationSystem.sol": {
		"ReputationSystem": {
			"abi": [
				{
					"inputs": [],
					"stateMutability": "nonpayable",
					"type": "constructor"
				},
				{
					"anonymous": false,
					"inputs": [
						{
							"indexed": false,
							"internalType": "string",
							"name": "ruleName",
							"type": "string"
						},
						{
							"indexed": false,
							"internalType": "uint256",
							"name": "newValue",
							"type": "uint256"
						}
					],
					"name": "ReputationRuleUpdated",
					"type": "event"
				},
				{
					"anonymous": false,
					"inputs": [
						{
							"indexed": true,
							"internalType": "address",
							"name": "scientist",
							"type": "address"
						},
						{
							"indexed": false,
							"internalType": "uint256",
							"name": "newScore",
							"type": "uint256"
						}
					],
					"name": "ReputationUpdated",
					"type": "event"
				},
				{
					"inputs": [
						{
							"internalType": "address",
							"name": "scientist",
							"type": "address"
						},
						{
							"internalType": "bool",
							"name": "approved",
							"type": "bool"
						}
					],
					"name": "calculateReputation",
					"outputs": [],
					"stateMutability": "nonpayable",
					"type": "function"
				},
				{
					"inputs": [
						{
							"internalType": "string",
							"name": "",
							"type": "string"
						}
					],
					"name": "reputationRules",
					"outputs": [
						{
							"internalType": "uint256",
							"name": "",
							"type": "uint256"
						}
					],
					"stateMutability": "view",
					"type": "function"
				},
				{
					"inputs": [
						{
							"internalType": "address",
							"name": "",
							"type": "address"
						}
					],
					"name": "reputations",
					"outputs": [
						{
							"internalType": "address",
							"name": "scientist",
							"type": "address"
						},
						{
							"internalType": "uint256",
							"name": "score",
							"type": "uint256"
						}
					],
					"stateMutability": "view",
					"type": "function"
				},
				{
					"inputs": [
						{
							"internalType": "string",
							"name": "ruleName",
							"type": "string"
						},
						{
							"internalType": "uint256",
							"name": "newValue",
							"type": "uint256"
						}
					],
					"name": "updateReputationRules",
					"outputs": [],
					"stateMutability": "nonpayable",
					"type": "function"
				}
			],
			"devdoc": {
				"kind": "dev",
				"methods": {},
				"version": 1
			},
			"evm": {
				"assembly": "    /* \"contracts/ReputationSystem.sol\":60:1221  contract ReputationSystem {... */\n  mstore(0x40, 0x80)\n    /* \"contracts/ReputationSystem.sol\":473:639  constructor() {... */\n  callvalue\n  dup1\n  iszero\n  tag_1\n  jumpi\n  0x00\n  dup1\n  revert\ntag_1:\n  pop\n    /* \"contracts/ReputationSystem.sol\":530:532  10 */\n  0x0a\n    /* \"contracts/ReputationSystem.sol\":498:513  reputationRules */\n  0x01\n    /* \"contracts/ReputationSystem.sol\":498:527  reputationRules[\"base_score\"] */\n  mload(0x40)\n  tag_4\n  swap1\n  tag_5\n  jump\t// in\ntag_4:\n  swap1\n  dup2\n  mstore\n  0x20\n  add\n  mload(0x40)\n  dup1\n  swap2\n  sub\n  swap1\n  keccak256\n    /* \"contracts/ReputationSystem.sol\":498:532  reputationRules[\"base_score\"] = 10 */\n  dup2\n  swap1\n  sstore\n  pop\n    /* \"contracts/ReputationSystem.sol\":579:580  5 */\n  0x05\n    /* \"contracts/ReputationSystem.sol\":543:558  reputationRules */\n  0x01\n    /* \"contracts/ReputationSystem.sol\":543:576  reputationRules[\"approval_bonus\"] */\n  mload(0x40)\n  tag_6\n  swap1\n  tag_7\n  jump\t// in\ntag_6:\n  swap1\n  dup2\n  mstore\n  0x20\n  add\n  mload(0x40)\n  dup1\n  swap2\n  sub\n  swap1\n  keccak256\n    /* \"contracts/ReputationSystem.sol\":543:580  reputationRules[\"approval_bonus\"] = 5 */\n  dup2\n  swap1\n  sstore\n  pop\n    /* \"contracts/ReputationSystem.sol\":630:631  3 */\n  0x03\n    /* \"contracts/ReputationSystem.sol\":591:606  reputationRules */\n  0x01\n    /* \"contracts/ReputationSystem.sol\":591:627  reputationRules[\"rejection_penalty\"] */\n  mload(0x40)\n  tag_8\n  swap1\n  tag_9\n  jump\t// in\ntag_8:\n  swap1\n  dup2\n  mstore\n  0x20\n  add\n  mload(0x40)\n  dup1\n  swap2\n  sub\n  swap1\n  keccak256\n    /* \"contracts/ReputationSystem.sol\":591:631  reputationRules[\"rejection_penalty\"] = 3 */\n  dup2\n  swap1\n  sstore\n  pop\n    /* \"contracts/ReputationSystem.sol\":60:1221  contract ReputationSystem {... */\n  jump(tag_10)\n    /* \"#utility.yul\":7:155   */\ntag_11:\n    /* \"#utility.yul\":109:120   */\n  0x00\n    /* \"#utility.yul\":146:149   */\n  dup2\n    /* \"#utility.yul\":131:149   */\n  swap1\n  pop\n    /* \"#utility.yul\":7:155   */\n  swap3\n  swap2\n  pop\n  pop\n  jump\t// out\n    /* \"#utility.yul\":161:321   */\ntag_12:\n    /* \"#utility.yul\":301:313   */\n  0x626173655f73636f726500000000000000000000000000000000000000000000\n    /* \"#utility.yul\":297:298   */\n  0x00\n    /* \"#utility.yul\":289:295   */\n  dup3\n    /* \"#utility.yul\":285:299   */\n  add\n    /* \"#utility.yul\":278:314   */\n  mstore\n    /* \"#utility.yul\":161:321   */\n  pop\n  jump\t// out\n    /* \"#utility.yul\":327:729   */\ntag_13:\n    /* \"#utility.yul\":487:490   */\n  0x00\n    /* \"#utility.yul\":508:593   */\n  tag_22\n    /* \"#utility.yul\":590:592   */\n  0x0a\n    /* \"#utility.yul\":585:588   */\n  dup4\n    /* \"#utility.yul\":508:593   */\n  tag_11\n  jump\t// in\ntag_22:\n    /* \"#utility.yul\":501:593   */\n  swap2\n  pop\n    /* \"#utility.yul\":602:695   */\n  tag_23\n    /* \"#utility.yul\":691:694   */\n  dup3\n    /* \"#utility.yul\":602:695   */\n  tag_12\n  jump\t// in\ntag_23:\n    /* \"#utility.yul\":720:722   */\n  0x0a\n    /* \"#utility.yul\":715:718   */\n  dup3\n    /* \"#utility.yul\":711:723   */\n  add\n    /* \"#utility.yul\":704:723   */\n  swap1\n  pop\n    /* \"#utility.yul\":327:729   */\n  swap2\n  swap1\n  pop\n  jump\t// out\n    /* \"#utility.yul\":735:1116   */\ntag_5:\n    /* \"#utility.yul\":920:923   */\n  0x00\n    /* \"#utility.yul\":942:1090   */\n  tag_25\n    /* \"#utility.yul\":1086:1089   */\n  dup3\n    /* \"#utility.yul\":942:1090   */\n  tag_13\n  jump\t// in\ntag_25:\n    /* \"#utility.yul\":935:1090   */\n  swap2\n  pop\n    /* \"#utility.yul\":1107:1110   */\n  dup2\n    /* \"#utility.yul\":1100:1110   */\n  swap1\n  pop\n    /* \"#utility.yul\":735:1116   */\n  swap2\n  swap1\n  pop\n  jump\t// out\n    /* \"#utility.yul\":1122:1286   */\ntag_14:\n    /* \"#utility.yul\":1262:1278   */\n  0x617070726f76616c5f626f6e7573000000000000000000000000000000000000\n    /* \"#utility.yul\":1258:1259   */\n  0x00\n    /* \"#utility.yul\":1250:1256   */\n  dup3\n    /* \"#utility.yul\":1246:1260   */\n  add\n    /* \"#utility.yul\":1239:1279   */\n  mstore\n    /* \"#utility.yul\":1122:1286   */\n  pop\n  jump\t// out\n    /* \"#utility.yul\":1292:1694   */\ntag_15:\n    /* \"#utility.yul\":1452:1455   */\n  0x00\n    /* \"#utility.yul\":1473:1558   */\n  tag_28\n    /* \"#utility.yul\":1555:1557   */\n  0x0e\n    /* \"#utility.yul\":1550:1553   */\n  dup4\n    /* \"#utility.yul\":1473:1558   */\n  tag_11\n  jump\t// in\ntag_28:\n    /* \"#utility.yul\":1466:1558   */\n  swap2\n  pop\n    /* \"#utility.yul\":1567:1660   */\n  tag_29\n    /* \"#utility.yul\":1656:1659   */\n  dup3\n    /* \"#utility.yul\":1567:1660   */\n  tag_14\n  jump\t// in\ntag_29:\n    /* \"#utility.yul\":1685:1687   */\n  0x0e\n    /* \"#utility.yul\":1680:1683   */\n  dup3\n    /* \"#utility.yul\":1676:1688   */\n  add\n    /* \"#utility.yul\":1669:1688   */\n  swap1\n  pop\n    /* \"#utility.yul\":1292:1694   */\n  swap2\n  swap1\n  pop\n  jump\t// out\n    /* \"#utility.yul\":1700:2081   */\ntag_7:\n    /* \"#utility.yul\":1885:1888   */\n  0x00\n    /* \"#utility.yul\":1907:2055   */\n  tag_31\n    /* \"#utility.yul\":2051:2054   */\n  dup3\n    /* \"#utility.yul\":1907:2055   */\n  tag_15\n  jump\t// in\ntag_31:\n    /* \"#utility.yul\":1900:2055   */\n  swap2\n  pop\n    /* \"#utility.yul\":2072:2075   */\n  dup2\n    /* \"#utility.yul\":2065:2075   */\n  swap1\n  pop\n    /* \"#utility.yul\":1700:2081   */\n  swap2\n  swap1\n  pop\n  jump\t// out\n    /* \"#utility.yul\":2087:2254   */\ntag_16:\n    /* \"#utility.yul\":2227:2246   */\n  0x72656a656374696f6e5f70656e616c7479000000000000000000000000000000\n    /* \"#utility.yul\":2223:2224   */\n  0x00\n    /* \"#utility.yul\":2215:2221   */\n  dup3\n    /* \"#utility.yul\":2211:2225   */\n  add\n    /* \"#utility.yul\":2204:2247   */\n  mstore\n    /* \"#utility.yul\":2087:2254   */\n  pop\n  jump\t// out\n    /* \"#utility.yul\":2260:2662   */\ntag_17:\n    /* \"#utility.yul\":2420:2423   */\n  0x00\n    /* \"#utility.yul\":2441:2526   */\n  tag_34\n    /* \"#utility.yul\":2523:2525   */\n  0x11\n    /* \"#utility.yul\":2518:2521   */\n  dup4\n    /* \"#utility.yul\":2441:2526   */\n  tag_11\n  jump\t// in\ntag_34:\n    /* \"#utility.yul\":2434:2526   */\n  swap2\n  pop\n    /* \"#utility.yul\":2535:2628   */\n  tag_35\n    /* \"#utility.yul\":2624:2627   */\n  dup3\n    /* \"#utility.yul\":2535:2628   */\n  tag_16\n  jump\t// in\ntag_35:\n    /* \"#utility.yul\":2653:2655   */\n  0x11\n    /* \"#utility.yul\":2648:2651   */\n  dup3\n    /* \"#utility.yul\":2644:2656   */\n  add\n    /* \"#utility.yul\":2637:2656   */\n  swap1\n  pop\n    /* \"#utility.yul\":2260:2662   */\n  swap2\n  swap1\n  pop\n  jump\t// out\n    /* \"#utility.yul\":2668:3049   */\ntag_9:\n    /* \"#utility.yul\":2853:2856   */\n  0x00\n    /* \"#utility.yul\":2875:3023   */\n  tag_37\n    /* \"#utility.yul\":3019:3022   */\n  dup3\n    /* \"#utility.yul\":2875:3023   */\n  tag_17\n  jump\t// in\ntag_37:\n    /* \"#utility.yul\":2868:3023   */\n  swap2\n  pop\n    /* \"#utility.yul\":3040:3043   */\n  dup2\n    /* \"#utility.yul\":3033:3043   */\n  swap1\n  pop\n    /* \"#utility.yul\":2668:3049   */\n  swap2\n  swap1\n  pop\n  jump\t// out\n    /* \"contracts/ReputationSystem.sol\":60:1221  contract ReputationSystem {... */\ntag_10:\n  dataSize(sub_0)\n  dup1\n  dataOffset(sub_0)\n  0x00\n  codecopy\n  0x00\n  return\nstop\n\nsub_0: assembly {\n        /* \"contracts/ReputationSystem.sol\":60:1221  contract ReputationSystem {... */\n      mstore(0x40, 0x80)\n      callvalue\n      dup1\n      iszero\n      tag_1\n      jumpi\n      0x00\n      dup1\n      revert\n    tag_1:\n      pop\n      jumpi(tag_2, lt(calldatasize, 0x04))\n      shr(0xe0, calldataload(0x00))\n      dup1\n      0x06fa15a7\n      eq\n      tag_3\n      jumpi\n      dup1\n      0x0948bb7e\n      eq\n      tag_4\n      jumpi\n      dup1\n      0x3e90c169\n      eq\n      tag_5\n      jumpi\n      dup1\n      0xa8e563c2\n      eq\n      tag_6\n      jumpi\n    tag_2:\n      0x00\n      dup1\n      revert\n        /* \"contracts/ReputationSystem.sol\":213:262  mapping(address => Reputation) public reputations */\n    tag_3:\n      tag_7\n      0x04\n      dup1\n      calldatasize\n      sub\n      dup2\n      add\n      swap1\n      tag_8\n      swap2\n      swap1\n      tag_9\n      jump\t// in\n    tag_8:\n      tag_10\n      jump\t// in\n    tag_7:\n      mload(0x40)\n      tag_11\n      swap3\n      swap2\n      swap1\n      tag_12\n      jump\t// in\n    tag_11:\n      mload(0x40)\n      dup1\n      swap2\n      sub\n      swap1\n      return\n        /* \"contracts/ReputationSystem.sol\":647:1018  function calculateReputation(address scientist, bool approved) public {... */\n    tag_4:\n      tag_13\n      0x04\n      dup1\n      calldatasize\n      sub\n      dup2\n      add\n      swap1\n      tag_14\n      swap2\n      swap1\n      tag_15\n      jump\t// in\n    tag_14:\n      tag_16\n      jump\t// in\n    tag_13:\n      stop\n        /* \"contracts/ReputationSystem.sol\":1026:1218  function updateReputationRules(string memory ruleName, uint256 newValue) public {... */\n    tag_5:\n      tag_17\n      0x04\n      dup1\n      calldatasize\n      sub\n      dup2\n      add\n      swap1\n      tag_18\n      swap2\n      swap1\n      tag_19\n      jump\t// in\n    tag_18:\n      tag_20\n      jump\t// in\n    tag_17:\n      stop\n        /* \"contracts/ReputationSystem.sol\":269:318  mapping(string => uint256) public reputationRules */\n    tag_6:\n      tag_21\n      0x04\n      dup1\n      calldatasize\n      sub\n      dup2\n      add\n      swap1\n      tag_22\n      swap2\n      swap1\n      tag_23\n      jump\t// in\n    tag_22:\n      tag_24\n      jump\t// in\n    tag_21:\n      mload(0x40)\n      tag_25\n      swap2\n      swap1\n      tag_26\n      jump\t// in\n    tag_25:\n      mload(0x40)\n      dup1\n      swap2\n      sub\n      swap1\n      return\n        /* \"contracts/ReputationSystem.sol\":213:262  mapping(address => Reputation) public reputations */\n    tag_10:\n      mstore(0x20, 0x00)\n      dup1\n      0x00\n      mstore\n      keccak256(0x00, 0x40)\n      0x00\n      swap2\n      pop\n      swap1\n      pop\n      dup1\n      0x00\n      add\n      0x00\n      swap1\n      sload\n      swap1\n      0x0100\n      exp\n      swap1\n      div\n      0xffffffffffffffffffffffffffffffffffffffff\n      and\n      swap1\n      dup1\n      0x01\n      add\n      sload\n      swap1\n      pop\n      dup3\n      jump\t// out\n        /* \"contracts/ReputationSystem.sol\":647:1018  function calculateReputation(address scientist, bool approved) public {... */\n    tag_16:\n        /* \"contracts/ReputationSystem.sol\":732:740  approved */\n      dup1\n        /* \"contracts/ReputationSystem.sol\":728:935  if (approved) {... */\n      iszero\n      tag_28\n      jumpi\n        /* \"contracts/ReputationSystem.sol\":789:804  reputationRules */\n      0x01\n        /* \"contracts/ReputationSystem.sol\":789:822  reputationRules[\"approval_bonus\"] */\n      mload(0x40)\n      tag_29\n      swap1\n      tag_30\n      jump\t// in\n    tag_29:\n      swap1\n      dup2\n      mstore\n      0x20\n      add\n      mload(0x40)\n      dup1\n      swap2\n      sub\n      swap1\n      keccak256\n      sload\n        /* \"contracts/ReputationSystem.sol\":757:768  reputations */\n      0x00\n        /* \"contracts/ReputationSystem.sol\":757:779  reputations[scientist] */\n      dup1\n        /* \"contracts/ReputationSystem.sol\":769:778  scientist */\n      dup5\n        /* \"contracts/ReputationSystem.sol\":757:779  reputations[scientist] */\n      0xffffffffffffffffffffffffffffffffffffffff\n      and\n      0xffffffffffffffffffffffffffffffffffffffff\n      and\n      dup2\n      mstore\n      0x20\n      add\n      swap1\n      dup2\n      mstore\n      0x20\n      add\n      0x00\n      keccak256\n        /* \"contracts/ReputationSystem.sol\":757:785  reputations[scientist].score */\n      0x01\n      add\n      0x00\n        /* \"contracts/ReputationSystem.sol\":757:822  reputations[scientist].score += reputationRules[\"approval_bonus\"] */\n      dup3\n      dup3\n      sload\n      tag_31\n      swap2\n      swap1\n      tag_32\n      jump\t// in\n    tag_31:\n      swap3\n      pop\n      pop\n      dup2\n      swap1\n      sstore\n      pop\n        /* \"contracts/ReputationSystem.sol\":728:935  if (approved) {... */\n      jump(tag_33)\n    tag_28:\n        /* \"contracts/ReputationSystem.sol\":887:902  reputationRules */\n      0x01\n        /* \"contracts/ReputationSystem.sol\":887:923  reputationRules[\"rejection_penalty\"] */\n      mload(0x40)\n      tag_34\n      swap1\n      tag_35\n      jump\t// in\n    tag_34:\n      swap1\n      dup2\n      mstore\n      0x20\n      add\n      mload(0x40)\n      dup1\n      swap2\n      sub\n      swap1\n      keccak256\n      sload\n        /* \"contracts/ReputationSystem.sol\":855:866  reputations */\n      0x00\n        /* \"contracts/ReputationSystem.sol\":855:877  reputations[scientist] */\n      dup1\n        /* \"contracts/ReputationSystem.sol\":867:876  scientist */\n      dup5\n        /* \"contracts/ReputationSystem.sol\":855:877  reputations[scientist] */\n      0xffffffffffffffffffffffffffffffffffffffff\n      and\n      0xffffffffffffffffffffffffffffffffffffffff\n      and\n      dup2\n      mstore\n      0x20\n      add\n      swap1\n      dup2\n      mstore\n      0x20\n      add\n      0x00\n      keccak256\n        /* \"contracts/ReputationSystem.sol\":855:883  reputations[scientist].score */\n      0x01\n      add\n      0x00\n        /* \"contracts/ReputationSystem.sol\":855:923  reputations[scientist].score -= reputationRules[\"rejection_penalty\"] */\n      dup3\n      dup3\n      sload\n      tag_36\n      swap2\n      swap1\n      tag_37\n      jump\t// in\n    tag_36:\n      swap3\n      pop\n      pop\n      dup2\n      swap1\n      sstore\n      pop\n        /* \"contracts/ReputationSystem.sol\":728:935  if (approved) {... */\n    tag_33:\n        /* \"contracts/ReputationSystem.sol\":970:979  scientist */\n      dup2\n        /* \"contracts/ReputationSystem.sol\":952:1010  ReputationUpdated(scientist, reputations[scientist].score) */\n      0xffffffffffffffffffffffffffffffffffffffff\n      and\n      0xfc577563f1b9a0461e24abef1e1fcc0d33d3d881f20b5df6dda59de4aae2c821\n        /* \"contracts/ReputationSystem.sol\":981:992  reputations */\n      0x00\n        /* \"contracts/ReputationSystem.sol\":981:1003  reputations[scientist] */\n      dup1\n        /* \"contracts/ReputationSystem.sol\":993:1002  scientist */\n      dup6\n        /* \"contracts/ReputationSystem.sol\":981:1003  reputations[scientist] */\n      0xffffffffffffffffffffffffffffffffffffffff\n      and\n      0xffffffffffffffffffffffffffffffffffffffff\n      and\n      dup2\n      mstore\n      0x20\n      add\n      swap1\n      dup2\n      mstore\n      0x20\n      add\n      0x00\n      keccak256\n        /* \"contracts/ReputationSystem.sol\":981:1009  reputations[scientist].score */\n      0x01\n      add\n      sload\n        /* \"contracts/ReputationSystem.sol\":952:1010  ReputationUpdated(scientist, reputations[scientist].score) */\n      mload(0x40)\n      tag_38\n      swap2\n      swap1\n      tag_26\n      jump\t// in\n    tag_38:\n      mload(0x40)\n      dup1\n      swap2\n      sub\n      swap1\n      log2\n        /* \"contracts/ReputationSystem.sol\":647:1018  function calculateReputation(address scientist, bool approved) public {... */\n      pop\n      pop\n      jump\t// out\n        /* \"contracts/ReputationSystem.sol\":1026:1218  function updateReputationRules(string memory ruleName, uint256 newValue) public {... */\n    tag_20:\n        /* \"contracts/ReputationSystem.sol\":1145:1153  newValue */\n      dup1\n        /* \"contracts/ReputationSystem.sol\":1117:1132  reputationRules */\n      0x01\n        /* \"contracts/ReputationSystem.sol\":1133:1141  ruleName */\n      dup4\n        /* \"contracts/ReputationSystem.sol\":1117:1142  reputationRules[ruleName] */\n      mload(0x40)\n      tag_40\n      swap2\n      swap1\n      tag_41\n      jump\t// in\n    tag_40:\n      swap1\n      dup2\n      mstore\n      0x20\n      add\n      mload(0x40)\n      dup1\n      swap2\n      sub\n      swap1\n      keccak256\n        /* \"contracts/ReputationSystem.sol\":1117:1153  reputationRules[ruleName] = newValue */\n      dup2\n      swap1\n      sstore\n      pop\n        /* \"contracts/ReputationSystem.sol\":1169:1210  ReputationRuleUpdated(ruleName, newValue) */\n      0xd66e632e7d3b0ec9c2bb73cbfb70092ffe2dd6460e4cd48904a561015e730d94\n        /* \"contracts/ReputationSystem.sol\":1191:1199  ruleName */\n      dup3\n        /* \"contracts/ReputationSystem.sol\":1201:1209  newValue */\n      dup3\n        /* \"contracts/ReputationSystem.sol\":1169:1210  ReputationRuleUpdated(ruleName, newValue) */\n      mload(0x40)\n      tag_42\n      swap3\n      swap2\n      swap1\n      tag_43\n      jump\t// in\n    tag_42:\n      mload(0x40)\n      dup1\n      swap2\n      sub\n      swap1\n      log1\n        /* \"contracts/ReputationSystem.sol\":1026:1218  function updateReputationRules(string memory ruleName, uint256 newValue) public {... */\n      pop\n      pop\n      jump\t// out\n        /* \"contracts/ReputationSystem.sol\":269:318  mapping(string => uint256) public reputationRules */\n    tag_24:\n      0x01\n      dup2\n      dup1\n      mload\n      0x20\n      dup2\n      add\n      dup3\n      add\n      dup1\n      mload\n      dup5\n      dup3\n      mstore\n      0x20\n      dup4\n      add\n      0x20\n      dup6\n      add\n      keccak256\n      dup2\n      dup4\n      mstore\n      dup1\n      swap6\n      pop\n      pop\n      pop\n      pop\n      pop\n      pop\n      0x00\n      swap2\n      pop\n      swap1\n      pop\n      sload\n      dup2\n      jump\t// out\n        /* \"#utility.yul\":7:82   */\n    tag_44:\n        /* \"#utility.yul\":40:46   */\n      0x00\n        /* \"#utility.yul\":73:75   */\n      0x40\n        /* \"#utility.yul\":67:76   */\n      mload\n        /* \"#utility.yul\":57:76   */\n      swap1\n      pop\n        /* \"#utility.yul\":7:82   */\n      swap1\n      jump\t// out\n        /* \"#utility.yul\":88:205   */\n    tag_45:\n        /* \"#utility.yul\":197:198   */\n      0x00\n        /* \"#utility.yul\":194:195   */\n      dup1\n        /* \"#utility.yul\":187:199   */\n      revert\n        /* \"#utility.yul\":211:328   */\n    tag_46:\n        /* \"#utility.yul\":320:321   */\n      0x00\n        /* \"#utility.yul\":317:318   */\n      dup1\n        /* \"#utility.yul\":310:322   */\n      revert\n        /* \"#utility.yul\":334:460   */\n    tag_47:\n        /* \"#utility.yul\":371:378   */\n      0x00\n        /* \"#utility.yul\":411:453   */\n      0xffffffffffffffffffffffffffffffffffffffff\n        /* \"#utility.yul\":404:409   */\n      dup3\n        /* \"#utility.yul\":400:454   */\n      and\n        /* \"#utility.yul\":389:454   */\n      swap1\n      pop\n        /* \"#utility.yul\":334:460   */\n      swap2\n      swap1\n      pop\n      jump\t// out\n        /* \"#utility.yul\":466:562   */\n    tag_48:\n        /* \"#utility.yul\":503:510   */\n      0x00\n        /* \"#utility.yul\":532:556   */\n      tag_86\n        /* \"#utility.yul\":550:555   */\n      dup3\n        /* \"#utility.yul\":532:556   */\n      tag_47\n      jump\t// in\n    tag_86:\n        /* \"#utility.yul\":521:556   */\n      swap1\n      pop\n        /* \"#utility.yul\":466:562   */\n      swap2\n      swap1\n      pop\n      jump\t// out\n        /* \"#utility.yul\":568:690   */\n    tag_49:\n        /* \"#utility.yul\":641:665   */\n      tag_88\n        /* \"#utility.yul\":659:664   */\n      dup2\n        /* \"#utility.yul\":641:665   */\n      tag_48\n      jump\t// in\n    tag_88:\n        /* \"#utility.yul\":634:639   */\n      dup2\n        /* \"#utility.yul\":631:666   */\n      eq\n        /* \"#utility.yul\":621:684   */\n      tag_89\n      jumpi\n        /* \"#utility.yul\":680:681   */\n      0x00\n        /* \"#utility.yul\":677:678   */\n      dup1\n        /* \"#utility.yul\":670:682   */\n      revert\n        /* \"#utility.yul\":621:684   */\n    tag_89:\n        /* \"#utility.yul\":568:690   */\n      pop\n      jump\t// out\n        /* \"#utility.yul\":696:835   */\n    tag_50:\n        /* \"#utility.yul\":742:747   */\n      0x00\n        /* \"#utility.yul\":780:786   */\n      dup2\n        /* \"#utility.yul\":767:787   */\n      calldataload\n        /* \"#utility.yul\":758:787   */\n      swap1\n      pop\n        /* \"#utility.yul\":796:829   */\n      tag_91\n        /* \"#utility.yul\":823:828   */\n      dup2\n        /* \"#utility.yul\":796:829   */\n      tag_49\n      jump\t// in\n    tag_91:\n        /* \"#utility.yul\":696:835   */\n      swap3\n      swap2\n      pop\n      pop\n      jump\t// out\n        /* \"#utility.yul\":841:1170   */\n    tag_9:\n        /* \"#utility.yul\":900:906   */\n      0x00\n        /* \"#utility.yul\":949:951   */\n      0x20\n        /* \"#utility.yul\":937:946   */\n      dup3\n        /* \"#utility.yul\":928:935   */\n      dup5\n        /* \"#utility.yul\":924:947   */\n      sub\n        /* \"#utility.yul\":920:952   */\n      slt\n        /* \"#utility.yul\":917:1036   */\n      iszero\n      tag_93\n      jumpi\n        /* \"#utility.yul\":955:1034   */\n      tag_94\n      tag_45\n      jump\t// in\n    tag_94:\n        /* \"#utility.yul\":917:1036   */\n    tag_93:\n        /* \"#utility.yul\":1075:1076   */\n      0x00\n        /* \"#utility.yul\":1100:1153   */\n      tag_95\n        /* \"#utility.yul\":1145:1152   */\n      dup5\n        /* \"#utility.yul\":1136:1142   */\n      dup3\n        /* \"#utility.yul\":1125:1134   */\n      dup6\n        /* \"#utility.yul\":1121:1143   */\n      add\n        /* \"#utility.yul\":1100:1153   */\n      tag_50\n      jump\t// in\n    tag_95:\n        /* \"#utility.yul\":1090:1153   */\n      swap2\n      pop\n        /* \"#utility.yul\":1046:1163   */\n      pop\n        /* \"#utility.yul\":841:1170   */\n      swap3\n      swap2\n      pop\n      pop\n      jump\t// out\n        /* \"#utility.yul\":1176:1294   */\n    tag_51:\n        /* \"#utility.yul\":1263:1287   */\n      tag_97\n        /* \"#utility.yul\":1281:1286   */\n      dup2\n        /* \"#utility.yul\":1263:1287   */\n      tag_48\n      jump\t// in\n    tag_97:\n        /* \"#utility.yul\":1258:1261   */\n      dup3\n        /* \"#utility.yul\":1251:1288   */\n      mstore\n        /* \"#utility.yul\":1176:1294   */\n      pop\n      pop\n      jump\t// out\n        /* \"#utility.yul\":1300:1377   */\n    tag_52:\n        /* \"#utility.yul\":1337:1344   */\n      0x00\n        /* \"#utility.yul\":1366:1371   */\n      dup2\n        /* \"#utility.yul\":1355:1371   */\n      swap1\n      pop\n        /* \"#utility.yul\":1300:1377   */\n      swap2\n      swap1\n      pop\n      jump\t// out\n        /* \"#utility.yul\":1383:1501   */\n    tag_53:\n        /* \"#utility.yul\":1470:1494   */\n      tag_100\n        /* \"#utility.yul\":1488:1493   */\n      dup2\n        /* \"#utility.yul\":1470:1494   */\n      tag_52\n      jump\t// in\n    tag_100:\n        /* \"#utility.yul\":1465:1468   */\n      dup3\n        /* \"#utility.yul\":1458:1495   */\n      mstore\n        /* \"#utility.yul\":1383:1501   */\n      pop\n      pop\n      jump\t// out\n        /* \"#utility.yul\":1507:1839   */\n    tag_12:\n        /* \"#utility.yul\":1628:1632   */\n      0x00\n        /* \"#utility.yul\":1666:1668   */\n      0x40\n        /* \"#utility.yul\":1655:1664   */\n      dup3\n        /* \"#utility.yul\":1651:1669   */\n      add\n        /* \"#utility.yul\":1643:1669   */\n      swap1\n      pop\n        /* \"#utility.yul\":1679:1750   */\n      tag_102\n        /* \"#utility.yul\":1747:1748   */\n      0x00\n        /* \"#utility.yul\":1736:1745   */\n      dup4\n        /* \"#utility.yul\":1732:1749   */\n      add\n        /* \"#utility.yul\":1723:1729   */\n      dup6\n        /* \"#utility.yul\":1679:1750   */\n      tag_51\n      jump\t// in\n    tag_102:\n        /* \"#utility.yul\":1760:1832   */\n      tag_103\n        /* \"#utility.yul\":1828:1830   */\n      0x20\n        /* \"#utility.yul\":1817:1826   */\n      dup4\n        /* \"#utility.yul\":1813:1831   */\n      add\n        /* \"#utility.yul\":1804:1810   */\n      dup5\n        /* \"#utility.yul\":1760:1832   */\n      tag_53\n      jump\t// in\n    tag_103:\n        /* \"#utility.yul\":1507:1839   */\n      swap4\n      swap3\n      pop\n      pop\n      pop\n      jump\t// out\n        /* \"#utility.yul\":1845:1935   */\n    tag_54:\n        /* \"#utility.yul\":1879:1886   */\n      0x00\n        /* \"#utility.yul\":1922:1927   */\n      dup2\n        /* \"#utility.yul\":1915:1928   */\n      iszero\n        /* \"#utility.yul\":1908:1929   */\n      iszero\n        /* \"#utility.yul\":1897:1929   */\n      swap1\n      pop\n        /* \"#utility.yul\":1845:1935   */\n      swap2\n      swap1\n      pop\n      jump\t// out\n        /* \"#utility.yul\":1941:2057   */\n    tag_55:\n        /* \"#utility.yul\":2011:2032   */\n      tag_106\n        /* \"#utility.yul\":2026:2031   */\n      dup2\n        /* \"#utility.yul\":2011:2032   */\n      tag_54\n      jump\t// in\n    tag_106:\n        /* \"#utility.yul\":2004:2009   */\n      dup2\n        /* \"#utility.yul\":2001:2033   */\n      eq\n        /* \"#utility.yul\":1991:2051   */\n      tag_107\n      jumpi\n        /* \"#utility.yul\":2047:2048   */\n      0x00\n        /* \"#utility.yul\":2044:2045   */\n      dup1\n        /* \"#utility.yul\":2037:2049   */\n      revert\n        /* \"#utility.yul\":1991:2051   */\n    tag_107:\n        /* \"#utility.yul\":1941:2057   */\n      pop\n      jump\t// out\n        /* \"#utility.yul\":2063:2196   */\n    tag_56:\n        /* \"#utility.yul\":2106:2111   */\n      0x00\n        /* \"#utility.yul\":2144:2150   */\n      dup2\n        /* \"#utility.yul\":2131:2151   */\n      calldataload\n        /* \"#utility.yul\":2122:2151   */\n      swap1\n      pop\n        /* \"#utility.yul\":2160:2190   */\n      tag_109\n        /* \"#utility.yul\":2184:2189   */\n      dup2\n        /* \"#utility.yul\":2160:2190   */\n      tag_55\n      jump\t// in\n    tag_109:\n        /* \"#utility.yul\":2063:2196   */\n      swap3\n      swap2\n      pop\n      pop\n      jump\t// out\n        /* \"#utility.yul\":2202:2670   */\n    tag_15:\n        /* \"#utility.yul\":2267:2273   */\n      0x00\n        /* \"#utility.yul\":2275:2281   */\n      dup1\n        /* \"#utility.yul\":2324:2326   */\n      0x40\n        /* \"#utility.yul\":2312:2321   */\n      dup4\n        /* \"#utility.yul\":2303:2310   */\n      dup6\n        /* \"#utility.yul\":2299:2322   */\n      sub\n        /* \"#utility.yul\":2295:2327   */\n      slt\n        /* \"#utility.yul\":2292:2411   */\n      iszero\n      tag_111\n      jumpi\n        /* \"#utility.yul\":2330:2409   */\n      tag_112\n      tag_45\n      jump\t// in\n    tag_112:\n        /* \"#utility.yul\":2292:2411   */\n    tag_111:\n        /* \"#utility.yul\":2450:2451   */\n      0x00\n        /* \"#utility.yul\":2475:2528   */\n      tag_113\n        /* \"#utility.yul\":2520:2527   */\n      dup6\n        /* \"#utility.yul\":2511:2517   */\n      dup3\n        /* \"#utility.yul\":2500:2509   */\n      dup7\n        /* \"#utility.yul\":2496:2518   */\n      add\n        /* \"#utility.yul\":2475:2528   */\n      tag_50\n      jump\t// in\n    tag_113:\n        /* \"#utility.yul\":2465:2528   */\n      swap3\n      pop\n        /* \"#utility.yul\":2421:2538   */\n      pop\n        /* \"#utility.yul\":2577:2579   */\n      0x20\n        /* \"#utility.yul\":2603:2653   */\n      tag_114\n        /* \"#utility.yul\":2645:2652   */\n      dup6\n        /* \"#utility.yul\":2636:2642   */\n      dup3\n        /* \"#utility.yul\":2625:2634   */\n      dup7\n        /* \"#utility.yul\":2621:2643   */\n      add\n        /* \"#utility.yul\":2603:2653   */\n      tag_56\n      jump\t// in\n    tag_114:\n        /* \"#utility.yul\":2593:2653   */\n      swap2\n      pop\n        /* \"#utility.yul\":2548:2663   */\n      pop\n        /* \"#utility.yul\":2202:2670   */\n      swap3\n      pop\n      swap3\n      swap1\n      pop\n      jump\t// out\n        /* \"#utility.yul\":2676:2793   */\n    tag_57:\n        /* \"#utility.yul\":2785:2786   */\n      0x00\n        /* \"#utility.yul\":2782:2783   */\n      dup1\n        /* \"#utility.yul\":2775:2787   */\n      revert\n        /* \"#utility.yul\":2799:2916   */\n    tag_58:\n        /* \"#utility.yul\":2908:2909   */\n      0x00\n        /* \"#utility.yul\":2905:2906   */\n      dup1\n        /* \"#utility.yul\":2898:2910   */\n      revert\n        /* \"#utility.yul\":2922:3024   */\n    tag_59:\n        /* \"#utility.yul\":2963:2969   */\n      0x00\n        /* \"#utility.yul\":3014:3016   */\n      0x1f\n        /* \"#utility.yul\":3010:3017   */\n      not\n        /* \"#utility.yul\":3005:3007   */\n      0x1f\n        /* \"#utility.yul\":2998:3003   */\n      dup4\n        /* \"#utility.yul\":2994:3008   */\n      add\n        /* \"#utility.yul\":2990:3018   */\n      and\n        /* \"#utility.yul\":2980:3018   */\n      swap1\n      pop\n        /* \"#utility.yul\":2922:3024   */\n      swap2\n      swap1\n      pop\n      jump\t// out\n        /* \"#utility.yul\":3030:3210   */\n    tag_60:\n        /* \"#utility.yul\":3078:3155   */\n      0x4e487b7100000000000000000000000000000000000000000000000000000000\n        /* \"#utility.yul\":3075:3076   */\n      0x00\n        /* \"#utility.yul\":3068:3156   */\n      mstore\n        /* \"#utility.yul\":3175:3179   */\n      0x41\n        /* \"#utility.yul\":3172:3173   */\n      0x04\n        /* \"#utility.yul\":3165:3180   */\n      mstore\n        /* \"#utility.yul\":3199:3203   */\n      0x24\n        /* \"#utility.yul\":3196:3197   */\n      0x00\n        /* \"#utility.yul\":3189:3204   */\n      revert\n        /* \"#utility.yul\":3216:3497   */\n    tag_61:\n        /* \"#utility.yul\":3299:3326   */\n      tag_120\n        /* \"#utility.yul\":3321:3325   */\n      dup3\n        /* \"#utility.yul\":3299:3326   */\n      tag_59\n      jump\t// in\n    tag_120:\n        /* \"#utility.yul\":3291:3297   */\n      dup2\n        /* \"#utility.yul\":3287:3327   */\n      add\n        /* \"#utility.yul\":3429:3435   */\n      dup2\n        /* \"#utility.yul\":3417:3427   */\n      dup2\n        /* \"#utility.yul\":3414:3436   */\n      lt\n        /* \"#utility.yul\":3393:3411   */\n      0xffffffffffffffff\n        /* \"#utility.yul\":3381:3391   */\n      dup3\n        /* \"#utility.yul\":3378:3412   */\n      gt\n        /* \"#utility.yul\":3375:3437   */\n      or\n        /* \"#utility.yul\":3372:3460   */\n      iszero\n      tag_121\n      jumpi\n        /* \"#utility.yul\":3440:3458   */\n      tag_122\n      tag_60\n      jump\t// in\n    tag_122:\n        /* \"#utility.yul\":3372:3460   */\n    tag_121:\n        /* \"#utility.yul\":3480:3490   */\n      dup1\n        /* \"#utility.yul\":3476:3478   */\n      0x40\n        /* \"#utility.yul\":3469:3491   */\n      mstore\n        /* \"#utility.yul\":3259:3497   */\n      pop\n        /* \"#utility.yul\":3216:3497   */\n      pop\n      pop\n      jump\t// out\n        /* \"#utility.yul\":3503:3632   */\n    tag_62:\n        /* \"#utility.yul\":3537:3543   */\n      0x00\n        /* \"#utility.yul\":3564:3584   */\n      tag_124\n      tag_44\n      jump\t// in\n    tag_124:\n        /* \"#utility.yul\":3554:3584   */\n      swap1\n      pop\n        /* \"#utility.yul\":3593:3626   */\n      tag_125\n        /* \"#utility.yul\":3621:3625   */\n      dup3\n        /* \"#utility.yul\":3613:3619   */\n      dup3\n        /* \"#utility.yul\":3593:3626   */\n      tag_61\n      jump\t// in\n    tag_125:\n        /* \"#utility.yul\":3503:3632   */\n      swap2\n      swap1\n      pop\n      jump\t// out\n        /* \"#utility.yul\":3638:3946   */\n    tag_63:\n        /* \"#utility.yul\":3700:3704   */\n      0x00\n        /* \"#utility.yul\":3790:3808   */\n      0xffffffffffffffff\n        /* \"#utility.yul\":3782:3788   */\n      dup3\n        /* \"#utility.yul\":3779:3809   */\n      gt\n        /* \"#utility.yul\":3776:3832   */\n      iszero\n      tag_127\n      jumpi\n        /* \"#utility.yul\":3812:3830   */\n      tag_128\n      tag_60\n      jump\t// in\n    tag_128:\n        /* \"#utility.yul\":3776:3832   */\n    tag_127:\n        /* \"#utility.yul\":3850:3879   */\n      tag_129\n        /* \"#utility.yul\":3872:3878   */\n      dup3\n        /* \"#utility.yul\":3850:3879   */\n      tag_59\n      jump\t// in\n    tag_129:\n        /* \"#utility.yul\":3842:3879   */\n      swap1\n      pop\n        /* \"#utility.yul\":3934:3938   */\n      0x20\n        /* \"#utility.yul\":3928:3932   */\n      dup2\n        /* \"#utility.yul\":3924:3939   */\n      add\n        /* \"#utility.yul\":3916:3939   */\n      swap1\n      pop\n        /* \"#utility.yul\":3638:3946   */\n      swap2\n      swap1\n      pop\n      jump\t// out\n        /* \"#utility.yul\":3952:4100   */\n    tag_64:\n        /* \"#utility.yul\":4050:4056   */\n      dup3\n        /* \"#utility.yul\":4045:4048   */\n      dup2\n        /* \"#utility.yul\":4040:4043   */\n      dup4\n        /* \"#utility.yul\":4027:4057   */\n      calldatacopy\n        /* \"#utility.yul\":4091:4092   */\n      0x00\n        /* \"#utility.yul\":4082:4088   */\n      dup4\n        /* \"#utility.yul\":4077:4080   */\n      dup4\n        /* \"#utility.yul\":4073:4089   */\n      add\n        /* \"#utility.yul\":4066:4093   */\n      mstore\n        /* \"#utility.yul\":3952:4100   */\n      pop\n      pop\n      pop\n      jump\t// out\n        /* \"#utility.yul\":4106:4531   */\n    tag_65:\n        /* \"#utility.yul\":4184:4189   */\n      0x00\n        /* \"#utility.yul\":4209:4275   */\n      tag_132\n        /* \"#utility.yul\":4225:4274   */\n      tag_133\n        /* \"#utility.yul\":4267:4273   */\n      dup5\n        /* \"#utility.yul\":4225:4274   */\n      tag_63\n      jump\t// in\n    tag_133:\n        /* \"#utility.yul\":4209:4275   */\n      tag_62\n      jump\t// in\n    tag_132:\n        /* \"#utility.yul\":4200:4275   */\n      swap1\n      pop\n        /* \"#utility.yul\":4298:4304   */\n      dup3\n        /* \"#utility.yul\":4291:4296   */\n      dup2\n        /* \"#utility.yul\":4284:4305   */\n      mstore\n        /* \"#utility.yul\":4336:4340   */\n      0x20\n        /* \"#utility.yul\":4329:4334   */\n      dup2\n        /* \"#utility.yul\":4325:4341   */\n      add\n        /* \"#utility.yul\":4374:4377   */\n      dup5\n        /* \"#utility.yul\":4365:4371   */\n      dup5\n        /* \"#utility.yul\":4360:4363   */\n      dup5\n        /* \"#utility.yul\":4356:4372   */\n      add\n        /* \"#utility.yul\":4353:4378   */\n      gt\n        /* \"#utility.yul\":4350:4462   */\n      iszero\n      tag_134\n      jumpi\n        /* \"#utility.yul\":4381:4460   */\n      tag_135\n      tag_58\n      jump\t// in\n    tag_135:\n        /* \"#utility.yul\":4350:4462   */\n    tag_134:\n        /* \"#utility.yul\":4471:4525   */\n      tag_136\n        /* \"#utility.yul\":4518:4524   */\n      dup5\n        /* \"#utility.yul\":4513:4516   */\n      dup3\n        /* \"#utility.yul\":4508:4511   */\n      dup6\n        /* \"#utility.yul\":4471:4525   */\n      tag_64\n      jump\t// in\n    tag_136:\n        /* \"#utility.yul\":4190:4531   */\n      pop\n        /* \"#utility.yul\":4106:4531   */\n      swap4\n      swap3\n      pop\n      pop\n      pop\n      jump\t// out\n        /* \"#utility.yul\":4551:4891   */\n    tag_66:\n        /* \"#utility.yul\":4607:4612   */\n      0x00\n        /* \"#utility.yul\":4656:4659   */\n      dup3\n        /* \"#utility.yul\":4649:4653   */\n      0x1f\n        /* \"#utility.yul\":4641:4647   */\n      dup4\n        /* \"#utility.yul\":4637:4654   */\n      add\n        /* \"#utility.yul\":4633:4660   */\n      slt\n        /* \"#utility.yul\":4623:4745   */\n      tag_138\n      jumpi\n        /* \"#utility.yul\":4664:4743   */\n      tag_139\n      tag_57\n      jump\t// in\n    tag_139:\n        /* \"#utility.yul\":4623:4745   */\n    tag_138:\n        /* \"#utility.yul\":4781:4787   */\n      dup2\n        /* \"#utility.yul\":4768:4788   */\n      calldataload\n        /* \"#utility.yul\":4806:4885   */\n      tag_140\n        /* \"#utility.yul\":4881:4884   */\n      dup5\n        /* \"#utility.yul\":4873:4879   */\n      dup3\n        /* \"#utility.yul\":4866:4870   */\n      0x20\n        /* \"#utility.yul\":4858:4864   */\n      dup7\n        /* \"#utility.yul\":4854:4871   */\n      add\n        /* \"#utility.yul\":4806:4885   */\n      tag_65\n      jump\t// in\n    tag_140:\n        /* \"#utility.yul\":4797:4885   */\n      swap2\n      pop\n        /* \"#utility.yul\":4613:4891   */\n      pop\n        /* \"#utility.yul\":4551:4891   */\n      swap3\n      swap2\n      pop\n      pop\n      jump\t// out\n        /* \"#utility.yul\":4897:5019   */\n    tag_67:\n        /* \"#utility.yul\":4970:4994   */\n      tag_142\n        /* \"#utility.yul\":4988:4993   */\n      dup2\n        /* \"#utility.yul\":4970:4994   */\n      tag_52\n      jump\t// in\n    tag_142:\n        /* \"#utility.yul\":4963:4968   */\n      dup2\n        /* \"#utility.yul\":4960:4995   */\n      eq\n        /* \"#utility.yul\":4950:5013   */\n      tag_143\n      jumpi\n        /* \"#utility.yul\":5009:5010   */\n      0x00\n        /* \"#utility.yul\":5006:5007   */\n      dup1\n        /* \"#utility.yul\":4999:5011   */\n      revert\n        /* \"#utility.yul\":4950:5013   */\n    tag_143:\n        /* \"#utility.yul\":4897:5019   */\n      pop\n      jump\t// out\n        /* \"#utility.yul\":5025:5164   */\n    tag_68:\n        /* \"#utility.yul\":5071:5076   */\n      0x00\n        /* \"#utility.yul\":5109:5115   */\n      dup2\n        /* \"#utility.yul\":5096:5116   */\n      calldataload\n        /* \"#utility.yul\":5087:5116   */\n      swap1\n      pop\n        /* \"#utility.yul\":5125:5158   */\n      tag_145\n        /* \"#utility.yul\":5152:5157   */\n      dup2\n        /* \"#utility.yul\":5125:5158   */\n      tag_67\n      jump\t// in\n    tag_145:\n        /* \"#utility.yul\":5025:5164   */\n      swap3\n      swap2\n      pop\n      pop\n      jump\t// out\n        /* \"#utility.yul\":5170:5824   */\n    tag_19:\n        /* \"#utility.yul\":5248:5254   */\n      0x00\n        /* \"#utility.yul\":5256:5262   */\n      dup1\n        /* \"#utility.yul\":5305:5307   */\n      0x40\n        /* \"#utility.yul\":5293:5302   */\n      dup4\n        /* \"#utility.yul\":5284:5291   */\n      dup6\n        /* \"#utility.yul\":5280:5303   */\n      sub\n        /* \"#utility.yul\":5276:5308   */\n      slt\n        /* \"#utility.yul\":5273:5392   */\n      iszero\n      tag_147\n      jumpi\n        /* \"#utility.yul\":5311:5390   */\n      tag_148\n      tag_45\n      jump\t// in\n    tag_148:\n        /* \"#utility.yul\":5273:5392   */\n    tag_147:\n        /* \"#utility.yul\":5459:5460   */\n      0x00\n        /* \"#utility.yul\":5448:5457   */\n      dup4\n        /* \"#utility.yul\":5444:5461   */\n      add\n        /* \"#utility.yul\":5431:5462   */\n      calldataload\n        /* \"#utility.yul\":5489:5507   */\n      0xffffffffffffffff\n        /* \"#utility.yul\":5481:5487   */\n      dup2\n        /* \"#utility.yul\":5478:5508   */\n      gt\n        /* \"#utility.yul\":5475:5592   */\n      iszero\n      tag_149\n      jumpi\n        /* \"#utility.yul\":5511:5590   */\n      tag_150\n      tag_46\n      jump\t// in\n    tag_150:\n        /* \"#utility.yul\":5475:5592   */\n    tag_149:\n        /* \"#utility.yul\":5616:5679   */\n      tag_151\n        /* \"#utility.yul\":5671:5678   */\n      dup6\n        /* \"#utility.yul\":5662:5668   */\n      dup3\n        /* \"#utility.yul\":5651:5660   */\n      dup7\n        /* \"#utility.yul\":5647:5669   */\n      add\n        /* \"#utility.yul\":5616:5679   */\n      tag_66\n      jump\t// in\n    tag_151:\n        /* \"#utility.yul\":5606:5679   */\n      swap3\n      pop\n        /* \"#utility.yul\":5402:5689   */\n      pop\n        /* \"#utility.yul\":5728:5730   */\n      0x20\n        /* \"#utility.yul\":5754:5807   */\n      tag_152\n        /* \"#utility.yul\":5799:5806   */\n      dup6\n        /* \"#utility.yul\":5790:5796   */\n      dup3\n        /* \"#utility.yul\":5779:5788   */\n      dup7\n        /* \"#utility.yul\":5775:5797   */\n      add\n        /* \"#utility.yul\":5754:5807   */\n      tag_68\n      jump\t// in\n    tag_152:\n        /* \"#utility.yul\":5744:5807   */\n      swap2\n      pop\n        /* \"#utility.yul\":5699:5817   */\n      pop\n        /* \"#utility.yul\":5170:5824   */\n      swap3\n      pop\n      swap3\n      swap1\n      pop\n      jump\t// out\n        /* \"#utility.yul\":5830:6339   */\n    tag_23:\n        /* \"#utility.yul\":5899:5905   */\n      0x00\n        /* \"#utility.yul\":5948:5950   */\n      0x20\n        /* \"#utility.yul\":5936:5945   */\n      dup3\n        /* \"#utility.yul\":5927:5934   */\n      dup5\n        /* \"#utility.yul\":5923:5946   */\n      sub\n        /* \"#utility.yul\":5919:5951   */\n      slt\n        /* \"#utility.yul\":5916:6035   */\n      iszero\n      tag_154\n      jumpi\n        /* \"#utility.yul\":5954:6033   */\n      tag_155\n      tag_45\n      jump\t// in\n    tag_155:\n        /* \"#utility.yul\":5916:6035   */\n    tag_154:\n        /* \"#utility.yul\":6102:6103   */\n      0x00\n        /* \"#utility.yul\":6091:6100   */\n      dup3\n        /* \"#utility.yul\":6087:6104   */\n      add\n        /* \"#utility.yul\":6074:6105   */\n      calldataload\n        /* \"#utility.yul\":6132:6150   */\n      0xffffffffffffffff\n        /* \"#utility.yul\":6124:6130   */\n      dup2\n        /* \"#utility.yul\":6121:6151   */\n      gt\n        /* \"#utility.yul\":6118:6235   */\n      iszero\n      tag_156\n      jumpi\n        /* \"#utility.yul\":6154:6233   */\n      tag_157\n      tag_46\n      jump\t// in\n    tag_157:\n        /* \"#utility.yul\":6118:6235   */\n    tag_156:\n        /* \"#utility.yul\":6259:6322   */\n      tag_158\n        /* \"#utility.yul\":6314:6321   */\n      dup5\n        /* \"#utility.yul\":6305:6311   */\n      dup3\n        /* \"#utility.yul\":6294:6303   */\n      dup6\n        /* \"#utility.yul\":6290:6312   */\n      add\n        /* \"#utility.yul\":6259:6322   */\n      tag_66\n      jump\t// in\n    tag_158:\n        /* \"#utility.yul\":6249:6322   */\n      swap2\n      pop\n        /* \"#utility.yul\":6045:6332   */\n      pop\n        /* \"#utility.yul\":5830:6339   */\n      swap3\n      swap2\n      pop\n      pop\n      jump\t// out\n        /* \"#utility.yul\":6345:6567   */\n    tag_26:\n        /* \"#utility.yul\":6438:6442   */\n      0x00\n        /* \"#utility.yul\":6476:6478   */\n      0x20\n        /* \"#utility.yul\":6465:6474   */\n      dup3\n        /* \"#utility.yul\":6461:6479   */\n      add\n        /* \"#utility.yul\":6453:6479   */\n      swap1\n      pop\n        /* \"#utility.yul\":6489:6560   */\n      tag_160\n        /* \"#utility.yul\":6557:6558   */\n      0x00\n        /* \"#utility.yul\":6546:6555   */\n      dup4\n        /* \"#utility.yul\":6542:6559   */\n      add\n        /* \"#utility.yul\":6533:6539   */\n      dup5\n        /* \"#utility.yul\":6489:6560   */\n      tag_53\n      jump\t// in\n    tag_160:\n        /* \"#utility.yul\":6345:6567   */\n      swap3\n      swap2\n      pop\n      pop\n      jump\t// out\n        /* \"#utility.yul\":6573:6721   */\n    tag_69:\n        /* \"#utility.yul\":6675:6686   */\n      0x00\n        /* \"#utility.yul\":6712:6715   */\n      dup2\n        /* \"#utility.yul\":6697:6715   */\n      swap1\n      pop\n        /* \"#utility.yul\":6573:6721   */\n      swap3\n      swap2\n      pop\n      pop\n      jump\t// out\n        /* \"#utility.yul\":6727:6891   */\n    tag_70:\n        /* \"#utility.yul\":6867:6883   */\n      0x617070726f76616c5f626f6e7573000000000000000000000000000000000000\n        /* \"#utility.yul\":6863:6864   */\n      0x00\n        /* \"#utility.yul\":6855:6861   */\n      dup3\n        /* \"#utility.yul\":6851:6865   */\n      add\n        /* \"#utility.yul\":6844:6884   */\n      mstore\n        /* \"#utility.yul\":6727:6891   */\n      pop\n      jump\t// out\n        /* \"#utility.yul\":6897:7299   */\n    tag_71:\n        /* \"#utility.yul\":7057:7060   */\n      0x00\n        /* \"#utility.yul\":7078:7163   */\n      tag_164\n        /* \"#utility.yul\":7160:7162   */\n      0x0e\n        /* \"#utility.yul\":7155:7158   */\n      dup4\n        /* \"#utility.yul\":7078:7163   */\n      tag_69\n      jump\t// in\n    tag_164:\n        /* \"#utility.yul\":7071:7163   */\n      swap2\n      pop\n        /* \"#utility.yul\":7172:7265   */\n      tag_165\n        /* \"#utility.yul\":7261:7264   */\n      dup3\n        /* \"#utility.yul\":7172:7265   */\n      tag_70\n      jump\t// in\n    tag_165:\n        /* \"#utility.yul\":7290:7292   */\n      0x0e\n        /* \"#utility.yul\":7285:7288   */\n      dup3\n        /* \"#utility.yul\":7281:7293   */\n      add\n        /* \"#utility.yul\":7274:7293   */\n      swap1\n      pop\n        /* \"#utility.yul\":6897:7299   */\n      swap2\n      swap1\n      pop\n      jump\t// out\n        /* \"#utility.yul\":7305:7686   */\n    tag_30:\n        /* \"#utility.yul\":7490:7493   */\n      0x00\n        /* \"#utility.yul\":7512:7660   */\n      tag_167\n        /* \"#utility.yul\":7656:7659   */\n      dup3\n        /* \"#utility.yul\":7512:7660   */\n      tag_71\n      jump\t// in\n    tag_167:\n        /* \"#utility.yul\":7505:7660   */\n      swap2\n      pop\n        /* \"#utility.yul\":7677:7680   */\n      dup2\n        /* \"#utility.yul\":7670:7680   */\n      swap1\n      pop\n        /* \"#utility.yul\":7305:7686   */\n      swap2\n      swap1\n      pop\n      jump\t// out\n        /* \"#utility.yul\":7692:7872   */\n    tag_72:\n        /* \"#utility.yul\":7740:7817   */\n      0x4e487b7100000000000000000000000000000000000000000000000000000000\n        /* \"#utility.yul\":7737:7738   */\n      0x00\n        /* \"#utility.yul\":7730:7818   */\n      mstore\n        /* \"#utility.yul\":7837:7841   */\n      0x11\n        /* \"#utility.yul\":7834:7835   */\n      0x04\n        /* \"#utility.yul\":7827:7842   */\n      mstore\n        /* \"#utility.yul\":7861:7865   */\n      0x24\n        /* \"#utility.yul\":7858:7859   */\n      0x00\n        /* \"#utility.yul\":7851:7866   */\n      revert\n        /* \"#utility.yul\":7878:8069   */\n    tag_32:\n        /* \"#utility.yul\":7918:7921   */\n      0x00\n        /* \"#utility.yul\":7937:7957   */\n      tag_170\n        /* \"#utility.yul\":7955:7956   */\n      dup3\n        /* \"#utility.yul\":7937:7957   */\n      tag_52\n      jump\t// in\n    tag_170:\n        /* \"#utility.yul\":7932:7957   */\n      swap2\n      pop\n        /* \"#utility.yul\":7971:7991   */\n      tag_171\n        /* \"#utility.yul\":7989:7990   */\n      dup4\n        /* \"#utility.yul\":7971:7991   */\n      tag_52\n      jump\t// in\n    tag_171:\n        /* \"#utility.yul\":7966:7991   */\n      swap3\n      pop\n        /* \"#utility.yul\":8014:8015   */\n      dup3\n        /* \"#utility.yul\":8011:8012   */\n      dup3\n        /* \"#utility.yul\":8007:8016   */\n      add\n        /* \"#utility.yul\":8000:8016   */\n      swap1\n      pop\n        /* \"#utility.yul\":8035:8038   */\n      dup1\n        /* \"#utility.yul\":8032:8033   */\n      dup3\n        /* \"#utility.yul\":8029:8039   */\n      gt\n        /* \"#utility.yul\":8026:8062   */\n      iszero\n      tag_172\n      jumpi\n        /* \"#utility.yul\":8042:8060   */\n      tag_173\n      tag_72\n      jump\t// in\n    tag_173:\n        /* \"#utility.yul\":8026:8062   */\n    tag_172:\n        /* \"#utility.yul\":7878:8069   */\n      swap3\n      swap2\n      pop\n      pop\n      jump\t// out\n        /* \"#utility.yul\":8075:8242   */\n    tag_73:\n        /* \"#utility.yul\":8215:8234   */\n      0x72656a656374696f6e5f70656e616c7479000000000000000000000000000000\n        /* \"#utility.yul\":8211:8212   */\n      0x00\n        /* \"#utility.yul\":8203:8209   */\n      dup3\n        /* \"#utility.yul\":8199:8213   */\n      add\n        /* \"#utility.yul\":8192:8235   */\n      mstore\n        /* \"#utility.yul\":8075:8242   */\n      pop\n      jump\t// out\n        /* \"#utility.yul\":8248:8650   */\n    tag_74:\n        /* \"#utility.yul\":8408:8411   */\n      0x00\n        /* \"#utility.yul\":8429:8514   */\n      tag_176\n        /* \"#utility.yul\":8511:8513   */\n      0x11\n        /* \"#utility.yul\":8506:8509   */\n      dup4\n        /* \"#utility.yul\":8429:8514   */\n      tag_69\n      jump\t// in\n    tag_176:\n        /* \"#utility.yul\":8422:8514   */\n      swap2\n      pop\n        /* \"#utility.yul\":8523:8616   */\n      tag_177\n        /* \"#utility.yul\":8612:8615   */\n      dup3\n        /* \"#utility.yul\":8523:8616   */\n      tag_73\n      jump\t// in\n    tag_177:\n        /* \"#utility.yul\":8641:8643   */\n      0x11\n        /* \"#utility.yul\":8636:8639   */\n      dup3\n        /* \"#utility.yul\":8632:8644   */\n      add\n        /* \"#utility.yul\":8625:8644   */\n      swap1\n      pop\n        /* \"#utility.yul\":8248:8650   */\n      swap2\n      swap1\n      pop\n      jump\t// out\n        /* \"#utility.yul\":8656:9037   */\n    tag_35:\n        /* \"#utility.yul\":8841:8844   */\n      0x00\n        /* \"#utility.yul\":8863:9011   */\n      tag_179\n        /* \"#utility.yul\":9007:9010   */\n      dup3\n        /* \"#utility.yul\":8863:9011   */\n      tag_74\n      jump\t// in\n    tag_179:\n        /* \"#utility.yul\":8856:9011   */\n      swap2\n      pop\n        /* \"#utility.yul\":9028:9031   */\n      dup2\n        /* \"#utility.yul\":9021:9031   */\n      swap1\n      pop\n        /* \"#utility.yul\":8656:9037   */\n      swap2\n      swap1\n      pop\n      jump\t// out\n        /* \"#utility.yul\":9043:9237   */\n    tag_37:\n        /* \"#utility.yul\":9083:9087   */\n      0x00\n        /* \"#utility.yul\":9103:9123   */\n      tag_181\n        /* \"#utility.yul\":9121:9122   */\n      dup3\n        /* \"#utility.yul\":9103:9123   */\n      tag_52\n      jump\t// in\n    tag_181:\n        /* \"#utility.yul\":9098:9123   */\n      swap2\n      pop\n        /* \"#utility.yul\":9137:9157   */\n      tag_182\n        /* \"#utility.yul\":9155:9156   */\n      dup4\n        /* \"#utility.yul\":9137:9157   */\n      tag_52\n      jump\t// in\n    tag_182:\n        /* \"#utility.yul\":9132:9157   */\n      swap3\n      pop\n        /* \"#utility.yul\":9181:9182   */\n      dup3\n        /* \"#utility.yul\":9178:9179   */\n      dup3\n        /* \"#utility.yul\":9174:9183   */\n      sub\n        /* \"#utility.yul\":9166:9183   */\n      swap1\n      pop\n        /* \"#utility.yul\":9205:9206   */\n      dup2\n        /* \"#utility.yul\":9199:9203   */\n      dup2\n        /* \"#utility.yul\":9196:9207   */\n      gt\n        /* \"#utility.yul\":9193:9230   */\n      iszero\n      tag_183\n      jumpi\n        /* \"#utility.yul\":9210:9228   */\n      tag_184\n      tag_72\n      jump\t// in\n    tag_184:\n        /* \"#utility.yul\":9193:9230   */\n    tag_183:\n        /* \"#utility.yul\":9043:9237   */\n      swap3\n      swap2\n      pop\n      pop\n      jump\t// out\n        /* \"#utility.yul\":9243:9342   */\n    tag_75:\n        /* \"#utility.yul\":9295:9301   */\n      0x00\n        /* \"#utility.yul\":9329:9334   */\n      dup2\n        /* \"#utility.yul\":9323:9335   */\n      mload\n        /* \"#utility.yul\":9313:9335   */\n      swap1\n      pop\n        /* \"#utility.yul\":9243:9342   */\n      swap2\n      swap1\n      pop\n      jump\t// out\n        /* \"#utility.yul\":9348:9487   */\n    tag_76:\n        /* \"#utility.yul\":9437:9443   */\n      dup3\n        /* \"#utility.yul\":9432:9435   */\n      dup2\n        /* \"#utility.yul\":9427:9430   */\n      dup4\n        /* \"#utility.yul\":9421:9444   */\n      mcopy\n        /* \"#utility.yul\":9478:9479   */\n      0x00\n        /* \"#utility.yul\":9469:9475   */\n      dup4\n        /* \"#utility.yul\":9464:9467   */\n      dup4\n        /* \"#utility.yul\":9460:9476   */\n      add\n        /* \"#utility.yul\":9453:9480   */\n      mstore\n        /* \"#utility.yul\":9348:9487   */\n      pop\n      pop\n      pop\n      jump\t// out\n        /* \"#utility.yul\":9493:9883   */\n    tag_77:\n        /* \"#utility.yul\":9599:9602   */\n      0x00\n        /* \"#utility.yul\":9627:9666   */\n      tag_188\n        /* \"#utility.yul\":9660:9665   */\n      dup3\n        /* \"#utility.yul\":9627:9666   */\n      tag_75\n      jump\t// in\n    tag_188:\n        /* \"#utility.yul\":9682:9771   */\n      tag_189\n        /* \"#utility.yul\":9764:9770   */\n      dup2\n        /* \"#utility.yul\":9759:9762   */\n      dup6\n        /* \"#utility.yul\":9682:9771   */\n      tag_69\n      jump\t// in\n    tag_189:\n        /* \"#utility.yul\":9675:9771   */\n      swap4\n      pop\n        /* \"#utility.yul\":9780:9845   */\n      tag_190\n        /* \"#utility.yul\":9838:9844   */\n      dup2\n        /* \"#utility.yul\":9833:9836   */\n      dup6\n        /* \"#utility.yul\":9826:9830   */\n      0x20\n        /* \"#utility.yul\":9819:9824   */\n      dup7\n        /* \"#utility.yul\":9815:9831   */\n      add\n        /* \"#utility.yul\":9780:9845   */\n      tag_76\n      jump\t// in\n    tag_190:\n        /* \"#utility.yul\":9870:9876   */\n      dup1\n        /* \"#utility.yul\":9865:9868   */\n      dup5\n        /* \"#utility.yul\":9861:9877   */\n      add\n        /* \"#utility.yul\":9854:9877   */\n      swap2\n      pop\n        /* \"#utility.yul\":9603:9883   */\n      pop\n        /* \"#utility.yul\":9493:9883   */\n      swap3\n      swap2\n      pop\n      pop\n      jump\t// out\n        /* \"#utility.yul\":9889:10164   */\n    tag_41:\n        /* \"#utility.yul\":10021:10024   */\n      0x00\n        /* \"#utility.yul\":10043:10138   */\n      tag_192\n        /* \"#utility.yul\":10134:10137   */\n      dup3\n        /* \"#utility.yul\":10125:10131   */\n      dup5\n        /* \"#utility.yul\":10043:10138   */\n      tag_77\n      jump\t// in\n    tag_192:\n        /* \"#utility.yul\":10036:10138   */\n      swap2\n      pop\n        /* \"#utility.yul\":10155:10158   */\n      dup2\n        /* \"#utility.yul\":10148:10158   */\n      swap1\n      pop\n        /* \"#utility.yul\":9889:10164   */\n      swap3\n      swap2\n      pop\n      pop\n      jump\t// out\n        /* \"#utility.yul\":10170:10339   */\n    tag_78:\n        /* \"#utility.yul\":10254:10265   */\n      0x00\n        /* \"#utility.yul\":10288:10294   */\n      dup3\n        /* \"#utility.yul\":10283:10286   */\n      dup3\n        /* \"#utility.yul\":10276:10295   */\n      mstore\n        /* \"#utility.yul\":10328:10332   */\n      0x20\n        /* \"#utility.yul\":10323:10326   */\n      dup3\n        /* \"#utility.yul\":10319:10333   */\n      add\n        /* \"#utility.yul\":10304:10333   */\n      swap1\n      pop\n        /* \"#utility.yul\":10170:10339   */\n      swap3\n      swap2\n      pop\n      pop\n      jump\t// out\n        /* \"#utility.yul\":10345:10722   */\n    tag_79:\n        /* \"#utility.yul\":10433:10436   */\n      0x00\n        /* \"#utility.yul\":10461:10500   */\n      tag_195\n        /* \"#utility.yul\":10494:10499   */\n      dup3\n        /* \"#utility.yul\":10461:10500   */\n      tag_75\n      jump\t// in\n    tag_195:\n        /* \"#utility.yul\":10516:10587   */\n      tag_196\n        /* \"#utility.yul\":10580:10586   */\n      dup2\n        /* \"#utility.yul\":10575:10578   */\n      dup6\n        /* \"#utility.yul\":10516:10587   */\n      tag_78\n      jump\t// in\n    tag_196:\n        /* \"#utility.yul\":10509:10587   */\n      swap4\n      pop\n        /* \"#utility.yul\":10596:10661   */\n      tag_197\n        /* \"#utility.yul\":10654:10660   */\n      dup2\n        /* \"#utility.yul\":10649:10652   */\n      dup6\n        /* \"#utility.yul\":10642:10646   */\n      0x20\n        /* \"#utility.yul\":10635:10640   */\n      dup7\n        /* \"#utility.yul\":10631:10647   */\n      add\n        /* \"#utility.yul\":10596:10661   */\n      tag_76\n      jump\t// in\n    tag_197:\n        /* \"#utility.yul\":10686:10715   */\n      tag_198\n        /* \"#utility.yul\":10708:10714   */\n      dup2\n        /* \"#utility.yul\":10686:10715   */\n      tag_59\n      jump\t// in\n    tag_198:\n        /* \"#utility.yul\":10681:10684   */\n      dup5\n        /* \"#utility.yul\":10677:10716   */\n      add\n        /* \"#utility.yul\":10670:10716   */\n      swap2\n      pop\n        /* \"#utility.yul\":10437:10722   */\n      pop\n        /* \"#utility.yul\":10345:10722   */\n      swap3\n      swap2\n      pop\n      pop\n      jump\t// out\n        /* \"#utility.yul\":10728:11151   */\n    tag_43:\n        /* \"#utility.yul\":10869:10873   */\n      0x00\n        /* \"#utility.yul\":10907:10909   */\n      0x40\n        /* \"#utility.yul\":10896:10905   */\n      dup3\n        /* \"#utility.yul\":10892:10910   */\n      add\n        /* \"#utility.yul\":10884:10910   */\n      swap1\n      pop\n        /* \"#utility.yul\":10956:10965   */\n      dup2\n        /* \"#utility.yul\":10950:10954   */\n      dup2\n        /* \"#utility.yul\":10946:10966   */\n      sub\n        /* \"#utility.yul\":10942:10943   */\n      0x00\n        /* \"#utility.yul\":10931:10940   */\n      dup4\n        /* \"#utility.yul\":10927:10944   */\n      add\n        /* \"#utility.yul\":10920:10967   */\n      mstore\n        /* \"#utility.yul\":10984:11062   */\n      tag_200\n        /* \"#utility.yul\":11057:11061   */\n      dup2\n        /* \"#utility.yul\":11048:11054   */\n      dup6\n        /* \"#utility.yul\":10984:11062   */\n      tag_79\n      jump\t// in\n    tag_200:\n        /* \"#utility.yul\":10976:11062   */\n      swap1\n      pop\n        /* \"#utility.yul\":11072:11144   */\n      tag_201\n        /* \"#utility.yul\":11140:11142   */\n      0x20\n        /* \"#utility.yul\":11129:11138   */\n      dup4\n        /* \"#utility.yul\":11125:11143   */\n      add\n        /* \"#utility.yul\":11116:11122   */\n      dup5\n        /* \"#utility.yul\":11072:11144   */\n      tag_53\n      jump\t// in\n    tag_201:\n        /* \"#utility.yul\":10728:11151   */\n      swap4\n      swap3\n      pop\n      pop\n      pop\n      jump\t// out\n\n    auxdata: 0xa264697066735822122053ea97a9d7946ee23e1da036eb906a031769d73ca0a89738422622b6f4f28a2a64736f6c634300081a0033\n}\n",
				"bytecode": {
					"linkReferences": {},
					"object": "608060405234801561000f575f80fd5b50600a6001604051610020906100cf565b908152602001604051809103902081905550600560016040516100429061012d565b908152602001604051809103902081905550600360016040516100649061018b565b90815260200160405180910390208190555061019f565b5f81905092915050565b7f626173655f73636f7265000000000000000000000000000000000000000000005f82015250565b5f6100b9600a8361007b565b91506100c482610085565b600a82019050919050565b5f6100d9826100ad565b9150819050919050565b7f617070726f76616c5f626f6e75730000000000000000000000000000000000005f82015250565b5f610117600e8361007b565b9150610122826100e3565b600e82019050919050565b5f6101378261010b565b9150819050919050565b7f72656a656374696f6e5f70656e616c74790000000000000000000000000000005f82015250565b5f61017560118361007b565b915061018082610141565b601182019050919050565b5f61019582610169565b9150819050919050565b61090b806101ac5f395ff3fe608060405234801561000f575f80fd5b506004361061004a575f3560e01c806306fa15a71461004e5780630948bb7e1461007f5780633e90c1691461009b578063a8e563c2146100b7575b5f80fd5b6100686004803603810190610063919061039c565b6100e7565b6040516100769291906103ee565b60405180910390f35b6100996004803603810190610094919061044a565b610125565b005b6100b560048036038101906100b091906105ee565b6102a4565b005b6100d160048036038101906100cc9190610648565b610304565b6040516100de919061068f565b60405180910390f35b5f602052805f5260405f205f91509050805f015f9054906101000a900473ffffffffffffffffffffffffffffffffffffffff16908060010154905082565b80156101a1576001604051610139906106fc565b9081526020016040518091039020545f808473ffffffffffffffffffffffffffffffffffffffff1673ffffffffffffffffffffffffffffffffffffffff1681526020019081526020015f206001015f828254610195919061073d565b92505081905550610213565b60016040516101af906107ba565b9081526020016040518091039020545f808473ffffffffffffffffffffffffffffffffffffffff1673ffffffffffffffffffffffffffffffffffffffff1681526020019081526020015f206001015f82825461020b91906107ce565b925050819055505b8173ffffffffffffffffffffffffffffffffffffffff167ffc577563f1b9a0461e24abef1e1fcc0d33d3d881f20b5df6dda59de4aae2c8215f808573ffffffffffffffffffffffffffffffffffffffff1673ffffffffffffffffffffffffffffffffffffffff1681526020019081526020015f2060010154604051610298919061068f565b60405180910390a25050565b806001836040516102b59190610849565b9081526020016040518091039020819055507fd66e632e7d3b0ec9c2bb73cbfb70092ffe2dd6460e4cd48904a561015e730d9482826040516102f89291906108a7565b60405180910390a15050565b6001818051602081018201805184825260208301602085012081835280955050505050505f915090505481565b5f604051905090565b5f80fd5b5f80fd5b5f73ffffffffffffffffffffffffffffffffffffffff82169050919050565b5f61036b82610342565b9050919050565b61037b81610361565b8114610385575f80fd5b50565b5f8135905061039681610372565b92915050565b5f602082840312156103b1576103b061033a565b5b5f6103be84828501610388565b91505092915050565b6103d081610361565b82525050565b5f819050919050565b6103e8816103d6565b82525050565b5f6040820190506104015f8301856103c7565b61040e60208301846103df565b9392505050565b5f8115159050919050565b61042981610415565b8114610433575f80fd5b50565b5f8135905061044481610420565b92915050565b5f80604083850312156104605761045f61033a565b5b5f61046d85828601610388565b925050602061047e85828601610436565b9150509250929050565b5f80fd5b5f80fd5b5f601f19601f8301169050919050565b7f4e487b71000000000000000000000000000000000000000000000000000000005f52604160045260245ffd5b6104d682610490565b810181811067ffffffffffffffff821117156104f5576104f46104a0565b5b80604052505050565b5f610507610331565b905061051382826104cd565b919050565b5f67ffffffffffffffff821115610532576105316104a0565b5b61053b82610490565b9050602081019050919050565b828183375f83830152505050565b5f61056861056384610518565b6104fe565b9050828152602081018484840111156105845761058361048c565b5b61058f848285610548565b509392505050565b5f82601f8301126105ab576105aa610488565b5b81356105bb848260208601610556565b91505092915050565b6105cd816103d6565b81146105d7575f80fd5b50565b5f813590506105e8816105c4565b92915050565b5f80604083850312156106045761060361033a565b5b5f83013567ffffffffffffffff8111156106215761062061033e565b5b61062d85828601610597565b925050602061063e858286016105da565b9150509250929050565b5f6020828403121561065d5761065c61033a565b5b5f82013567ffffffffffffffff81111561067a5761067961033e565b5b61068684828501610597565b91505092915050565b5f6020820190506106a25f8301846103df565b92915050565b5f81905092915050565b7f617070726f76616c5f626f6e75730000000000000000000000000000000000005f82015250565b5f6106e6600e836106a8565b91506106f1826106b2565b600e82019050919050565b5f610706826106da565b9150819050919050565b7f4e487b71000000000000000000000000000000000000000000000000000000005f52601160045260245ffd5b5f610747826103d6565b9150610752836103d6565b925082820190508082111561076a57610769610710565b5b92915050565b7f72656a656374696f6e5f70656e616c74790000000000000000000000000000005f82015250565b5f6107a46011836106a8565b91506107af82610770565b601182019050919050565b5f6107c482610798565b9150819050919050565b5f6107d8826103d6565b91506107e3836103d6565b92508282039050818111156107fb576107fa610710565b5b92915050565b5f81519050919050565b8281835e5f83830152505050565b5f61082382610801565b61082d81856106a8565b935061083d81856020860161080b565b80840191505092915050565b5f6108548284610819565b915081905092915050565b5f82825260208201905092915050565b5f61087982610801565b610883818561085f565b935061089381856020860161080b565b61089c81610490565b840191505092915050565b5f6040820190508181035f8301526108bf818561086f565b90506108ce60208301846103df565b939250505056fea264697066735822122053ea97a9d7946ee23e1da036eb906a031769d73ca0a89738422622b6f4f28a2a64736f6c634300081a0033",
					"opcodes": "PUSH1 0x80 PUSH1 0x40 MSTORE CALLVALUE DUP1 ISZERO PUSH2 0xF JUMPI PUSH0 DUP1 REVERT JUMPDEST POP PUSH1 0xA PUSH1 0x1 PUSH1 0x40 MLOAD PUSH2 0x20 SWAP1 PUSH2 0xCF JUMP JUMPDEST SWAP1 DUP2 MSTORE PUSH1 0x20 ADD PUSH1 0x40 MLOAD DUP1 SWAP2 SUB SWAP1 KECCAK256 DUP2 SWAP1 SSTORE POP PUSH1 0x5 PUSH1 0x1 PUSH1 0x40 MLOAD PUSH2 0x42 SWAP1 PUSH2 0x12D JUMP JUMPDEST SWAP1 DUP2 MSTORE PUSH1 0x20 ADD PUSH1 0x40 MLOAD DUP1 SWAP2 SUB SWAP1 KECCAK256 DUP2 SWAP1 SSTORE POP PUSH1 0x3 PUSH1 0x1 PUSH1 0x40 MLOAD PUSH2 0x64 SWAP1 PUSH2 0x18B JUMP JUMPDEST SWAP1 DUP2 MSTORE PUSH1 0x20 ADD PUSH1 0x40 MLOAD DUP1 SWAP2 SUB SWAP1 KECCAK256 DUP2 SWAP1 SSTORE POP PUSH2 0x19F JUMP JUMPDEST PUSH0 DUP2 SWAP1 POP SWAP3 SWAP2 POP POP JUMP JUMPDEST PUSH32 0x626173655F73636F726500000000000000000000000000000000000000000000 PUSH0 DUP3 ADD MSTORE POP JUMP JUMPDEST PUSH0 PUSH2 0xB9 PUSH1 0xA DUP4 PUSH2 0x7B JUMP JUMPDEST SWAP2 POP PUSH2 0xC4 DUP3 PUSH2 0x85 JUMP JUMPDEST PUSH1 0xA DUP3 ADD SWAP1 POP SWAP2 SWAP1 POP JUMP JUMPDEST PUSH0 PUSH2 0xD9 DUP3 PUSH2 0xAD JUMP JUMPDEST SWAP2 POP DUP2 SWAP1 POP SWAP2 SWAP1 POP JUMP JUMPDEST PUSH32 0x617070726F76616C5F626F6E7573000000000000000000000000000000000000 PUSH0 DUP3 ADD MSTORE POP JUMP JUMPDEST PUSH0 PUSH2 0x117 PUSH1 0xE DUP4 PUSH2 0x7B JUMP JUMPDEST SWAP2 POP PUSH2 0x122 DUP3 PUSH2 0xE3 JUMP JUMPDEST PUSH1 0xE DUP3 ADD SWAP1 POP SWAP2 SWAP1 POP JUMP JUMPDEST PUSH0 PUSH2 0x137 DUP3 PUSH2 0x10B JUMP JUMPDEST SWAP2 POP DUP2 SWAP1 POP SWAP2 SWAP1 POP JUMP JUMPDEST PUSH32 0x72656A656374696F6E5F70656E616C7479000000000000000000000000000000 PUSH0 DUP3 ADD MSTORE POP JUMP JUMPDEST PUSH0 PUSH2 0x175 PUSH1 0x11 DUP4 PUSH2 0x7B JUMP JUMPDEST SWAP2 POP PUSH2 0x180 DUP3 PUSH2 0x141 JUMP JUMPDEST PUSH1 0x11 DUP3 ADD SWAP1 POP SWAP2 SWAP1 POP JUMP JUMPDEST PUSH0 PUSH2 0x195 DUP3 PUSH2 0x169 JUMP JUMPDEST SWAP2 POP DUP2 SWAP1 POP SWAP2 SWAP1 POP JUMP JUMPDEST PUSH2 0x90B DUP1 PUSH2 0x1AC PUSH0 CODECOPY PUSH0 RETURN INVALID PUSH1 0x80 PUSH1 0x40 MSTORE CALLVALUE DUP1 ISZERO PUSH2 0xF JUMPI PUSH0 DUP1 REVERT JUMPDEST POP PUSH1 0x4 CALLDATASIZE LT PUSH2 0x4A JUMPI PUSH0 CALLDATALOAD PUSH1 0xE0 SHR DUP1 PUSH4 0x6FA15A7 EQ PUSH2 0x4E JUMPI DUP1 PUSH4 0x948BB7E EQ PUSH2 0x7F JUMPI DUP1 PUSH4 0x3E90C169 EQ PUSH2 0x9B JUMPI DUP1 PUSH4 0xA8E563C2 EQ PUSH2 0xB7 JUMPI JUMPDEST PUSH0 DUP1 REVERT JUMPDEST PUSH2 0x68 PUSH1 0x4 DUP1 CALLDATASIZE SUB DUP2 ADD SWAP1 PUSH2 0x63 SWAP2 SWAP1 PUSH2 0x39C JUMP JUMPDEST PUSH2 0xE7 JUMP JUMPDEST PUSH1 0x40 MLOAD PUSH2 0x76 SWAP3 SWAP2 SWAP1 PUSH2 0x3EE JUMP JUMPDEST PUSH1 0x40 MLOAD DUP1 SWAP2 SUB SWAP1 RETURN JUMPDEST PUSH2 0x99 PUSH1 0x4 DUP1 CALLDATASIZE SUB DUP2 ADD SWAP1 PUSH2 0x94 SWAP2 SWAP1 PUSH2 0x44A JUMP JUMPDEST PUSH2 0x125 JUMP JUMPDEST STOP JUMPDEST PUSH2 0xB5 PUSH1 0x4 DUP1 CALLDATASIZE SUB DUP2 ADD SWAP1 PUSH2 0xB0 SWAP2 SWAP1 PUSH2 0x5EE JUMP JUMPDEST PUSH2 0x2A4 JUMP JUMPDEST STOP JUMPDEST PUSH2 0xD1 PUSH1 0x4 DUP1 CALLDATASIZE SUB DUP2 ADD SWAP1 PUSH2 0xCC SWAP2 SWAP1 PUSH2 0x648 JUMP JUMPDEST PUSH2 0x304 JUMP JUMPDEST PUSH1 0x40 MLOAD PUSH2 0xDE SWAP2 SWAP1 PUSH2 0x68F JUMP JUMPDEST PUSH1 0x40 MLOAD DUP1 SWAP2 SUB SWAP1 RETURN JUMPDEST PUSH0 PUSH1 0x20 MSTORE DUP1 PUSH0 MSTORE PUSH1 0x40 PUSH0 KECCAK256 PUSH0 SWAP2 POP SWAP1 POP DUP1 PUSH0 ADD PUSH0 SWAP1 SLOAD SWAP1 PUSH2 0x100 EXP SWAP1 DIV PUSH20 0xFFFFFFFFFFFFFFFFFFFFFFFFFFFFFFFFFFFFFFFF AND SWAP1 DUP1 PUSH1 0x1 ADD SLOAD SWAP1 POP DUP3 JUMP JUMPDEST DUP1 ISZERO PUSH2 0x1A1 JUMPI PUSH1 0x1 PUSH1 0x40 MLOAD PUSH2 0x139 SWAP1 PUSH2 0x6FC JUMP JUMPDEST SWAP1 DUP2 MSTORE PUSH1 0x20 ADD PUSH1 0x40 MLOAD DUP1 SWAP2 SUB SWAP1 KECCAK256 SLOAD PUSH0 DUP1 DUP5 PUSH20 0xFFFFFFFFFFFFFFFFFFFFFFFFFFFFFFFFFFFFFFFF AND PUSH20 0xFFFFFFFFFFFFFFFFFFFFFFFFFFFFFFFFFFFFFFFF AND DUP2 MSTORE PUSH1 0x20 ADD SWAP1 DUP2 MSTORE PUSH1 0x20 ADD PUSH0 KECCAK256 PUSH1 0x1 ADD PUSH0 DUP3 DUP3 SLOAD PUSH2 0x195 SWAP2 SWAP1 PUSH2 0x73D JUMP JUMPDEST SWAP3 POP POP DUP2 SWAP1 SSTORE POP PUSH2 0x213 JUMP JUMPDEST PUSH1 0x1 PUSH1 0x40 MLOAD PUSH2 0x1AF SWAP1 PUSH2 0x7BA JUMP JUMPDEST SWAP1 DUP2 MSTORE PUSH1 0x20 ADD PUSH1 0x40 MLOAD DUP1 SWAP2 SUB SWAP1 KECCAK256 SLOAD PUSH0 DUP1 DUP5 PUSH20 0xFFFFFFFFFFFFFFFFFFFFFFFFFFFFFFFFFFFFFFFF AND PUSH20 0xFFFFFFFFFFFFFFFFFFFFFFFFFFFFFFFFFFFFFFFF AND DUP2 MSTORE PUSH1 0x20 ADD SWAP1 DUP2 MSTORE PUSH1 0x20 ADD PUSH0 KECCAK256 PUSH1 0x1 ADD PUSH0 DUP3 DUP3 SLOAD PUSH2 0x20B SWAP2 SWAP1 PUSH2 0x7CE JUMP JUMPDEST SWAP3 POP POP DUP2 SWAP1 SSTORE POP JUMPDEST DUP2 PUSH20 0xFFFFFFFFFFFFFFFFFFFFFFFFFFFFFFFFFFFFFFFF AND PUSH32 0xFC577563F1B9A0461E24ABEF1E1FCC0D33D3D881F20B5DF6DDA59DE4AAE2C821 PUSH0 DUP1 DUP6 PUSH20 0xFFFFFFFFFFFFFFFFFFFFFFFFFFFFFFFFFFFFFFFF AND PUSH20 0xFFFFFFFFFFFFFFFFFFFFFFFFFFFFFFFFFFFFFFFF AND DUP2 MSTORE PUSH1 0x20 ADD SWAP1 DUP2 MSTORE PUSH1 0x20 ADD PUSH0 KECCAK256 PUSH1 0x1 ADD SLOAD PUSH1 0x40 MLOAD PUSH2 0x298 SWAP2 SWAP1 PUSH2 0x68F JUMP JUMPDEST PUSH1 0x40 MLOAD DUP1 SWAP2 SUB SWAP1 LOG2 POP POP JUMP JUMPDEST DUP1 PUSH1 0x1 DUP4 PUSH1 0x40 MLOAD PUSH2 0x2B5 SWAP2 SWAP1 PUSH2 0x849 JUMP JUMPDEST SWAP1 DUP2 MSTORE PUSH1 0x20 ADD PUSH1 0x40 MLOAD DUP1 SWAP2 SUB SWAP1 KECCAK256 DUP2 SWAP1 SSTORE POP PUSH32 0xD66E632E7D3B0EC9C2BB73CBFB70092FFE2DD6460E4CD48904A561015E730D94 DUP3 DUP3 PUSH1 0x40 MLOAD PUSH2 0x2F8 SWAP3 SWAP2 SWAP1 PUSH2 0x8A7 JUMP JUMPDEST PUSH1 0x40 MLOAD DUP1 SWAP2 SUB SWAP1 LOG1 POP POP JUMP JUMPDEST PUSH1 0x1 DUP2 DUP1 MLOAD PUSH1 0x20 DUP2 ADD DUP3 ADD DUP1 MLOAD DUP5 DUP3 MSTORE PUSH1 0x20 DUP4 ADD PUSH1 0x20 DUP6 ADD KECCAK256 DUP2 DUP4 MSTORE DUP1 SWAP6 POP POP POP POP POP POP PUSH0 SWAP2 POP SWAP1 POP SLOAD DUP2 JUMP JUMPDEST PUSH0 PUSH1 0x40 MLOAD SWAP1 POP SWAP1 JUMP JUMPDEST PUSH0 DUP1 REVERT JUMPDEST PUSH0 DUP1 REVERT JUMPDEST PUSH0 PUSH20 0xFFFFFFFFFFFFFFFFFFFFFFFFFFFFFFFFFFFFFFFF DUP3 AND SWAP1 POP SWAP2 SWAP1 POP JUMP JUMPDEST PUSH0 PUSH2 0x36B DUP3 PUSH2 0x342 JUMP JUMPDEST SWAP1 POP SWAP2 SWAP1 POP JUMP JUMPDEST PUSH2 0x37B DUP2 PUSH2 0x361 JUMP JUMPDEST DUP2 EQ PUSH2 0x385 JUMPI PUSH0 DUP1 REVERT JUMPDEST POP JUMP JUMPDEST PUSH0 DUP2 CALLDATALOAD SWAP1 POP PUSH2 0x396 DUP2 PUSH2 0x372 JUMP JUMPDEST SWAP3 SWAP2 POP POP JUMP JUMPDEST PUSH0 PUSH1 0x20 DUP3 DUP5 SUB SLT ISZERO PUSH2 0x3B1 JUMPI PUSH2 0x3B0 PUSH2 0x33A JUMP JUMPDEST JUMPDEST PUSH0 PUSH2 0x3BE DUP5 DUP3 DUP6 ADD PUSH2 0x388 JUMP JUMPDEST SWAP2 POP POP SWAP3 SWAP2 POP POP JUMP JUMPDEST PUSH2 0x3D0 DUP2 PUSH2 0x361 JUMP JUMPDEST DUP3 MSTORE POP POP JUMP JUMPDEST PUSH0 DUP2 SWAP1 POP SWAP2 SWAP1 POP JUMP JUMPDEST PUSH2 0x3E8 DUP2 PUSH2 0x3D6 JUMP JUMPDEST DUP3 MSTORE POP POP JUMP JUMPDEST PUSH0 PUSH1 0x40 DUP3 ADD SWAP1 POP PUSH2 0x401 PUSH0 DUP4 ADD DUP6 PUSH2 0x3C7 JUMP JUMPDEST PUSH2 0x40E PUSH1 0x20 DUP4 ADD DUP5 PUSH2 0x3DF JUMP JUMPDEST SWAP4 SWAP3 POP POP POP JUMP JUMPDEST PUSH0 DUP2 ISZERO ISZERO SWAP1 POP SWAP2 SWAP1 POP JUMP JUMPDEST PUSH2 0x429 DUP2 PUSH2 0x415 JUMP JUMPDEST DUP2 EQ PUSH2 0x433 JUMPI PUSH0 DUP1 REVERT JUMPDEST POP JUMP JUMPDEST PUSH0 DUP2 CALLDATALOAD SWAP1 POP PUSH2 0x444 DUP2 PUSH2 0x420 JUMP JUMPDEST SWAP3 SWAP2 POP POP JUMP JUMPDEST PUSH0 DUP1 PUSH1 0x40 DUP4 DUP6 SUB SLT ISZERO PUSH2 0x460 JUMPI PUSH2 0x45F PUSH2 0x33A JUMP JUMPDEST JUMPDEST PUSH0 PUSH2 0x46D DUP6 DUP3 DUP7 ADD PUSH2 0x388 JUMP JUMPDEST SWAP3 POP POP PUSH1 0x20 PUSH2 0x47E DUP6 DUP3 DUP7 ADD PUSH2 0x436 JUMP JUMPDEST SWAP2 POP POP SWAP3 POP SWAP3 SWAP1 POP JUMP JUMPDEST PUSH0 DUP1 REVERT JUMPDEST PUSH0 DUP1 REVERT JUMPDEST PUSH0 PUSH1 0x1F NOT PUSH1 0x1F DUP4 ADD AND SWAP1 POP SWAP2 SWAP1 POP JUMP JUMPDEST PUSH32 0x4E487B7100000000000000000000000000000000000000000000000000000000 PUSH0 MSTORE PUSH1 0x41 PUSH1 0x4 MSTORE PUSH1 0x24 PUSH0 REVERT JUMPDEST PUSH2 0x4D6 DUP3 PUSH2 0x490 JUMP JUMPDEST DUP2 ADD DUP2 DUP2 LT PUSH8 0xFFFFFFFFFFFFFFFF DUP3 GT OR ISZERO PUSH2 0x4F5 JUMPI PUSH2 0x4F4 PUSH2 0x4A0 JUMP JUMPDEST JUMPDEST DUP1 PUSH1 0x40 MSTORE POP POP POP JUMP JUMPDEST PUSH0 PUSH2 0x507 PUSH2 0x331 JUMP JUMPDEST SWAP1 POP PUSH2 0x513 DUP3 DUP3 PUSH2 0x4CD JUMP JUMPDEST SWAP2 SWAP1 POP JUMP JUMPDEST PUSH0 PUSH8 0xFFFFFFFFFFFFFFFF DUP3 GT ISZERO PUSH2 0x532 JUMPI PUSH2 0x531 PUSH2 0x4A0 JUMP JUMPDEST JUMPDEST PUSH2 0x53B DUP3 PUSH2 0x490 JUMP JUMPDEST SWAP1 POP PUSH1 0x20 DUP2 ADD SWAP1 POP SWAP2 SWAP1 POP JUMP JUMPDEST DUP3 DUP2 DUP4 CALLDATACOPY PUSH0 DUP4 DUP4 ADD MSTORE POP POP POP JUMP JUMPDEST PUSH0 PUSH2 0x568 PUSH2 0x563 DUP5 PUSH2 0x518 JUMP JUMPDEST PUSH2 0x4FE JUMP JUMPDEST SWAP1 POP DUP3 DUP2 MSTORE PUSH1 0x20 DUP2 ADD DUP5 DUP5 DUP5 ADD GT ISZERO PUSH2 0x584 JUMPI PUSH2 0x583 PUSH2 0x48C JUMP JUMPDEST JUMPDEST PUSH2 0x58F DUP5 DUP3 DUP6 PUSH2 0x548 JUMP JUMPDEST POP SWAP4 SWAP3 POP POP POP JUMP JUMPDEST PUSH0 DUP3 PUSH1 0x1F DUP4 ADD SLT PUSH2 0x5AB JUMPI PUSH2 0x5AA PUSH2 0x488 JUMP JUMPDEST JUMPDEST DUP2 CALLDATALOAD PUSH2 0x5BB DUP5 DUP3 PUSH1 0x20 DUP7 ADD PUSH2 0x556 JUMP JUMPDEST SWAP2 POP POP SWAP3 SWAP2 POP POP JUMP JUMPDEST PUSH2 0x5CD DUP2 PUSH2 0x3D6 JUMP JUMPDEST DUP2 EQ PUSH2 0x5D7 JUMPI PUSH0 DUP1 REVERT JUMPDEST POP JUMP JUMPDEST PUSH0 DUP2 CALLDATALOAD SWAP1 POP PUSH2 0x5E8 DUP2 PUSH2 0x5C4 JUMP JUMPDEST SWAP3 SWAP2 POP POP JUMP JUMPDEST PUSH0 DUP1 PUSH1 0x40 DUP4 DUP6 SUB SLT ISZERO PUSH2 0x604 JUMPI PUSH2 0x603 PUSH2 0x33A JUMP JUMPDEST JUMPDEST PUSH0 DUP4 ADD CALLDATALOAD PUSH8 0xFFFFFFFFFFFFFFFF DUP2 GT ISZERO PUSH2 0x621 JUMPI PUSH2 0x620 PUSH2 0x33E JUMP JUMPDEST JUMPDEST PUSH2 0x62D DUP6 DUP3 DUP7 ADD PUSH2 0x597 JUMP JUMPDEST SWAP3 POP POP PUSH1 0x20 PUSH2 0x63E DUP6 DUP3 DUP7 ADD PUSH2 0x5DA JUMP JUMPDEST SWAP2 POP POP SWAP3 POP SWAP3 SWAP1 POP JUMP JUMPDEST PUSH0 PUSH1 0x20 DUP3 DUP5 SUB SLT ISZERO PUSH2 0x65D JUMPI PUSH2 0x65C PUSH2 0x33A JUMP JUMPDEST JUMPDEST PUSH0 DUP3 ADD CALLDATALOAD PUSH8 0xFFFFFFFFFFFFFFFF DUP2 GT ISZERO PUSH2 0x67A JUMPI PUSH2 0x679 PUSH2 0x33E JUMP JUMPDEST JUMPDEST PUSH2 0x686 DUP5 DUP3 DUP6 ADD PUSH2 0x597 JUMP JUMPDEST SWAP2 POP POP SWAP3 SWAP2 POP POP JUMP JUMPDEST PUSH0 PUSH1 0x20 DUP3 ADD SWAP1 POP PUSH2 0x6A2 PUSH0 DUP4 ADD DUP5 PUSH2 0x3DF JUMP JUMPDEST SWAP3 SWAP2 POP POP JUMP JUMPDEST PUSH0 DUP2 SWAP1 POP SWAP3 SWAP2 POP POP JUMP JUMPDEST PUSH32 0x617070726F76616C5F626F6E7573000000000000000000000000000000000000 PUSH0 DUP3 ADD MSTORE POP JUMP JUMPDEST PUSH0 PUSH2 0x6E6 PUSH1 0xE DUP4 PUSH2 0x6A8 JUMP JUMPDEST SWAP2 POP PUSH2 0x6F1 DUP3 PUSH2 0x6B2 JUMP JUMPDEST PUSH1 0xE DUP3 ADD SWAP1 POP SWAP2 SWAP1 POP JUMP JUMPDEST PUSH0 PUSH2 0x706 DUP3 PUSH2 0x6DA JUMP JUMPDEST SWAP2 POP DUP2 SWAP1 POP SWAP2 SWAP1 POP JUMP JUMPDEST PUSH32 0x4E487B7100000000000000000000000000000000000000000000000000000000 PUSH0 MSTORE PUSH1 0x11 PUSH1 0x4 MSTORE PUSH1 0x24 PUSH0 REVERT JUMPDEST PUSH0 PUSH2 0x747 DUP3 PUSH2 0x3D6 JUMP JUMPDEST SWAP2 POP PUSH2 0x752 DUP4 PUSH2 0x3D6 JUMP JUMPDEST SWAP3 POP DUP3 DUP3 ADD SWAP1 POP DUP1 DUP3 GT ISZERO PUSH2 0x76A JUMPI PUSH2 0x769 PUSH2 0x710 JUMP JUMPDEST JUMPDEST SWAP3 SWAP2 POP POP JUMP JUMPDEST PUSH32 0x72656A656374696F6E5F70656E616C7479000000000000000000000000000000 PUSH0 DUP3 ADD MSTORE POP JUMP JUMPDEST PUSH0 PUSH2 0x7A4 PUSH1 0x11 DUP4 PUSH2 0x6A8 JUMP JUMPDEST SWAP2 POP PUSH2 0x7AF DUP3 PUSH2 0x770 JUMP JUMPDEST PUSH1 0x11 DUP3 ADD SWAP1 POP SWAP2 SWAP1 POP JUMP JUMPDEST PUSH0 PUSH2 0x7C4 DUP3 PUSH2 0x798 JUMP JUMPDEST SWAP2 POP DUP2 SWAP1 POP SWAP2 SWAP1 POP JUMP JUMPDEST PUSH0 PUSH2 0x7D8 DUP3 PUSH2 0x3D6 JUMP JUMPDEST SWAP2 POP PUSH2 0x7E3 DUP4 PUSH2 0x3D6 JUMP JUMPDEST SWAP3 POP DUP3 DUP3 SUB SWAP1 POP DUP2 DUP2 GT ISZERO PUSH2 0x7FB JUMPI PUSH2 0x7FA PUSH2 0x710 JUMP JUMPDEST JUMPDEST SWAP3 SWAP2 POP POP JUMP JUMPDEST PUSH0 DUP2 MLOAD SWAP1 POP SWAP2 SWAP1 POP JUMP JUMPDEST DUP3 DUP2 DUP4 MCOPY PUSH0 DUP4 DUP4 ADD MSTORE POP POP POP JUMP JUMPDEST PUSH0 PUSH2 0x823 DUP3 PUSH2 0x801 JUMP JUMPDEST PUSH2 0x82D DUP2 DUP6 PUSH2 0x6A8 JUMP JUMPDEST SWAP4 POP PUSH2 0x83D DUP2 DUP6 PUSH1 0x20 DUP7 ADD PUSH2 0x80B JUMP JUMPDEST DUP1 DUP5 ADD SWAP2 POP POP SWAP3 SWAP2 POP POP JUMP JUMPDEST PUSH0 PUSH2 0x854 DUP3 DUP5 PUSH2 0x819 JUMP JUMPDEST SWAP2 POP DUP2 SWAP1 POP SWAP3 SWAP2 POP POP JUMP JUMPDEST PUSH0 DUP3 DUP3 MSTORE PUSH1 0x20 DUP3 ADD SWAP1 POP SWAP3 SWAP2 POP POP JUMP JUMPDEST PUSH0 PUSH2 0x879 DUP3 PUSH2 0x801 JUMP JUMPDEST PUSH2 0x883 DUP2 DUP6 PUSH2 0x85F JUMP JUMPDEST SWAP4 POP PUSH2 0x893 DUP2 DUP6 PUSH1 0x20 DUP7 ADD PUSH2 0x80B JUMP JUMPDEST PUSH2 0x89C DUP2 PUSH2 0x490 JUMP JUMPDEST DUP5 ADD SWAP2 POP POP SWAP3 SWAP2 POP POP JUMP JUMPDEST PUSH0 PUSH1 0x40 DUP3 ADD SWAP1 POP DUP2 DUP2 SUB PUSH0 DUP4 ADD MSTORE PUSH2 0x8BF DUP2 DUP6 PUSH2 0x86F JUMP JUMPDEST SWAP1 POP PUSH2 0x8CE PUSH1 0x20 DUP4 ADD DUP5 PUSH2 0x3DF JUMP JUMPDEST SWAP4 SWAP3 POP POP POP JUMP INVALID LOG2 PUSH5 0x6970667358 0x22 SLT KECCAK256 MSTORE8 0xEA SWAP8 0xA9 0xD7 SWAP5 PUSH15 0xE23E1DA036EB906A031769D73CA0A8 SWAP8 CODESIZE TIMESTAMP 0x26 0x22 0xB6 DELEGATECALL CALLCODE DUP11 0x2A PUSH5 0x736F6C6343 STOP ADDMOD BYTE STOP CALLER "
				},
				"gasEstimates": {
					"creation": {
						"codeDepositCost": "463000",
						"executionCost": "infinite",
						"totalCost": "infinite"
					},
					"external": {
						"calculateReputation(address,bool)": "infinite",
						"reputationRules(string)": "infinite",
						"reputations(address)": "infinite",
						"updateReputationRules(string,uint256)": "infinite"
					}
				},
				"methodIdentifiers": {
					"calculateReputation(address,bool)": "0948bb7e",
					"reputationRules(string)": "a8e563c2",
					"reputations(address)": "06fa15a7",
					"updateReputationRules(string,uint256)": "3e90c169"
				}
			},
			"storageLayout": {
				"storage": [
					{
						"astId": 14,
						"contract": "contracts/ReputationSystem.sol:ReputationSystem",
						"label": "reputations",
						"offset": 0,
						"slot": "0",
						"type": "t_mapping(t_address,t_struct(Reputation)9_storage)"
					},
					{
						"astId": 18,
						"contract": "contracts/ReputationSystem.sol:ReputationSystem",
						"label": "reputationRules",
						"offset": 0,
						"slot": "1",
						"type": "t_mapping(t_string_memory_ptr,t_uint256)"
					}
				],
				"types": {
					"t_address": {
						"encoding": "inplace",
						"label": "address",
						"numberOfBytes": "20"
					},
					"t_array(t_uint256)dyn_storage": {
						"base": "t_uint256",
						"encoding": "dynamic_array",
						"label": "uint256[]",
						"numberOfBytes": "32"
					},
					"t_mapping(t_address,t_struct(Reputation)9_storage)": {
						"encoding": "mapping",
						"key": "t_address",
						"label": "mapping(address => struct ReputationSystem.Reputation)",
						"numberOfBytes": "32",
						"value": "t_struct(Reputation)9_storage"
					},
					"t_mapping(t_string_memory_ptr,t_uint256)": {
						"encoding": "mapping",
						"key": "t_string_memory_ptr",
						"label": "mapping(string => uint256)",
						"numberOfBytes": "32",
						"value": "t_uint256"
					},
					"t_string_memory_ptr": {
						"encoding": "bytes",
						"label": "string",
						"numberOfBytes": "32"
					},
					"t_struct(Reputation)9_storage": {
						"encoding": "inplace",
						"label": "struct ReputationSystem.Reputation",
						"members": [
							{
								"astId": 3,
								"contract": "contracts/ReputationSystem.sol:ReputationSystem",
								"label": "scientist",
								"offset": 0,
								"slot": "0",
								"type": "t_address"
							},
							{
								"astId": 5,
								"contract": "contracts/ReputationSystem.sol:ReputationSystem",
								"label": "score",
								"offset": 0,
								"slot": "1",
								"type": "t_uint256"
							},
							{
								"astId": 8,
								"contract": "contracts/ReputationSystem.sol:ReputationSystem",
								"label": "contributions",
								"offset": 0,
								"slot": "2",
								"type": "t_array(t_uint256)dyn_storage"
							}
						],
						"numberOfBytes": "96"
					},
					"t_uint256": {
						"encoding": "inplace",
						"label": "uint256",
						"numberOfBytes": "32"
					}
				}
			},
			"userdoc": {
				"kind": "user",
				"methods": {},
				"version": 1
			}
		}
	}
}